{
  "_format": "hh-sol-artifact-1",
  "contractName": "ComptrollerG6",
  "sourceName": "contracts/ComptrollerG6.sol",
  "abi": [
    {
      "inputs": [],
      "payable": false,
      "stateMutability": "nonpayable",
      "type": "constructor"
    },
    {
      "anonymous": false,
      "inputs": [
        {
          "indexed": false,
          "internalType": "string",
          "name": "action",
          "type": "string"
        },
        {
          "indexed": false,
          "internalType": "bool",
          "name": "pauseState",
          "type": "bool"
        }
      ],
      "name": "ActionPaused",
      "type": "event"
    },
    {
      "anonymous": false,
      "inputs": [
        {
          "indexed": false,
          "internalType": "contract CToken",
          "name": "cToken",
          "type": "address"
        },
        {
          "indexed": false,
          "internalType": "string",
          "name": "action",
          "type": "string"
        },
        {
          "indexed": false,
          "internalType": "bool",
          "name": "pauseState",
          "type": "bool"
        }
      ],
      "name": "ActionPaused",
      "type": "event"
    },
    {
      "anonymous": false,
      "inputs": [
        {
          "indexed": false,
          "internalType": "address",
          "name": "recipient",
          "type": "address"
        },
        {
          "indexed": false,
          "internalType": "uint256",
          "name": "amount",
          "type": "uint256"
        }
      ],
      "name": "CompGranted",
      "type": "event"
    },
    {
      "anonymous": false,
      "inputs": [
        {
          "indexed": true,
          "internalType": "contract CToken",
          "name": "cToken",
          "type": "address"
        },
        {
          "indexed": false,
          "internalType": "uint256",
          "name": "newSpeed",
          "type": "uint256"
        }
      ],
      "name": "CompSpeedUpdated",
      "type": "event"
    },
    {
      "anonymous": false,
      "inputs": [
        {
          "indexed": true,
          "internalType": "address",
          "name": "contributor",
          "type": "address"
        },
        {
          "indexed": false,
          "internalType": "uint256",
          "name": "newSpeed",
          "type": "uint256"
        }
      ],
      "name": "ContributorCompSpeedUpdated",
      "type": "event"
    },
    {
      "anonymous": false,
      "inputs": [
        {
          "indexed": true,
          "internalType": "contract CToken",
          "name": "cToken",
          "type": "address"
        },
        {
          "indexed": true,
          "internalType": "address",
          "name": "borrower",
          "type": "address"
        },
        {
          "indexed": false,
          "internalType": "uint256",
          "name": "compDelta",
          "type": "uint256"
        },
        {
          "indexed": false,
          "internalType": "uint256",
          "name": "compBorrowIndex",
          "type": "uint256"
        }
      ],
      "name": "DistributedBorrowerComp",
      "type": "event"
    },
    {
      "anonymous": false,
      "inputs": [
        {
          "indexed": true,
          "internalType": "contract CToken",
          "name": "cToken",
          "type": "address"
        },
        {
          "indexed": true,
          "internalType": "address",
          "name": "supplier",
          "type": "address"
        },
        {
          "indexed": false,
          "internalType": "uint256",
          "name": "compDelta",
          "type": "uint256"
        },
        {
          "indexed": false,
          "internalType": "uint256",
          "name": "compSupplyIndex",
          "type": "uint256"
        }
      ],
      "name": "DistributedSupplierComp",
      "type": "event"
    },
    {
      "anonymous": false,
      "inputs": [
        {
          "indexed": false,
          "internalType": "uint256",
          "name": "error",
          "type": "uint256"
        },
        {
          "indexed": false,
          "internalType": "uint256",
          "name": "info",
          "type": "uint256"
        },
        {
          "indexed": false,
          "internalType": "uint256",
          "name": "detail",
          "type": "uint256"
        }
      ],
      "name": "Failure",
      "type": "event"
    },
    {
      "anonymous": false,
      "inputs": [
        {
          "indexed": false,
          "internalType": "contract CToken",
          "name": "cToken",
          "type": "address"
        },
        {
          "indexed": false,
          "internalType": "bool",
          "name": "isComped",
          "type": "bool"
        }
      ],
      "name": "MarketComped",
      "type": "event"
    },
    {
      "anonymous": false,
      "inputs": [
        {
          "indexed": false,
          "internalType": "contract CToken",
          "name": "cToken",
          "type": "address"
        },
        {
          "indexed": false,
          "internalType": "address",
          "name": "account",
          "type": "address"
        }
      ],
      "name": "MarketEntered",
      "type": "event"
    },
    {
      "anonymous": false,
      "inputs": [
        {
          "indexed": false,
          "internalType": "contract CToken",
          "name": "cToken",
          "type": "address"
        },
        {
          "indexed": false,
          "internalType": "address",
          "name": "account",
          "type": "address"
        }
      ],
      "name": "MarketExited",
      "type": "event"
    },
    {
      "anonymous": false,
      "inputs": [
        {
          "indexed": false,
          "internalType": "contract CToken",
          "name": "cToken",
          "type": "address"
        }
      ],
      "name": "MarketListed",
      "type": "event"
    },
    {
      "anonymous": false,
      "inputs": [
        {
          "indexed": true,
          "internalType": "contract CToken",
          "name": "cToken",
          "type": "address"
        },
        {
          "indexed": false,
          "internalType": "uint256",
          "name": "newBorrowCap",
          "type": "uint256"
        }
      ],
      "name": "NewBorrowCap",
      "type": "event"
    },
    {
      "anonymous": false,
      "inputs": [
        {
          "indexed": false,
          "internalType": "address",
          "name": "oldBorrowCapGuardian",
          "type": "address"
        },
        {
          "indexed": false,
          "internalType": "address",
          "name": "newBorrowCapGuardian",
          "type": "address"
        }
      ],
      "name": "NewBorrowCapGuardian",
      "type": "event"
    },
    {
      "anonymous": false,
      "inputs": [
        {
          "indexed": false,
          "internalType": "uint256",
          "name": "oldCloseFactorMantissa",
          "type": "uint256"
        },
        {
          "indexed": false,
          "internalType": "uint256",
          "name": "newCloseFactorMantissa",
          "type": "uint256"
        }
      ],
      "name": "NewCloseFactor",
      "type": "event"
    },
    {
      "anonymous": false,
      "inputs": [
        {
          "indexed": false,
          "internalType": "contract CToken",
          "name": "cToken",
          "type": "address"
        },
        {
          "indexed": false,
          "internalType": "uint256",
          "name": "oldCollateralFactorMantissa",
          "type": "uint256"
        },
        {
          "indexed": false,
          "internalType": "uint256",
          "name": "newCollateralFactorMantissa",
          "type": "uint256"
        }
      ],
      "name": "NewCollateralFactor",
      "type": "event"
    },
    {
      "anonymous": false,
      "inputs": [
        {
          "indexed": false,
          "internalType": "uint256",
          "name": "oldCompRate",
          "type": "uint256"
        },
        {
          "indexed": false,
          "internalType": "uint256",
          "name": "newCompRate",
          "type": "uint256"
        }
      ],
      "name": "NewCompRate",
      "type": "event"
    },
    {
      "anonymous": false,
      "inputs": [
        {
          "indexed": false,
          "internalType": "uint256",
          "name": "oldLiquidationIncentiveMantissa",
          "type": "uint256"
        },
        {
          "indexed": false,
          "internalType": "uint256",
          "name": "newLiquidationIncentiveMantissa",
          "type": "uint256"
        }
      ],
      "name": "NewLiquidationIncentive",
      "type": "event"
    },
    {
      "anonymous": false,
      "inputs": [
        {
          "indexed": false,
          "internalType": "address",
          "name": "oldPauseGuardian",
          "type": "address"
        },
        {
          "indexed": false,
          "internalType": "address",
          "name": "newPauseGuardian",
          "type": "address"
        }
      ],
      "name": "NewPauseGuardian",
      "type": "event"
    },
    {
      "anonymous": false,
      "inputs": [
        {
          "indexed": false,
          "internalType": "contract PriceOracle",
          "name": "oldPriceOracle",
          "type": "address"
        },
        {
          "indexed": false,
          "internalType": "contract PriceOracle",
          "name": "newPriceOracle",
          "type": "address"
        }
      ],
      "name": "NewPriceOracle",
      "type": "event"
    },
    {
      "constant": false,
      "inputs": [
        {
          "internalType": "address[]",
          "name": "cTokens",
          "type": "address[]"
        }
      ],
      "name": "_addCompMarkets",
      "outputs": [],
      "payable": false,
      "stateMutability": "nonpayable",
      "type": "function"
    },
    {
      "constant": false,
      "inputs": [
        {
          "internalType": "contract Unitroller",
          "name": "unitroller",
          "type": "address"
        }
      ],
      "name": "_become",
      "outputs": [],
      "payable": false,
      "stateMutability": "nonpayable",
      "type": "function"
    },
    {
      "constant": true,
      "inputs": [],
      "name": "_borrowGuardianPaused",
      "outputs": [
        {
          "internalType": "bool",
          "name": "",
          "type": "bool"
        }
      ],
      "payable": false,
      "stateMutability": "view",
      "type": "function"
    },
    {
      "constant": false,
      "inputs": [
        {
          "internalType": "address",
          "name": "cToken",
          "type": "address"
        }
      ],
      "name": "_dropCompMarket",
      "outputs": [],
      "payable": false,
      "stateMutability": "nonpayable",
      "type": "function"
    },
    {
      "constant": false,
      "inputs": [
        {
          "internalType": "address",
          "name": "recipient",
          "type": "address"
        },
        {
          "internalType": "uint256",
          "name": "amount",
          "type": "uint256"
        }
      ],
      "name": "_grantComp",
      "outputs": [],
      "payable": false,
      "stateMutability": "nonpayable",
      "type": "function"
    },
    {
      "constant": true,
      "inputs": [],
      "name": "_mintGuardianPaused",
      "outputs": [
        {
          "internalType": "bool",
          "name": "",
          "type": "bool"
        }
      ],
      "payable": false,
      "stateMutability": "view",
      "type": "function"
    },
    {
      "constant": false,
      "inputs": [
        {
          "internalType": "address",
          "name": "newBorrowCapGuardian",
          "type": "address"
        }
      ],
      "name": "_setBorrowCapGuardian",
      "outputs": [],
      "payable": false,
      "stateMutability": "nonpayable",
      "type": "function"
    },
    {
      "constant": false,
      "inputs": [
        {
          "internalType": "contract CToken",
          "name": "cToken",
          "type": "address"
        },
        {
          "internalType": "bool",
          "name": "state",
          "type": "bool"
        }
      ],
      "name": "_setBorrowPaused",
      "outputs": [
        {
          "internalType": "bool",
          "name": "",
          "type": "bool"
        }
      ],
      "payable": false,
      "stateMutability": "nonpayable",
      "type": "function"
    },
    {
      "constant": false,
      "inputs": [
        {
          "internalType": "uint256",
          "name": "newCloseFactorMantissa",
          "type": "uint256"
        }
      ],
      "name": "_setCloseFactor",
      "outputs": [
        {
          "internalType": "uint256",
          "name": "",
          "type": "uint256"
        }
      ],
      "payable": false,
      "stateMutability": "nonpayable",
      "type": "function"
    },
    {
      "constant": false,
      "inputs": [
        {
          "internalType": "contract CToken",
          "name": "cToken",
          "type": "address"
        },
        {
          "internalType": "uint256",
          "name": "newCollateralFactorMantissa",
          "type": "uint256"
        }
      ],
      "name": "_setCollateralFactor",
      "outputs": [
        {
          "internalType": "uint256",
          "name": "",
          "type": "uint256"
        }
      ],
      "payable": false,
      "stateMutability": "nonpayable",
      "type": "function"
    },
    {
      "constant": false,
      "inputs": [
        {
          "internalType": "uint256",
          "name": "compRate_",
          "type": "uint256"
        }
      ],
      "name": "_setCompRate",
      "outputs": [],
      "payable": false,
      "stateMutability": "nonpayable",
      "type": "function"
    },
    {
      "constant": false,
      "inputs": [
        {
          "internalType": "address",
          "name": "contributor",
          "type": "address"
        },
        {
          "internalType": "uint256",
          "name": "compSpeed",
          "type": "uint256"
        }
      ],
      "name": "_setContributorCompSpeed",
      "outputs": [],
      "payable": false,
      "stateMutability": "nonpayable",
      "type": "function"
    },
    {
      "constant": false,
      "inputs": [
        {
          "internalType": "uint256",
          "name": "newLiquidationIncentiveMantissa",
          "type": "uint256"
        }
      ],
      "name": "_setLiquidationIncentive",
      "outputs": [
        {
          "internalType": "uint256",
          "name": "",
          "type": "uint256"
        }
      ],
      "payable": false,
      "stateMutability": "nonpayable",
      "type": "function"
    },
    {
      "constant": false,
      "inputs": [
        {
          "internalType": "contract CToken[]",
          "name": "cTokens",
          "type": "address[]"
        },
        {
          "internalType": "uint256[]",
          "name": "newBorrowCaps",
          "type": "uint256[]"
        }
      ],
      "name": "_setMarketBorrowCaps",
      "outputs": [],
      "payable": false,
      "stateMutability": "nonpayable",
      "type": "function"
    },
    {
      "constant": false,
      "inputs": [
        {
          "internalType": "contract CToken",
          "name": "cToken",
          "type": "address"
        },
        {
          "internalType": "bool",
          "name": "state",
          "type": "bool"
        }
      ],
      "name": "_setMintPaused",
      "outputs": [
        {
          "internalType": "bool",
          "name": "",
          "type": "bool"
        }
      ],
      "payable": false,
      "stateMutability": "nonpayable",
      "type": "function"
    },
    {
      "constant": false,
      "inputs": [
        {
          "internalType": "address",
          "name": "newPauseGuardian",
          "type": "address"
        }
      ],
      "name": "_setPauseGuardian",
      "outputs": [
        {
          "internalType": "uint256",
          "name": "",
          "type": "uint256"
        }
      ],
      "payable": false,
      "stateMutability": "nonpayable",
      "type": "function"
    },
    {
      "constant": false,
      "inputs": [
        {
          "internalType": "contract PriceOracle",
          "name": "newOracle",
          "type": "address"
        }
      ],
      "name": "_setPriceOracle",
      "outputs": [
        {
          "internalType": "uint256",
          "name": "",
          "type": "uint256"
        }
      ],
      "payable": false,
      "stateMutability": "nonpayable",
      "type": "function"
    },
    {
      "constant": false,
      "inputs": [
        {
          "internalType": "bool",
          "name": "state",
          "type": "bool"
        }
      ],
      "name": "_setSeizePaused",
      "outputs": [
        {
          "internalType": "bool",
          "name": "",
          "type": "bool"
        }
      ],
      "payable": false,
      "stateMutability": "nonpayable",
      "type": "function"
    },
    {
      "constant": false,
      "inputs": [
        {
          "internalType": "bool",
          "name": "state",
          "type": "bool"
        }
      ],
      "name": "_setTransferPaused",
      "outputs": [
        {
          "internalType": "bool",
          "name": "",
          "type": "bool"
        }
      ],
      "payable": false,
      "stateMutability": "nonpayable",
      "type": "function"
    },
    {
      "constant": false,
      "inputs": [
        {
          "internalType": "contract CToken",
          "name": "cToken",
          "type": "address"
        }
      ],
      "name": "_supportMarket",
      "outputs": [
        {
          "internalType": "uint256",
          "name": "",
          "type": "uint256"
        }
      ],
      "payable": false,
      "stateMutability": "nonpayable",
      "type": "function"
    },
    {
      "constant": true,
      "inputs": [
        {
          "internalType": "address",
          "name": "",
          "type": "address"
        },
        {
          "internalType": "uint256",
          "name": "",
          "type": "uint256"
        }
      ],
      "name": "accountAssets",
      "outputs": [
        {
          "internalType": "contract CToken",
          "name": "",
          "type": "address"
        }
      ],
      "payable": false,
      "stateMutability": "view",
      "type": "function"
    },
    {
      "constant": true,
      "inputs": [],
      "name": "admin",
      "outputs": [
        {
          "internalType": "address",
          "name": "",
          "type": "address"
        }
      ],
      "payable": false,
      "stateMutability": "view",
      "type": "function"
    },
    {
      "constant": true,
      "inputs": [
        {
          "internalType": "uint256",
          "name": "",
          "type": "uint256"
        }
      ],
      "name": "allMarkets",
      "outputs": [
        {
          "internalType": "contract CToken",
          "name": "",
          "type": "address"
        }
      ],
      "payable": false,
      "stateMutability": "view",
      "type": "function"
    },
    {
      "constant": false,
      "inputs": [
        {
          "internalType": "address",
          "name": "cToken",
          "type": "address"
        },
        {
          "internalType": "address",
          "name": "borrower",
          "type": "address"
        },
        {
          "internalType": "uint256",
          "name": "borrowAmount",
          "type": "uint256"
        }
      ],
      "name": "borrowAllowed",
      "outputs": [
        {
          "internalType": "uint256",
          "name": "",
          "type": "uint256"
        }
      ],
      "payable": false,
      "stateMutability": "nonpayable",
      "type": "function"
    },
    {
      "constant": true,
      "inputs": [],
      "name": "borrowCapGuardian",
      "outputs": [
        {
          "internalType": "address",
          "name": "",
          "type": "address"
        }
      ],
      "payable": false,
      "stateMutability": "view",
      "type": "function"
    },
    {
      "constant": true,
      "inputs": [
        {
          "internalType": "address",
          "name": "",
          "type": "address"
        }
      ],
      "name": "borrowCaps",
      "outputs": [
        {
          "internalType": "uint256",
          "name": "",
          "type": "uint256"
        }
      ],
      "payable": false,
      "stateMutability": "view",
      "type": "function"
    },
    {
      "constant": true,
      "inputs": [
        {
          "internalType": "address",
          "name": "",
          "type": "address"
        }
      ],
      "name": "borrowGuardianPaused",
      "outputs": [
        {
          "internalType": "bool",
          "name": "",
          "type": "bool"
        }
      ],
      "payable": false,
      "stateMutability": "view",
      "type": "function"
    },
    {
      "constant": false,
      "inputs": [
        {
          "internalType": "address",
          "name": "cToken",
          "type": "address"
        },
        {
          "internalType": "address",
          "name": "borrower",
          "type": "address"
        },
        {
          "internalType": "uint256",
          "name": "borrowAmount",
          "type": "uint256"
        }
      ],
      "name": "borrowVerify",
      "outputs": [],
      "payable": false,
      "stateMutability": "nonpayable",
      "type": "function"
    },
    {
      "constant": true,
      "inputs": [
        {
          "internalType": "address",
          "name": "account",
          "type": "address"
        },
        {
          "internalType": "contract CToken",
          "name": "cToken",
          "type": "address"
        }
      ],
      "name": "checkMembership",
      "outputs": [
        {
          "internalType": "bool",
          "name": "",
          "type": "bool"
        }
      ],
      "payable": false,
      "stateMutability": "view",
      "type": "function"
    },
    {
      "constant": false,
      "inputs": [
        {
          "internalType": "address",
          "name": "holder",
          "type": "address"
        },
        {
          "internalType": "contract CToken[]",
          "name": "cTokens",
          "type": "address[]"
        }
      ],
      "name": "claimComp",
      "outputs": [],
      "payable": false,
      "stateMutability": "nonpayable",
      "type": "function"
    },
    {
      "constant": false,
      "inputs": [
        {
          "internalType": "address[]",
          "name": "holders",
          "type": "address[]"
        },
        {
          "internalType": "contract CToken[]",
          "name": "cTokens",
          "type": "address[]"
        },
        {
          "internalType": "bool",
          "name": "borrowers",
          "type": "bool"
        },
        {
          "internalType": "bool",
          "name": "suppliers",
          "type": "bool"
        }
      ],
      "name": "claimComp",
      "outputs": [],
      "payable": false,
      "stateMutability": "nonpayable",
      "type": "function"
    },
    {
      "constant": false,
      "inputs": [
        {
          "internalType": "address",
          "name": "holder",
          "type": "address"
        }
      ],
      "name": "claimComp",
      "outputs": [],
      "payable": false,
      "stateMutability": "nonpayable",
      "type": "function"
    },
    {
      "constant": true,
      "inputs": [],
      "name": "closeFactorMantissa",
      "outputs": [
        {
          "internalType": "uint256",
          "name": "",
          "type": "uint256"
        }
      ],
      "payable": false,
      "stateMutability": "view",
      "type": "function"
    },
    {
      "constant": true,
      "inputs": [
        {
          "internalType": "address",
          "name": "",
          "type": "address"
        }
      ],
      "name": "compAccrued",
      "outputs": [
        {
          "internalType": "uint256",
          "name": "",
          "type": "uint256"
        }
      ],
      "payable": false,
      "stateMutability": "view",
      "type": "function"
    },
    {
      "constant": true,
      "inputs": [
        {
          "internalType": "address",
          "name": "",
          "type": "address"
        }
      ],
      "name": "compBorrowState",
      "outputs": [
        {
          "internalType": "uint224",
          "name": "index",
          "type": "uint224"
        },
        {
          "internalType": "uint32",
          "name": "block",
          "type": "uint32"
        }
      ],
      "payable": false,
      "stateMutability": "view",
      "type": "function"
    },
    {
      "constant": true,
      "inputs": [
        {
          "internalType": "address",
          "name": "",
          "type": "address"
        },
        {
          "internalType": "address",
          "name": "",
          "type": "address"
        }
      ],
      "name": "compBorrowerIndex",
      "outputs": [
        {
          "internalType": "uint256",
          "name": "",
          "type": "uint256"
        }
      ],
      "payable": false,
      "stateMutability": "view",
      "type": "function"
    },
    {
      "constant": true,
      "inputs": [],
      "name": "compClaimThreshold",
      "outputs": [
        {
          "internalType": "uint256",
          "name": "",
          "type": "uint256"
        }
      ],
      "payable": false,
      "stateMutability": "view",
      "type": "function"
    },
    {
      "constant": true,
      "inputs": [
        {
          "internalType": "address",
          "name": "",
          "type": "address"
        }
      ],
      "name": "compContributorSpeeds",
      "outputs": [
        {
          "internalType": "uint256",
          "name": "",
          "type": "uint256"
        }
      ],
      "payable": false,
      "stateMutability": "view",
      "type": "function"
    },
    {
      "constant": true,
      "inputs": [],
      "name": "compInitialIndex",
      "outputs": [
        {
          "internalType": "uint224",
          "name": "",
          "type": "uint224"
        }
      ],
      "payable": false,
      "stateMutability": "view",
      "type": "function"
    },
    {
      "constant": true,
      "inputs": [],
      "name": "compRate",
      "outputs": [
        {
          "internalType": "uint256",
          "name": "",
          "type": "uint256"
        }
      ],
      "payable": false,
      "stateMutability": "view",
      "type": "function"
    },
    {
      "constant": true,
      "inputs": [
        {
          "internalType": "address",
          "name": "",
          "type": "address"
        }
      ],
      "name": "compSpeeds",
      "outputs": [
        {
          "internalType": "uint256",
          "name": "",
          "type": "uint256"
        }
      ],
      "payable": false,
      "stateMutability": "view",
      "type": "function"
    },
    {
      "constant": true,
      "inputs": [
        {
          "internalType": "address",
          "name": "",
          "type": "address"
        },
        {
          "internalType": "address",
          "name": "",
          "type": "address"
        }
      ],
      "name": "compSupplierIndex",
      "outputs": [
        {
          "internalType": "uint256",
          "name": "",
          "type": "uint256"
        }
      ],
      "payable": false,
      "stateMutability": "view",
      "type": "function"
    },
    {
      "constant": true,
      "inputs": [
        {
          "internalType": "address",
          "name": "",
          "type": "address"
        }
      ],
      "name": "compSupplyState",
      "outputs": [
        {
          "internalType": "uint224",
          "name": "index",
          "type": "uint224"
        },
        {
          "internalType": "uint32",
          "name": "block",
          "type": "uint32"
        }
      ],
      "payable": false,
      "stateMutability": "view",
      "type": "function"
    },
    {
      "constant": true,
      "inputs": [],
      "name": "comptrollerImplementation",
      "outputs": [
        {
          "internalType": "address",
          "name": "",
          "type": "address"
        }
      ],
      "payable": false,
      "stateMutability": "view",
      "type": "function"
    },
    {
      "constant": false,
      "inputs": [
        {
          "internalType": "address[]",
          "name": "cTokens",
          "type": "address[]"
        }
      ],
      "name": "enterMarkets",
      "outputs": [
        {
          "internalType": "uint256[]",
          "name": "",
          "type": "uint256[]"
        }
      ],
      "payable": false,
      "stateMutability": "nonpayable",
      "type": "function"
    },
    {
      "constant": false,
      "inputs": [
        {
          "internalType": "address",
          "name": "cTokenAddress",
          "type": "address"
        }
      ],
      "name": "exitMarket",
      "outputs": [
        {
          "internalType": "uint256",
          "name": "",
          "type": "uint256"
        }
      ],
      "payable": false,
      "stateMutability": "nonpayable",
      "type": "function"
    },
    {
      "constant": true,
      "inputs": [
        {
          "internalType": "address",
          "name": "account",
          "type": "address"
        }
      ],
      "name": "getAccountLiquidity",
      "outputs": [
        {
          "internalType": "uint256",
          "name": "",
          "type": "uint256"
        },
        {
          "internalType": "uint256",
          "name": "",
          "type": "uint256"
        },
        {
          "internalType": "uint256",
          "name": "",
          "type": "uint256"
        }
      ],
      "payable": false,
      "stateMutability": "view",
      "type": "function"
    },
    {
      "constant": true,
      "inputs": [],
      "name": "getAllMarkets",
      "outputs": [
        {
          "internalType": "contract CToken[]",
          "name": "",
          "type": "address[]"
        }
      ],
      "payable": false,
      "stateMutability": "view",
      "type": "function"
    },
    {
      "constant": true,
      "inputs": [
        {
          "internalType": "address",
          "name": "account",
          "type": "address"
        }
      ],
      "name": "getAssetsIn",
      "outputs": [
        {
          "internalType": "contract CToken[]",
          "name": "",
          "type": "address[]"
        }
      ],
      "payable": false,
      "stateMutability": "view",
      "type": "function"
    },
    {
      "constant": true,
      "inputs": [],
      "name": "getBlockNumber",
      "outputs": [
        {
          "internalType": "uint256",
          "name": "",
          "type": "uint256"
        }
      ],
      "payable": false,
      "stateMutability": "view",
      "type": "function"
    },
    {
      "constant": true,
      "inputs": [],
      "name": "getCompAddress",
      "outputs": [
        {
          "internalType": "address",
          "name": "",
          "type": "address"
        }
      ],
      "payable": false,
      "stateMutability": "view",
      "type": "function"
    },
    {
      "constant": true,
      "inputs": [
        {
          "internalType": "address",
          "name": "account",
          "type": "address"
        },
        {
          "internalType": "address",
          "name": "cTokenModify",
          "type": "address"
        },
        {
          "internalType": "uint256",
          "name": "redeemTokens",
          "type": "uint256"
        },
        {
          "internalType": "uint256",
          "name": "borrowAmount",
          "type": "uint256"
        }
      ],
      "name": "getHypotheticalAccountLiquidity",
      "outputs": [
        {
          "internalType": "uint256",
          "name": "",
          "type": "uint256"
        },
        {
          "internalType": "uint256",
          "name": "",
          "type": "uint256"
        },
        {
          "internalType": "uint256",
          "name": "",
          "type": "uint256"
        }
      ],
      "payable": false,
      "stateMutability": "view",
      "type": "function"
    },
    {
      "constant": true,
      "inputs": [],
      "name": "isComptroller",
      "outputs": [
        {
          "internalType": "bool",
          "name": "",
          "type": "bool"
        }
      ],
      "payable": false,
      "stateMutability": "view",
      "type": "function"
    },
    {
      "constant": true,
      "inputs": [
        {
          "internalType": "address",
          "name": "",
          "type": "address"
        }
      ],
      "name": "lastContributorBlock",
      "outputs": [
        {
          "internalType": "uint256",
          "name": "",
          "type": "uint256"
        }
      ],
      "payable": false,
      "stateMutability": "view",
      "type": "function"
    },
    {
      "constant": false,
      "inputs": [
        {
          "internalType": "address",
          "name": "cTokenBorrowed",
          "type": "address"
        },
        {
          "internalType": "address",
          "name": "cTokenCollateral",
          "type": "address"
        },
        {
          "internalType": "address",
          "name": "liquidator",
          "type": "address"
        },
        {
          "internalType": "address",
          "name": "borrower",
          "type": "address"
        },
        {
          "internalType": "uint256",
          "name": "repayAmount",
          "type": "uint256"
        }
      ],
      "name": "liquidateBorrowAllowed",
      "outputs": [
        {
          "internalType": "uint256",
          "name": "",
          "type": "uint256"
        }
      ],
      "payable": false,
      "stateMutability": "nonpayable",
      "type": "function"
    },
    {
      "constant": false,
      "inputs": [
        {
          "internalType": "address",
          "name": "cTokenBorrowed",
          "type": "address"
        },
        {
          "internalType": "address",
          "name": "cTokenCollateral",
          "type": "address"
        },
        {
          "internalType": "address",
          "name": "liquidator",
          "type": "address"
        },
        {
          "internalType": "address",
          "name": "borrower",
          "type": "address"
        },
        {
          "internalType": "uint256",
          "name": "actualRepayAmount",
          "type": "uint256"
        },
        {
          "internalType": "uint256",
          "name": "seizeTokens",
          "type": "uint256"
        }
      ],
      "name": "liquidateBorrowVerify",
      "outputs": [],
      "payable": false,
      "stateMutability": "nonpayable",
      "type": "function"
    },
    {
      "constant": true,
      "inputs": [
        {
          "internalType": "address",
          "name": "cTokenBorrowed",
          "type": "address"
        },
        {
          "internalType": "address",
          "name": "cTokenCollateral",
          "type": "address"
        },
        {
          "internalType": "uint256",
          "name": "actualRepayAmount",
          "type": "uint256"
        }
      ],
      "name": "liquidateCalculateSeizeTokens",
      "outputs": [
        {
          "internalType": "uint256",
          "name": "",
          "type": "uint256"
        },
        {
          "internalType": "uint256",
          "name": "",
          "type": "uint256"
        }
      ],
      "payable": false,
      "stateMutability": "view",
      "type": "function"
    },
    {
      "constant": true,
      "inputs": [],
      "name": "liquidationIncentiveMantissa",
      "outputs": [
        {
          "internalType": "uint256",
          "name": "",
          "type": "uint256"
        }
      ],
      "payable": false,
      "stateMutability": "view",
      "type": "function"
    },
    {
      "constant": true,
      "inputs": [
        {
          "internalType": "address",
          "name": "",
          "type": "address"
        }
      ],
      "name": "markets",
      "outputs": [
        {
          "internalType": "bool",
          "name": "isListed",
          "type": "bool"
        },
        {
          "internalType": "uint256",
          "name": "collateralFactorMantissa",
          "type": "uint256"
        },
        {
          "internalType": "bool",
          "name": "isComped",
          "type": "bool"
        }
      ],
      "payable": false,
      "stateMutability": "view",
      "type": "function"
    },
    {
      "constant": true,
      "inputs": [],
      "name": "maxAssets",
      "outputs": [
        {
          "internalType": "uint256",
          "name": "",
          "type": "uint256"
        }
      ],
      "payable": false,
      "stateMutability": "view",
      "type": "function"
    },
    {
      "constant": false,
      "inputs": [
        {
          "internalType": "address",
          "name": "cToken",
          "type": "address"
        },
        {
          "internalType": "address",
          "name": "minter",
          "type": "address"
        },
        {
          "internalType": "uint256",
          "name": "mintAmount",
          "type": "uint256"
        }
      ],
      "name": "mintAllowed",
      "outputs": [
        {
          "internalType": "uint256",
          "name": "",
          "type": "uint256"
        }
      ],
      "payable": false,
      "stateMutability": "nonpayable",
      "type": "function"
    },
    {
      "constant": true,
      "inputs": [
        {
          "internalType": "address",
          "name": "",
          "type": "address"
        }
      ],
      "name": "mintGuardianPaused",
      "outputs": [
        {
          "internalType": "bool",
          "name": "",
          "type": "bool"
        }
      ],
      "payable": false,
      "stateMutability": "view",
      "type": "function"
    },
    {
      "constant": false,
      "inputs": [
        {
          "internalType": "address",
          "name": "cToken",
          "type": "address"
        },
        {
          "internalType": "address",
          "name": "minter",
          "type": "address"
        },
        {
          "internalType": "uint256",
          "name": "actualMintAmount",
          "type": "uint256"
        },
        {
          "internalType": "uint256",
          "name": "mintTokens",
          "type": "uint256"
        }
      ],
      "name": "mintVerify",
      "outputs": [],
      "payable": false,
      "stateMutability": "nonpayable",
      "type": "function"
    },
    {
      "constant": true,
      "inputs": [],
      "name": "oracle",
      "outputs": [
        {
          "internalType": "contract PriceOracle",
          "name": "",
          "type": "address"
        }
      ],
      "payable": false,
      "stateMutability": "view",
      "type": "function"
    },
    {
      "constant": true,
      "inputs": [],
      "name": "pauseGuardian",
      "outputs": [
        {
          "internalType": "address",
          "name": "",
          "type": "address"
        }
      ],
      "payable": false,
      "stateMutability": "view",
      "type": "function"
    },
    {
      "constant": true,
      "inputs": [],
      "name": "pendingAdmin",
      "outputs": [
        {
          "internalType": "address",
          "name": "",
          "type": "address"
        }
      ],
      "payable": false,
      "stateMutability": "view",
      "type": "function"
    },
    {
      "constant": true,
      "inputs": [],
      "name": "pendingComptrollerImplementation",
      "outputs": [
        {
          "internalType": "address",
          "name": "",
          "type": "address"
        }
      ],
      "payable": false,
      "stateMutability": "view",
      "type": "function"
    },
    {
      "constant": false,
      "inputs": [
        {
          "internalType": "address",
          "name": "cToken",
          "type": "address"
        },
        {
          "internalType": "address",
          "name": "redeemer",
          "type": "address"
        },
        {
          "internalType": "uint256",
          "name": "redeemTokens",
          "type": "uint256"
        }
      ],
      "name": "redeemAllowed",
      "outputs": [
        {
          "internalType": "uint256",
          "name": "",
          "type": "uint256"
        }
      ],
      "payable": false,
      "stateMutability": "nonpayable",
      "type": "function"
    },
    {
      "constant": false,
      "inputs": [
        {
          "internalType": "address",
          "name": "cToken",
          "type": "address"
        },
        {
          "internalType": "address",
          "name": "redeemer",
          "type": "address"
        },
        {
          "internalType": "uint256",
          "name": "redeemAmount",
          "type": "uint256"
        },
        {
          "internalType": "uint256",
          "name": "redeemTokens",
          "type": "uint256"
        }
      ],
      "name": "redeemVerify",
      "outputs": [],
      "payable": false,
      "stateMutability": "nonpayable",
      "type": "function"
    },
    {
      "constant": false,
      "inputs": [],
      "name": "refreshCompSpeeds",
      "outputs": [],
      "payable": false,
      "stateMutability": "nonpayable",
      "type": "function"
    },
    {
      "constant": false,
      "inputs": [
        {
          "internalType": "address",
          "name": "cToken",
          "type": "address"
        },
        {
          "internalType": "address",
          "name": "payer",
          "type": "address"
        },
        {
          "internalType": "address",
          "name": "borrower",
          "type": "address"
        },
        {
          "internalType": "uint256",
          "name": "repayAmount",
          "type": "uint256"
        }
      ],
      "name": "repayBorrowAllowed",
      "outputs": [
        {
          "internalType": "uint256",
          "name": "",
          "type": "uint256"
        }
      ],
      "payable": false,
      "stateMutability": "nonpayable",
      "type": "function"
    },
    {
      "constant": false,
      "inputs": [
        {
          "internalType": "address",
          "name": "cToken",
          "type": "address"
        },
        {
          "internalType": "address",
          "name": "payer",
          "type": "address"
        },
        {
          "internalType": "address",
          "name": "borrower",
          "type": "address"
        },
        {
          "internalType": "uint256",
          "name": "actualRepayAmount",
          "type": "uint256"
        },
        {
          "internalType": "uint256",
          "name": "borrowerIndex",
          "type": "uint256"
        }
      ],
      "name": "repayBorrowVerify",
      "outputs": [],
      "payable": false,
      "stateMutability": "nonpayable",
      "type": "function"
    },
    {
      "constant": false,
      "inputs": [
        {
          "internalType": "address",
          "name": "cTokenCollateral",
          "type": "address"
        },
        {
          "internalType": "address",
          "name": "cTokenBorrowed",
          "type": "address"
        },
        {
          "internalType": "address",
          "name": "liquidator",
          "type": "address"
        },
        {
          "internalType": "address",
          "name": "borrower",
          "type": "address"
        },
        {
          "internalType": "uint256",
          "name": "seizeTokens",
          "type": "uint256"
        }
      ],
      "name": "seizeAllowed",
      "outputs": [
        {
          "internalType": "uint256",
          "name": "",
          "type": "uint256"
        }
      ],
      "payable": false,
      "stateMutability": "nonpayable",
      "type": "function"
    },
    {
      "constant": true,
      "inputs": [],
      "name": "seizeGuardianPaused",
      "outputs": [
        {
          "internalType": "bool",
          "name": "",
          "type": "bool"
        }
      ],
      "payable": false,
      "stateMutability": "view",
      "type": "function"
    },
    {
      "constant": false,
      "inputs": [
        {
          "internalType": "address",
          "name": "cTokenCollateral",
          "type": "address"
        },
        {
          "internalType": "address",
          "name": "cTokenBorrowed",
          "type": "address"
        },
        {
          "internalType": "address",
          "name": "liquidator",
          "type": "address"
        },
        {
          "internalType": "address",
          "name": "borrower",
          "type": "address"
        },
        {
          "internalType": "uint256",
          "name": "seizeTokens",
          "type": "uint256"
        }
      ],
      "name": "seizeVerify",
      "outputs": [],
      "payable": false,
      "stateMutability": "nonpayable",
      "type": "function"
    },
    {
      "constant": false,
      "inputs": [
        {
          "internalType": "address",
          "name": "cToken",
          "type": "address"
        },
        {
          "internalType": "address",
          "name": "src",
          "type": "address"
        },
        {
          "internalType": "address",
          "name": "dst",
          "type": "address"
        },
        {
          "internalType": "uint256",
          "name": "transferTokens",
          "type": "uint256"
        }
      ],
      "name": "transferAllowed",
      "outputs": [
        {
          "internalType": "uint256",
          "name": "",
          "type": "uint256"
        }
      ],
      "payable": false,
      "stateMutability": "nonpayable",
      "type": "function"
    },
    {
      "constant": true,
      "inputs": [],
      "name": "transferGuardianPaused",
      "outputs": [
        {
          "internalType": "bool",
          "name": "",
          "type": "bool"
        }
      ],
      "payable": false,
      "stateMutability": "view",
      "type": "function"
    },
    {
      "constant": false,
      "inputs": [
        {
          "internalType": "address",
          "name": "cToken",
          "type": "address"
        },
        {
          "internalType": "address",
          "name": "src",
          "type": "address"
        },
        {
          "internalType": "address",
          "name": "dst",
          "type": "address"
        },
        {
          "internalType": "uint256",
          "name": "transferTokens",
          "type": "uint256"
        }
      ],
      "name": "transferVerify",
      "outputs": [],
      "payable": false,
      "stateMutability": "nonpayable",
      "type": "function"
    },
    {
      "constant": true,
      "inputs": [],
      "name": "tropAddress",
      "outputs": [
        {
          "internalType": "address",
          "name": "",
          "type": "address"
        }
      ],
      "payable": false,
      "stateMutability": "view",
      "type": "function"
    },
    {
      "constant": false,
      "inputs": [
        {
          "internalType": "address",
          "name": "contributor",
          "type": "address"
        }
      ],
      "name": "updateContributorRewards",
      "outputs": [],
      "payable": false,
      "stateMutability": "nonpayable",
      "type": "function"
    }
  ],
  "bytecode": "0x608060405234801561001057600080fd5b50600080546001600160a01b03191633179055615ac280620000336000396000f3fe608060405234801561001057600080fd5b506004361061047f5760003560e01c80636d35bf9111610257578063bb82aa5e11610146578063da3d454c116100c3578063e875544611610087578063e8755446146112f4578063e9af0292146112fc578063eabe7d9114611322578063ede4edd014611358578063f851a4401461137e5761047f565b8063da3d454c14611256578063dce154491461128c578063dcfbc0c7146112b8578063e4028eee146112c0578063e6653f3d146112ec5761047f565b8063ca0af0431161010a578063ca0af04314611113578063cc7ebdc414611141578063ce485c5e14611167578063d02f735114611208578063d9bbdf381461124e5761047f565b8063bb82aa5e14610fb9578063bdcdc25814610fc1578063bea6b8b814610ffd578063c299823814611023578063c488847b146110c45761047f565b806394b2294b116101d4578063aa90075411610198578063aa90075414610efd578063abfceffc14610f05578063ac0b0bb714610f7b578063b0772d0b14610f83578063b21be7fd14610f8b5761047f565b806394b2294b14610e7d578063986ab83814610e855780639d1b5a0a14610eab578063a76b3fda14610eb3578063a7f0e23114610ed95761047f565b806387f763031161021b57806387f7630314610dba5780638c57804e14610dc25780638e8f294b14610de85780638ebf636414610e30578063929fe9a114610e4f5761047f565b80636d35bf9114610d18578063731f0c2b14610d5e578063741b252514610d84578063747026c914610daa5780637dc0d1d014610db25761047f565b80634a584432116103735780635c778605116102f05780636810dfa6116102b45780636810dfa614610b1f5780636a49111214610c4b5780636a56947e14610c685780636b79c38d14610ca45780636d154ea514610cf25761047f565b80635c778605146109995780635ec88c79146109cf5780635f5af1aa146109f55780635fc7e71e14610a1b578063607ef6c114610a615761047f565b80634fd42e17116103375780634fd42e17146108d157806351dff989146108ee57806352d84d1e1461092a57806355ee1fe114610947578063598ee1cb1461096d5761047f565b80634a5844321461080b5780634ada90af146108315780634d8e5037146108395780634e79238f146108415780634ef4c3e11461089b5761047f565b806327efe3cb116104015780633bcf7ec1116103c55780633bcf7ec1146107455780633c94786f1461077357806341c728b91461077b57806342cbb15c146107b757806347ef3b3b146107bf5761047f565b806327efe3cb146106915780632d70db78146106bd578063317b0b77146106dc578063391957d7146106f95780633aa729b41461071f5761047f565b80631ededc91116104485780631ededc91146105df57806321af45691461062157806324008a621461064557806324a3d6221461068157806326782247146106895761047f565b80627e3dd21461048457806318c882a5146104a05780631c3db2e0146104ce5780631d504dc6146105815780631d7b33d7146105a7575b600080fd5b61048c611386565b604080519115158252519081900360200190f35b61048c600480360360408110156104b657600080fd5b506001600160a01b038135169060200135151561138b565b61057f600480360360408110156104e457600080fd5b6001600160a01b038235169190810190604081016020820135600160201b81111561050e57600080fd5b82018360208201111561052057600080fd5b803590602001918460208302840111600160201b8311171561054157600080fd5b919080806020026020016040519081016040528093929190818152602001838360200280828437600092019190915250929550611510945050505050565b005b61057f6004803603602081101561059757600080fd5b50356001600160a01b0316611572565b6105cd600480360360208110156105bd57600080fd5b50356001600160a01b03166116bb565b60408051918252519081900360200190f35b61057f600480360360a08110156105f557600080fd5b506001600160a01b038135811691602081013582169160408201351690606081013590608001356116cd565b6106296116d4565b604080516001600160a01b039092168252519081900360200190f35b6105cd6004803603608081101561065b57600080fd5b506001600160a01b038135811691602081013582169160408201351690606001356116e3565b6106296117ac565b6106296117bb565b61057f600480360360408110156106a757600080fd5b506001600160a01b0381351690602001356117ca565b61048c600480360360208110156106d357600080fd5b503515156118cd565b6105cd600480360360208110156106f257600080fd5b50356119f0565b61057f6004803603602081101561070f57600080fd5b50356001600160a01b0316611a9d565b61057f6004803603602081101561073557600080fd5b50356001600160a01b0316611b45565b61048c6004803603604081101561075b57600080fd5b506001600160a01b0381351690602001351515611c42565b61048c611dc2565b61057f6004803603608081101561079157600080fd5b506001600160a01b03813581169160208101359091169060408101359060600135611dd2565b6105cd611dd8565b61057f600480360360c08110156107d557600080fd5b506001600160a01b0381358116916020810135821691604082013581169160608101359091169060808101359060a00135611ddd565b6105cd6004803603602081101561082157600080fd5b50356001600160a01b0316611de5565b6105cd611df7565b61057f611dfd565b61087d6004803603608081101561085757600080fd5b506001600160a01b03813581169160208101359091169060408101359060600135611e41565b60408051938452602084019290925282820152519081900360600190f35b6105cd600480360360608110156108b157600080fd5b506001600160a01b03813581169160208101359091169060400135611e7b565b6105cd600480360360208110156108e757600080fd5b5035611f17565b61057f6004803603608081101561090457600080fd5b506001600160a01b03813581169160208101359091169060408101359060600135611f87565b6106296004803603602081101561094057600080fd5b5035611fcc565b6105cd6004803603602081101561095d57600080fd5b50356001600160a01b0316611ff3565b61057f6004803603604081101561098357600080fd5b506001600160a01b038135169060200135612078565b61057f600480360360608110156109af57600080fd5b506001600160a01b03813581169160208101359091169060400135612163565b61087d600480360360208110156109e557600080fd5b50356001600160a01b0316612168565b6105cd60048036036020811015610a0b57600080fd5b50356001600160a01b031661219d565b6105cd600480360360a0811015610a3157600080fd5b506001600160a01b0381358116916020810135821691604082013581169160608101359091169060800135612221565b61057f60048036036040811015610a7757600080fd5b810190602081018135600160201b811115610a9157600080fd5b820183602082011115610aa357600080fd5b803590602001918460208302840111600160201b83111715610ac457600080fd5b919390929091602081019035600160201b811115610ae157600080fd5b820183602082011115610af357600080fd5b803590602001918460208302840111600160201b83111715610b1457600080fd5b509092509050612386565b61057f60048036036080811015610b3557600080fd5b810190602081018135600160201b811115610b4f57600080fd5b820183602082011115610b6157600080fd5b803590602001918460208302840111600160201b83111715610b8257600080fd5b9190808060200260200160405190810160405280939291908181526020018383602002808284376000920191909152509295949360208101935035915050600160201b811115610bd157600080fd5b820183602082011115610be357600080fd5b803590602001918460208302840111600160201b83111715610c0457600080fd5b919080806020026020016040519081016040528093929190818152602001838360200280828437600092019190915250929550505050803515159150602001351515612508565b61057f60048036036020811015610c6157600080fd5b50356126b1565b61057f60048036036080811015610c7e57600080fd5b506001600160a01b03813581169160208101358216916040820135169060600135611dd2565b610cca60048036036020811015610cba57600080fd5b50356001600160a01b031661273b565b604080516001600160e01b03909316835263ffffffff90911660208301528051918290030190f35b61048c60048036036020811015610d0857600080fd5b50356001600160a01b0316612765565b61057f600480360360a0811015610d2e57600080fd5b506001600160a01b03813581169160208101358216916040820135811691606081013590911690608001356116cd565b61048c60048036036020811015610d7457600080fd5b50356001600160a01b031661277a565b61057f60048036036020811015610d9a57600080fd5b50356001600160a01b031661278f565b6105cd612852565b61062961285d565b61048c61286c565b610cca60048036036020811015610dd857600080fd5b50356001600160a01b031661287c565b610e0e60048036036020811015610dfe57600080fd5b50356001600160a01b03166128a6565b6040805193151584526020840192909252151582820152519081900360600190f35b61048c60048036036020811015610e4657600080fd5b503515156128cc565b61048c60048036036040811015610e6557600080fd5b506001600160a01b03813581169160200135166129ee565b6105cd612a21565b6105cd60048036036020811015610e9b57600080fd5b50356001600160a01b0316612a27565b610629612a39565b6105cd60048036036020811015610ec957600080fd5b50356001600160a01b0316612a51565b610ee1612bae565b604080516001600160e01b039092168252519081900360200190f35b6105cd612bc1565b610f2b60048036036020811015610f1b57600080fd5b50356001600160a01b0316612bc7565b60408051602080825283518183015283519192839290830191858101910280838360005b83811015610f67578181015183820152602001610f4f565b505050509050019250505060405180910390f35b61048c612c50565b610f2b612c60565b6105cd60048036036040811015610fa157600080fd5b506001600160a01b0381358116916020013516612cc2565b610629612cdf565b6105cd60048036036080811015610fd757600080fd5b506001600160a01b03813581169160208101358216916040820135169060600135612cee565b6105cd6004803603602081101561101357600080fd5b50356001600160a01b0316612d72565b610f2b6004803603602081101561103957600080fd5b810190602081018135600160201b81111561105357600080fd5b82018360208201111561106557600080fd5b803590602001918460208302840111600160201b8311171561108657600080fd5b919080806020026020016040519081016040528093929190818152602001838360200280828437600092019190915250929550612d84945050505050565b6110fa600480360360608110156110da57600080fd5b506001600160a01b03813581169160208101359091169060400135612e1b565b6040805192835260208301919091528051918290030190f35b6105cd6004803603604081101561112957600080fd5b506001600160a01b0381358116916020013516613043565b6105cd6004803603602081101561115757600080fd5b50356001600160a01b0316613060565b61057f6004803603602081101561117d57600080fd5b810190602081018135600160201b81111561119757600080fd5b8201836020820111156111a957600080fd5b803590602001918460208302840111600160201b831117156111ca57600080fd5b919080806020026020016040519081016040528093929190818152602001838360200280828437600092019190915250929550613072945050505050565b6105cd600480360360a081101561121e57600080fd5b506001600160a01b03813581169160208101358216916040820135811691606081013590911690608001356130ea565b610629613295565b6105cd6004803603606081101561126c57600080fd5b506001600160a01b038135811691602081013590911690604001356132a4565b610629600480360360408110156112a257600080fd5b506001600160a01b038135169060200135613644565b610629613679565b6105cd600480360360408110156112d657600080fd5b506001600160a01b038135169060200135613688565b61048c613838565b6105cd613848565b61057f6004803603602081101561131257600080fd5b50356001600160a01b031661384e565b6105cd6004803603606081101561133857600080fd5b506001600160a01b038135811691602081013590911690604001356138b2565b6105cd6004803603602081101561136e57600080fd5b50356001600160a01b03166138ef565b610629613bfd565b600181565b6001600160a01b03821660009081526009602052604081205460ff166113de576040805162461bcd60e51b815260206004820152600360248201526210cc4d60ea1b604482015290519081900360640190fd5b600a546001600160a01b031633148061140157506000546001600160a01b031633145b611438576040805162461bcd60e51b815260206004820152600360248201526243313560e81b604482015290519081900360640190fd5b6000546001600160a01b031633148061145357506001821515145b61148a576040805162461bcd60e51b815260206004820152600360248201526221989b60e91b604482015290519081900360640190fd5b6001600160a01b0383166000818152600c6020908152604091829020805486151560ff199091168117909155825193845283830152606090830181905260069083015265426f72726f7760d01b6080830152517f71aec636243f9709bb0007ae15e9afb8150ab01716d75fd7573be5cc096e03b09181900360a00190a150805b92915050565b60408051600180825281830190925260609160208083019080388339019050509050828160008151811061154057fe5b60200260200101906001600160a01b031690816001600160a01b03168152505061156d8183600180612508565b505050565b806001600160a01b031663f851a4406040518163ffffffff1660e01b815260040160206040518083038186803b1580156115ab57600080fd5b505afa1580156115bf573d6000803e3d6000fd5b505050506040513d60208110156115d557600080fd5b50516001600160a01b03163314611619576040805162461bcd60e51b815260206004820152600360248201526243313760e81b604482015290519081900360640190fd5b806001600160a01b031663c1e803346040518163ffffffff1660e01b8152600401602060405180830381600087803b15801561165457600080fd5b505af1158015611668573d6000803e3d6000fd5b505050506040513d602081101561167e57600080fd5b5051156116b8576040805162461bcd60e51b815260206004820152600360248201526208662760eb1b604482015290519081900360640190fd5b50565b600f6020526000908152604090205481565b5050505050565b6015546001600160a01b031681565b6001600160a01b03841660009081526009602052604081205460ff1661170b575060096117a4565b6117136159ce565b6040518060200160405280876001600160a01b031663aa5af0fd6040518163ffffffff1660e01b815260040160206040518083038186803b15801561175757600080fd5b505afa15801561176b573d6000803e3d6000fd5b505050506040513d602081101561178157600080fd5b5051905290506117918682613c0c565b61179e8685836000613e6a565b60009150505b949350505050565b600a546001600160a01b031681565b6001546001600160a01b031681565b6117d2614054565b611823576040805162461bcd60e51b815260206004820152601960248201527f6f6e6c792061646d696e2063616e206772616e7420636f6d7000000000000000604482015290519081900360640190fd5b600061182f838361407d565b90508015611884576040805162461bcd60e51b815260206004820152601b60248201527f696e73756666696369656e7420636f6d7020666f72206772616e740000000000604482015290519081900360640190fd5b604080516001600160a01b03851681526020810184905281517f98b2f82a3a07f223a0be64b3d0f47711c64dccd1feafb94aa28156b38cd9695c929181900390910190a1505050565b600a546000906001600160a01b03163314806118f357506000546001600160a01b031633145b61192a576040805162461bcd60e51b815260206004820152600360248201526243313560e81b604482015290519081900360640190fd5b6000546001600160a01b031633148061194557506001821515145b61197c576040805162461bcd60e51b815260206004820152600360248201526221989b60e91b604482015290519081900360640190fd5b600a8054831515600160b81b810260ff60b81b1990921691909117909155604080516020810192909252808252600582820152645365697a6560d81b6060830152517fef159d9a32b2472e32b098f954f3ce62d232939f1c207070b584df1814de2de09181900360800190a150805b919050565b600080546001600160a01b03163314611a50576040805162461bcd60e51b815260206004820152601f60248201527f6f6e6c792061646d696e2063616e2073657420636c6f736520666163746f7200604482015290519081900360640190fd5b6005805490839055604080518281526020810185905281517f3b9670cf975d26958e754b57098eaa2ac914d8d2a31b83257997b9f346110fd9929181900390910190a160005b9392505050565b6000546001600160a01b03163314611ae2576040805162461bcd60e51b815260206004820152600360248201526243313360e81b604482015290519081900360640190fd5b601580546001600160a01b038381166001600160a01b0319831681179093556040805191909216808252602082019390935281517feda98690e518e9a05f8ec6837663e188211b2da8f4906648b323f2c1d4434e29929181900390910190a15050565b6000546001600160a01b03163314611b8a576040805162461bcd60e51b815260206004820152600360248201526210cc8d60ea1b604482015290519081900360640190fd5b6001600160a01b0381166000908152600960205260409020600381015460ff161515600114611be6576040805162461bcd60e51b815260206004820152600360248201526243323560e81b604482015290519081900360640190fd5b60038101805460ff19169055604080516001600160a01b03841681526000602082015281517f93c1f3e36ed71139f466a4ce8c9751790e2e33f5afb2df0dcfb3aeabe55d5aa2929181900390910190a1611c3e6141aa565b5050565b6001600160a01b03821660009081526009602052604081205460ff16611c95576040805162461bcd60e51b815260206004820152600360248201526210cc4d60ea1b604482015290519081900360640190fd5b600a546001600160a01b0316331480611cb857506000546001600160a01b031633145b611cef576040805162461bcd60e51b815260206004820152600360248201526243313560e81b604482015290519081900360640190fd5b6000546001600160a01b0316331480611d0a57506001821515145b611d41576040805162461bcd60e51b815260206004820152600360248201526221989b60e91b604482015290519081900360640190fd5b6001600160a01b0383166000818152600b6020908152604091829020805486151560ff199091168117909155825193845283830152606090830181905260049083015263135a5b9d60e21b6080830152517f71aec636243f9709bb0007ae15e9afb8150ab01716d75fd7573be5cc096e03b09181900360a00190a150919050565b600a54600160a01b900460ff1681565b50505050565b435b90565b505050505050565b60166020526000908152604090205481565b60065481565b333214611e37576040805162461bcd60e51b815260206004820152600360248201526243313960e81b604482015290519081900360640190fd5b611e3f6141aa565b565b600080600080600080611e568a8a8a8a61456f565b925092509250826011811115611e6857fe5b95509093509150505b9450945094915050565b6001600160a01b0383166000908152600b602052604081205460ff1615611ece576040805162461bcd60e51b8152602060048201526002602482015261219960f11b604482015290519081900360640190fd5b6001600160a01b03841660009081526009602052604090205460ff16611ef85760095b9050611a96565b611f01846148a7565b611f0d84846000614afb565b6000949350505050565b600080546001600160a01b03163314611f3d57611f366001600b614cf3565b90506119eb565b6006805490839055604080518281526020810185905281517faeba5a6c40a8ac138134bff1aaa65debf25971188a58804bad717f82f0ec1316929181900390910190a16000611a96565b80158015611f955750600082115b15611dd2576040805162461bcd60e51b8152602060048201526002602482015261433360f01b604482015290519081900360640190fd5b600d8181548110611fd957fe5b6000918252602090912001546001600160a01b0316905081565b600080546001600160a01b0316331461201257611f3660016010614cf3565b600480546001600160a01b038481166001600160a01b0319831681179093556040805191909216808252602082019390935281517fd52b2b9b7e9ee655fcb95d2e5b9e0c9f69e7ef2b8e9d2d0ea78402d576d22e22929181900390910190a16000611a96565b612080614054565b6120d1576040805162461bcd60e51b815260206004820152601d60248201527f6f6e6c792061646d696e2063616e2073657420636f6d70207370656564000000604482015290519081900360640190fd5b6120da8261278f565b806120f9576001600160a01b0382166000908152601960205260408120555b612101611dd8565b6001600160a01b03831660008181526019602090815260408083209490945560188152908390208490558251848152925191927f386537fa92edc3319af95f1f904dcf1900021e4f3f4e08169a577a09076e66b3929081900390910190a25050565b61156d565b60008060008060008061217f87600080600061456f565b92509250925082601181111561219157fe5b97919650945092505050565b600080546001600160a01b031633146121bc57611f3660016013614cf3565b600a80546001600160a01b038481166001600160a01b0319831617928390556040805192821680845293909116602083015280517f0613b6ee6a04f0d09f390e4d9318894b9f6ac7fd83897cd8d18896ba579c401e9281900390910190a16000611a96565b6001600160a01b03851660009081526009602052604081205460ff16158061226257506001600160a01b03851660009081526009602052604090205460ff16155b156122715760095b905061237d565b60008061227d85614d59565b9193509091506000905082601181111561229357fe5b146122ad578160118111156122a457fe5b9250505061237d565b806122b95760036122a4565b6000886001600160a01b03166395dd9193876040518263ffffffff1660e01b815260040180826001600160a01b03166001600160a01b0316815260200191505060206040518083038186803b15801561231157600080fd5b505afa158015612325573d6000803e3d6000fd5b505050506040513d602081101561233b57600080fd5b50516040805160208101909152600554815290915060009061235d9083614d79565b90508086111561237457601194505050505061237d565b60009450505050505b95945050505050565b6000546001600160a01b03163314806123a957506015546001600160a01b031633145b6123e0576040805162461bcd60e51b815260206004820152600360248201526243313160e81b604482015290519081900360640190fd5b828181158015906123f057508082145b612427576040805162461bcd60e51b815260206004820152600360248201526221989960e91b604482015290519081900360640190fd5b60005b828110156124ff5784848281811061243e57fe5b905060200201356016600089898581811061245557fe5b905060200201356001600160a01b03166001600160a01b03166001600160a01b031681526020019081526020016000208190555086868281811061249557fe5b905060200201356001600160a01b03166001600160a01b03167f6f1951b2aad10f3fc81b86d91105b413a5b3f847a34bbc5ce1904201b14438f68686848181106124db57fe5b905060200201356040518082815260200191505060405180910390a260010161242a565b50505050505050565b60005b83518110156116cd57600084828151811061252257fe5b6020908102919091018101516001600160a01b0381166000908152600990925260409091205490915060ff16612597576040805162461bcd60e51b81526020600482015260156024820152741b585c9ad95d081b5d5cdd081899481b1a5cdd1959605a1b604482015290519081900360640190fd5b6001841515141561265f576125aa6159ce565b6040518060200160405280836001600160a01b031663aa5af0fd6040518163ffffffff1660e01b815260040160206040518083038186803b1580156125ee57600080fd5b505afa158015612602573d6000803e3d6000fd5b505050506040513d602081101561261857600080fd5b5051905290506126288282613c0c565b60005b875181101561265c576126548389838151811061264457fe5b6020026020010151846001613e6a565b60010161262b565b50505b600183151514156126a857612673816148a7565b60005b86518110156126a65761269e8288838151811061268f57fe5b60200260200101516001614afb565b600101612676565b505b5060010161250b565b6126b9614054565b6126f0576040805162461bcd60e51b815260206004820152600360248201526221991960e91b604482015290519081900360640190fd5b600e805490829055604080518281526020810184905281517fc227c9272633c3a307d9845bf2bc2509cefb20d655b5f3c1002d8e1e3f22c8b0929181900390910190a1611c3e6141aa565b6010602052600090815260409020546001600160e01b03811690600160e01b900463ffffffff1682565b600c6020526000908152604090205460ff1681565b600b6020526000908152604090205460ff1681565b6001600160a01b038116600090815260186020526040812054906127b1611dd8565b6001600160a01b038416600090815260196020526040812054919250906127d9908390614d98565b90506000811180156127eb5750600083115b15611dd25760006127fc8285614dd2565b6001600160a01b038616600090815260146020526040812054919250906128239083614e14565b6001600160a01b0387166000908152601460209081526040808320939093556019905220849055505050505050565b66038d7ea4c6800081565b6004546001600160a01b031681565b600a54600160b01b900460ff1681565b6011602052600090815260409020546001600160e01b03811690600160e01b900463ffffffff1682565b60096020526000908152604090208054600182015460039092015460ff91821692911683565b600a546000906001600160a01b03163314806128f257506000546001600160a01b031633145b612929576040805162461bcd60e51b815260206004820152600360248201526243313560e81b604482015290519081900360640190fd5b6000546001600160a01b031633148061294457506001821515145b61297b576040805162461bcd60e51b815260206004820152600360248201526221989b60e91b604482015290519081900360640190fd5b600a8054831515600160b01b810260ff60b01b1990921691909117909155604080516020810192909252808252600882820152672a3930b739b332b960c11b6060830152517fef159d9a32b2472e32b098f954f3ce62d232939f1c207070b584df1814de2de09181900360800190a15090565b6001600160a01b038082166000908152600960209081526040808320938616835260029093019052205460ff1692915050565b60075481565b60186020526000908152604090205481565b73c00e94cb662c3520282e6f5717214004a7f2688890565b600080546001600160a01b03163314612a7057611f3660016012614cf3565b6001600160a01b03821660009081526009602052604090205460ff1615612a9d57611f36600a6011614cf3565b816001600160a01b031663fe9c44ae6040518163ffffffff1660e01b815260040160206040518083038186803b158015612ad657600080fd5b505afa158015612aea573d6000803e3d6000fd5b505050506040513d6020811015612b0057600080fd5b5050604080516060810182526001808252600060208381018281528486018381526001600160a01b03891684526009909252949091209251835490151560ff19918216178455935191830191909155516003909101805491151591909216179055612b6a82614e4a565b604080516001600160a01b038416815290517fcf583bb0c569eb967f806b11601c4cb93c10310485c67add5f8362c2f212321f9181900360200190a1600092915050565b6ec097ce7bc90715b34b9f100000000081565b600e5481565b60608060086000846001600160a01b03166001600160a01b03168152602001908152602001600020805480602002602001604051908101604052809291908181526020018280548015612c4357602002820191906000526020600020905b81546001600160a01b03168152600190910190602001808311612c25575b5093979650505050505050565b600a54600160b81b900460ff1681565b6060600d805480602002602001604051908101604052809291908181526020018280548015612cb857602002820191906000526020600020905b81546001600160a01b03168152600190910190602001808311612c9a575b5050505050905090565b601260209081526000928352604080842090915290825290205481565b6002546001600160a01b031681565b600a54600090600160b01b900460ff1615612d35576040805162461bcd60e51b8152602060048201526002602482015261433960f01b604482015290519081900360640190fd5b6000612d42868685614f17565b90508015612d515790506117a4565b612d5a866148a7565b612d6686866000614afb565b61179e86856000614afb565b60196020526000908152604090205481565b6060600082519050606081604051908082528060200260200182016040528015612db8578160200160208202803883390190505b50905060005b82811015612e13576000858281518110612dd457fe5b60200260200101519050612de88133614fc3565b6011811115612df357fe5b838381518110612dff57fe5b602090810291909101015250600101612dbe565b509392505050565b600480546040805163fc57d4df60e01b81526001600160a01b038781169482019490945290516000938493849391169163fc57d4df91602480820192602092909190829003018186803b158015612e7157600080fd5b505afa158015612e85573d6000803e3d6000fd5b505050506040513d6020811015612e9b57600080fd5b5051600480546040805163fc57d4df60e01b81526001600160a01b038a8116948201949094529051939450600093929091169163fc57d4df91602480820192602092909190829003018186803b158015612ef457600080fd5b505afa158015612f08573d6000803e3d6000fd5b505050506040513d6020811015612f1e57600080fd5b50519050811580612f2d575080155b15612f4257600d93506000925061303b915050565b6000866001600160a01b031663182df0f56040518163ffffffff1660e01b815260040160206040518083038186803b158015612f7d57600080fd5b505afa158015612f91573d6000803e3d6000fd5b505050506040513d6020811015612fa757600080fd5b505190506000612fb56159ce565b612fbd6159ce565b612fc56159ce565b612fed604051806020016040528060065481525060405180602001604052808a8152506150b9565b92506130156040518060200160405280888152506040518060200160405280888152506150b9565b915061302183836150f8565b905061302d818b614d79565b600099509750505050505050505b935093915050565b601360209081526000928352604080842090915290825290205481565b60146020526000908152604090205481565b61307a614054565b6130b1576040805162461bcd60e51b815260206004820152600360248201526243323360e81b604482015290519081900360640190fd5b60005b81518110156130e1576130d98282815181106130cc57fe5b6020026020010151615134565b6001016130b4565b506116b86141aa565b600a54600090600160b81b900460ff1615613131576040805162461bcd60e51b8152602060048201526002602482015261086760f31b604482015290519081900360640190fd5b6001600160a01b03861660009081526009602052604090205460ff16158061317257506001600160a01b03851660009081526009602052604090205460ff16155b1561317e57600961226a565b846001600160a01b0316635fe3b5676040518163ffffffff1660e01b815260040160206040518083038186803b1580156131b757600080fd5b505afa1580156131cb573d6000803e3d6000fd5b505050506040513d60208110156131e157600080fd5b505160408051635fe3b56760e01b815290516001600160a01b0392831692891691635fe3b567916004808301926020929190829003018186803b15801561322757600080fd5b505afa15801561323b573d6000803e3d6000fd5b505050506040513d602081101561325157600080fd5b50516001600160a01b03161461326857600261226a565b613271866148a7565b61327d86846000614afb565b61328986856000614afb565b60009695505050505050565b6017546001600160a01b031681565b6001600160a01b0383166000908152600c602052604081205460ff16156132f7576040805162461bcd60e51b815260206004820152600260248201526110cd60f21b604482015290519081900360640190fd5b6001600160a01b03841660009081526009602052604090205460ff1661331e576009611ef1565b6001600160a01b038085166000908152600960209081526040808320938716835260029093019052205460ff166133fb57336001600160a01b03851614613391576040805162461bcd60e51b8152602060048201526002602482015261433560f01b604482015290519081900360640190fd5b600061339d3385614fc3565b905060008160118111156133ad57fe5b146133c6578060118111156133be57fe5b915050611a96565b6001600160a01b038086166000908152600960209081526040808320938816835260029093019052205460ff166133f957fe5b505b600480546040805163fc57d4df60e01b81526001600160a01b03888116948201949094529051929091169163fc57d4df91602480820192602092909190829003018186803b15801561344c57600080fd5b505afa158015613460573d6000803e3d6000fd5b505050506040513d602081101561347657600080fd5b505161348357600d611ef1565b6001600160a01b0384166000908152601660205260409020548015613555576000856001600160a01b03166347bd37186040518163ffffffff1660e01b815260040160206040518083038186803b1580156134dd57600080fd5b505afa1580156134f1573d6000803e3d6000fd5b505050506040513d602081101561350757600080fd5b5051905060006135178286614e14565b9050828110613552576040805162461bcd60e51b8152602060048201526002602482015261433760f01b604482015290519081900360640190fd5b50505b600080613565868860008861456f565b9193509091506000905082601181111561357b57fe5b146135965781601181111561358c57fe5b9350505050611a96565b80156135a357600461358c565b6135ab6159ce565b6040518060200160405280896001600160a01b031663aa5af0fd6040518163ffffffff1660e01b815260040160206040518083038186803b1580156135ef57600080fd5b505afa158015613603573d6000803e3d6000fd5b505050506040513d602081101561361957600080fd5b5051905290506136298882613c0c565b6136368888836000613e6a565b600098975050505050505050565b6008602052816000526040600020818154811061365d57fe5b6000918252602090912001546001600160a01b03169150829050565b6003546001600160a01b031681565b600080546001600160a01b031633146136ae576136a760016006614cf3565b905061150a565b6001600160a01b0383166000908152600960205260409020805460ff166136e3576136db60096007614cf3565b91505061150a565b6136eb6159ce565b5060408051602081019091528381526137026159ce565b506040805160208101909152670c7d713b49da000081526137238183615432565b1561373e5761373460066008614cf3565b935050505061150a565b84158015906137c75750600480546040805163fc57d4df60e01b81526001600160a01b038a8116948201949094529051929091169163fc57d4df91602480820192602092909190829003018186803b15801561379957600080fd5b505afa1580156137ad573d6000803e3d6000fd5b505050506040513d60208110156137c357600080fd5b5051155b156137d857613734600d6009614cf3565b60018301805490869055604080516001600160a01b03891681526020810183905280820188905290517f70483e6592cd5182d45ac970e05bc62cdcc90e9d8ef2c2dbe686cf383bcd7fc59181900360600190a16000979650505050505050565b600a54600160a81b900460ff1681565b60055481565b6116b881600d8054806020026020016040519081016040528092919081815260200182805480156138a857602002820191906000526020600020905b81546001600160a01b0316815260019091019060200180831161388a575b5050505050611510565b6000806138c0858585614f17565b905080156138cf579050611a96565b6138d8856148a7565b6138e485856000614afb565b600095945050505050565b6000808290506000806000836001600160a01b031663c37f68e2336040518263ffffffff1660e01b815260040180826001600160a01b03166001600160a01b0316815260200191505060806040518083038186803b15801561395057600080fd5b505afa158015613964573d6000803e3d6000fd5b505050506040513d608081101561397a57600080fd5b5080516020820151604090920151909450909250905082156139c8576040805162461bcd60e51b8152602060048201526002602482015261433160f01b604482015290519081900360640190fd5b80156139e5576139da600c6002614cf3565b9450505050506119eb565b60006139f2873385614f17565b90508015613a1357613a07600e600383615439565b955050505050506119eb565b6001600160a01b0385166000908152600960209081526040808320338452600281019092529091205460ff16613a5257600096505050505050506119eb565b3360009081526002820160209081526040808320805460ff191690556008825291829020805483518184028101840190945280845260609392830182828015613ac457602002820191906000526020600020905b81546001600160a01b03168152600190910190602001808311613aa6575b5050835193945083925060009150505b82811015613b1957896001600160a01b0316848281518110613af257fe5b60200260200101516001600160a01b03161415613b1157809150613b19565b600101613ad4565b50818110613b2357fe5b336000908152600860205260409020805481906000198101908110613b4457fe5b9060005260206000200160009054906101000a90046001600160a01b0316818381548110613b6e57fe5b600091825260209091200180546001600160a01b0319166001600160a01b03929092169190911790558054613ba78260001983016159e1565b50604080516001600160a01b038c16815233602082015281517fe699a64c18b07ac5b7301aa273f36a2287239eb9501d81950672794afba29a0d929181900390910190a160009c9b505050505050505050505050565b6000546001600160a01b031681565b6001600160a01b0382166000908152601160209081526040808320600f9092528220549091613c39611dd8565b8354909150600090613c59908390600160e01b900463ffffffff16614d98565b9050600081118015613c6b5750600083115b15613e18576000613ce0876001600160a01b03166347bd37186040518163ffffffff1660e01b815260040160206040518083038186803b158015613cae57600080fd5b505afa158015613cc2573d6000803e3d6000fd5b505050506040513d6020811015613cd857600080fd5b50518761549f565b90506000613cee8386614dd2565b9050613cf86159ce565b60008311613d155760405180602001604052806000815250613d1f565b613d1f82846154bd565b9050613d296159ce565b604080516020810190915288546001600160e01b03168152613d4b90836154f2565b90506040518060400160405280613d8183600001516040518060400160405280600381526020016204332360ec1b815250615517565b6001600160e01b03168152602001613db4886040518060400160405280600381526020016243323160e81b8152506155b1565b63ffffffff9081169091526001600160a01b038c166000908152601160209081526040909120835181549490920151909216600160e01b026001600160e01b039182166001600160e01b0319909416939093171691909117905550611ddd92505050565b8015611ddd57613e43826040518060400160405280600381526020016243323160e81b8152506155b1565b845463ffffffff91909116600160e01b026001600160e01b03909116178455505050505050565b6001600160a01b0384166000908152601160205260409020613e8a6159ce565b50604080516020810190915281546001600160e01b03168152613eab6159ce565b5060408051602080820183526001600160a01b03808a16600090815260138352848120918a16808252828452948120805485528651959091529152919091558051156124ff57613ef96159ce565b613f038383615606565b90506000613f92896001600160a01b03166395dd91938a6040518263ffffffff1660e01b815260040180826001600160a01b03166001600160a01b0316815260200191505060206040518083038186803b158015613f6057600080fd5b505afa158015613f74573d6000803e3d6000fd5b505050506040513d6020811015613f8a57600080fd5b50518861549f565b90506000613fa0828461562b565b6001600160a01b038a1660009081526014602052604081205491925090613fc79083614e14565b9050613fe88a828a613fe05766038d7ea4c68000613fe3565b60005b61565a565b6001600160a01b03808c1660008181526014602090815260409182902094909455895181518781529485015280519193928f16927f1fc3ecc087d8d2d15e23d0032af5a47059c3892d003d8e139fdcb6bb327c99a6929081900390910190a35050505050505050505050565b600080546001600160a01b031633148061407857506002546001600160a01b031633145b905090565b600080614088612a39565b604080516370a0823160e01b815230600482015290519192506000916001600160a01b038416916370a08231916024808301926020929190829003018186803b1580156140d457600080fd5b505afa1580156140e8573d6000803e3d6000fd5b505050506040513d60208110156140fe57600080fd5b505190508084116141a157816001600160a01b031663a9059cbb86866040518363ffffffff1660e01b815260040180836001600160a01b03166001600160a01b0316815260200182815260200192505050602060405180830381600087803b15801561416957600080fd5b505af115801561417d573d6000803e3d6000fd5b505050506040513d602081101561419357600080fd5b506000935061150a92505050565b50919392505050565b6060600d80548060200260200160405190810160405280929190818152602001828054801561420257602002820191906000526020600020905b81546001600160a01b031681526001909101906020018083116141e4575b50939450600093505050505b81518110156142c857600082828151811061422557fe5b602002602001015190506142376159ce565b6040518060200160405280836001600160a01b031663aa5af0fd6040518163ffffffff1660e01b815260040160206040518083038186803b15801561427b57600080fd5b505afa15801561428f573d6000803e3d6000fd5b505050506040513d60208110156142a557600080fd5b5051905290506142b4826148a7565b6142be8282613c0c565b505060010161420e565b506142d16159ce565b6040518060200160405280600081525090506060825160405190808252806020026020018201604052801561432057816020015b61430d6159ce565b8152602001906001900390816143055790505b50905060005b83518110156144a657600084828151811061433d57fe5b6020908102919091018101516001600160a01b0381166000908152600990925260409091206003015490915060ff161561449d576143796159ce565b60408051602080820180845260045463fc57d4df60e01b9091526001600160a01b03868116602485015293519293849391169163fc57d4df916044808601929190818703018186803b1580156143ce57600080fd5b505afa1580156143e2573d6000803e3d6000fd5b505050506040513d60208110156143f857600080fd5b5051905290506144066159ce565b61447482846001600160a01b03166347bd37186040518163ffffffff1660e01b815260040160206040518083038186803b15801561444357600080fd5b505afa158015614457573d6000803e3d6000fd5b505050506040513d602081101561446d57600080fd5b505161579f565b90508085858151811061448357fe5b602002602001018190525061449886826154f2565b955050505b50600101614326565b5060005b8351811015611dd2576000600d82815481106144c257fe5b600091825260208220015485516001600160a01b0390911692506144e757600061450f565b61450f600e5461450a8686815181106144fc57fe5b6020026020010151886150f8565b6157c0565b6001600160a01b0383166000818152600f60209081526040918290208490558151848152915193945091927f2ab93f65628379309f36cb125e90d7c902454a545c4f8b8cb0794af75c24b807929181900390910190a250506001016144aa565b600080600061457c615a05565b6001600160a01b038816600090815260086020908152604080832080548251818502810185019093528083526060938301828280156145e457602002820191906000526020600020905b81546001600160a01b031681526001909101906020018083116145c6575b50939450600093505050505b815181101561486857600082828151811061460757fe5b60200260200101519050806001600160a01b031663c37f68e28d6040518263ffffffff1660e01b815260040180826001600160a01b03166001600160a01b0316815260200191505060806040518083038186803b15801561466757600080fd5b505afa15801561467b573d6000803e3d6000fd5b505050506040513d608081101561469157600080fd5b508051602082015160408084015160609485015160808b01529389019390935291870191909152935083156146d65750600f965060009550859450611e719350505050565b60408051602080820183526001600160a01b0380851660008181526009845285902060010154845260c08a01939093528351808301855260808a0151815260e08a015260048054855163fc57d4df60e01b815291820194909452935192169263fc57d4df9260248083019392829003018186803b15801561475657600080fd5b505afa15801561476a573d6000803e3d6000fd5b505050506040513d602081101561478057600080fd5b505160a086018190526147a35750600d965060009550859450611e719350505050565b604080516020810190915260a0860151815261010086015260c085015160e08601516147dd916147d2916150b9565b8661010001516150b9565b6101208601819052604086015186516147f79291906157d9565b8552610100850151606086015160208701516148149291906157d9565b60208601526001600160a01b03818116908c16141561485f576148418561012001518b87602001516157d9565b60208601819052610100860151614859918b906157d9565b60208601525b506001016145f0565b5060208301518351111561488e5750506020810151905160009450039150829050611e71565b5050805160209091015160009450849350039050611e71565b6001600160a01b0381166000908152601060209081526040808320600f90925282205490916148d4611dd8565b83549091506000906148f4908390600160e01b900463ffffffff16614d98565b90506000811180156149065750600083115b15614aaa576000856001600160a01b03166318160ddd6040518163ffffffff1660e01b815260040160206040518083038186803b15801561494657600080fd5b505afa15801561495a573d6000803e3d6000fd5b505050506040513d602081101561497057600080fd5b5051905060006149808386614dd2565b905061498a6159ce565b600083116149a757604051806020016040528060008152506149b1565b6149b182846154bd565b90506149bb6159ce565b604080516020810190915288546001600160e01b031681526149dd90836154f2565b90506040518060400160405280614a1383600001516040518060400160405280600381526020016204332360ec1b815250615517565b6001600160e01b03168152602001614a46886040518060400160405280600381526020016243323160e81b8152506155b1565b63ffffffff9081169091526001600160a01b038b166000908152601060209081526040909120835181549490920151909216600160e01b026001600160e01b039182166001600160e01b03199094169390931716919091179055506116cd92505050565b80156116cd57614ad5826040518060400160405280600381526020016243323160e81b8152506155b1565b845463ffffffff91909116600160e01b026001600160e01b039091161784555050505050565b6001600160a01b0383166000908152601060205260409020614b1b6159ce565b50604080516020810190915281546001600160e01b03168152614b3c6159ce565b5060408051602080820183526001600160a01b03808916600090815260128352848120918916808252828452948120805485528651959091529152919091558051158015614b8a5750815115155b15614ba2576ec097ce7bc90715b34b9f100000000081525b614baa6159ce565b614bb48383615606565b90506000876001600160a01b03166370a08231886040518263ffffffff1660e01b815260040180826001600160a01b03166001600160a01b0316815260200191505060206040518083038186803b158015614c0e57600080fd5b505afa158015614c22573d6000803e3d6000fd5b505050506040513d6020811015614c3857600080fd5b505190506000614c48828461562b565b6001600160a01b03891660009081526014602052604081205491925090614c6f9083614e14565b9050614c8889828a613fe05766038d7ea4c68000613fe3565b6001600160a01b03808b1660008181526014602090815260409182902094909455895181518781529485015280519193928e16927f2caecd17d02f56fa897705dcc740da2d237c373f70686f4e0d9bd3bf0400ea7a929081900390910190a350505050505050505050565b60007f45b96fe442630264581b197e84bbada861235052c5a1aadfff9ea4e40a969aa0836011811115614d2257fe5b836013811115614d2e57fe5b604080519283526020830191909152600082820152519081900360600190a1826011811115611a9657fe5b6000806000614d6c84600080600061456f565b9250925092509193909250565b6000614d836159ce565b614d8d848461579f565b90506117a481615801565b6000611a968383604051806040016040528060158152602001747375627472616374696f6e20756e646572666c6f7760581b815250615810565b6000611a9683836040518060400160405280601781526020017f6d756c7469706c69636174696f6e206f766572666c6f7700000000000000000081525061586a565b6000611a968383604051806040016040528060118152602001706164646974696f6e206f766572666c6f7760781b8152506158e9565b60005b600d54811015614ec457816001600160a01b0316600d8281548110614e6e57fe5b6000918252602090912001546001600160a01b03161415614ebc576040805162461bcd60e51b815260206004820152600360248201526204331360ec1b604482015290519081900360640190fd5b600101614e4d565b50600d80546001810182556000919091527fd7b6990105719101dabeb77144f2a3385c8033acd3af97e9423a695e81ad1eb50180546001600160a01b0319166001600160a01b0392909216919091179055565b6001600160a01b03831660009081526009602052604081205460ff16614f3e576009611ef1565b6001600160a01b038085166000908152600960209081526040808320938716835260029093019052205460ff16614f76576000611ef1565b600080614f86858786600061456f565b91935090915060009050826011811115614f9c57fe5b14614fb657816011811115614fad57fe5b92505050611a96565b8015613289576004614fad565b6001600160a01b0382166000908152600960205260408120805460ff16614fee57600991505061150a565b6001600160a01b038316600090815260028201602052604090205460ff1615156001141561502057600091505061150a565b6001600160a01b0380841660008181526002840160209081526040808320805460ff19166001908117909155600883528184208054918201815584529282902090920180549489166001600160a01b031990951685179055815193845283019190915280517f3ab23ab0d51cccc0c3085aec51f99228625aa1a922b3a8ca89a26b0f2027a1a59281900390910190a15060009392505050565b6150c16159ce565b6040518060200160405280670de0b6b3a76400006150e786600001518660000151614dd2565b816150ee57fe5b0490529392505050565b6151006159ce565b604051806020016040528061512b6151248660000151670de0b6b3a7640000614dd2565b855161593e565b90529392505050565b6001600160a01b0381166000908152600960205260409020805460ff1615156001146151a7576040805162461bcd60e51b815260206004820152601960248201527f636f6d70206d61726b6574206973206e6f74206c697374656400000000000000604482015290519081900360640190fd5b600381015460ff16156151ec576040805162461bcd60e51b81526020600482015260086024820152670636f6d70204331360c41b604482015290519081900360640190fd5b60038101805460ff19166001908117909155604080516001600160a01b0385168152602081019290925280517f93c1f3e36ed71139f466a4ce8c9751790e2e33f5afb2df0dcfb3aeabe55d5aa29281900390910190a16001600160a01b0382166000908152601060205260409020546001600160e01b031615801561529457506001600160a01b038216600090815260106020526040902054600160e01b900463ffffffff16155b156153495760405180604001604052806ec097ce7bc90715b34b9f10000000006001600160e01b031681526020016152ee6152cd611dd8565b6040518060400160405280600381526020016243323160e81b8152506155b1565b63ffffffff9081169091526001600160a01b0384166000908152601060209081526040909120835181549490920151909216600160e01b026001600160e01b039182166001600160e01b031990941693909317169190911790555b6001600160a01b0382166000908152601160205260409020546001600160e01b031615801561539b57506001600160a01b038216600090815260116020526040902054600160e01b900463ffffffff16155b15611c3e5760405180604001604052806ec097ce7bc90715b34b9f10000000006001600160e01b031681526020016153d46152cd611dd8565b63ffffffff9081169091526001600160a01b0384166000908152601160209081526040909120835181549490920151909216600160e01b026001600160e01b039182166001600160e01b031990941693909317169190911790555050565b5190511090565b60007f45b96fe442630264581b197e84bbada861235052c5a1aadfff9ea4e40a969aa084601181111561546857fe5b84601381111561547457fe5b604080519283526020830191909152818101859052519081900360600190a18360118111156117a457fe5b6000611a966154b684670de0b6b3a7640000614dd2565b835161593e565b6154c56159ce565b604051806020016040528061512b6154ec866ec097ce7bc90715b34b9f1000000000614dd2565b8561593e565b6154fa6159ce565b604051806020016040528061512b85600001518560000151614e14565b600081600160e01b84106155a95760405162461bcd60e51b81526004018080602001828103825283818151815260200191508051906020019080838360005b8381101561556e578181015183820152602001615556565b50505050905090810190601f16801561559b5780820380516001836020036101000a031916815260200191505b509250505060405180910390fd5b509192915050565b600081600160201b84106155a95760405162461bcd60e51b815260206004820181815283516024840152835190928392604490910191908501908083836000831561556e578181015183820152602001615556565b61560e6159ce565b604051806020016040528061512b85600001518560000151614d98565b60006ec097ce7bc90715b34b9f100000000061564b848460000151614dd2565b8161565257fe5b049392505050565b600081831015801561566c5750600083115b1561579757600061567b612a39565b604080516370a0823160e01b815230600482015290519192506000916001600160a01b038416916370a08231916024808301926020929190829003018186803b1580156156c757600080fd5b505afa1580156156db573d6000803e3d6000fd5b505050506040513d60208110156156f157600080fd5b5051905080851161579457816001600160a01b031663a9059cbb87876040518363ffffffff1660e01b815260040180836001600160a01b03166001600160a01b0316815260200182815260200192505050602060405180830381600087803b15801561575c57600080fd5b505af1158015615770573d6000803e3d6000fd5b505050506040513d602081101561578657600080fd5b5060009350611a9692505050565b50505b509092915050565b6157a76159ce565b604051806020016040528061512b856000015185614dd2565b6000670de0b6b3a764000061564b848460000151614dd2565b60006157e36159ce565b6157ed858561579f565b905061237d6157fb82615801565b84614e14565b51670de0b6b3a7640000900490565b600081848411156158625760405162461bcd60e51b815260206004820181815283516024840152835190928392604490910191908501908083836000831561556e578181015183820152602001615556565b505050900390565b6000831580615877575082155b1561588457506000611a96565b8383028385828161589157fe5b041483906158e05760405162461bcd60e51b815260206004820181815283516024840152835190928392604490910191908501908083836000831561556e578181015183820152602001615556565b50949350505050565b600083830182858210156158e05760405162461bcd60e51b815260206004820181815283516024840152835190928392604490910191908501908083836000831561556e578181015183820152602001615556565b6000611a9683836040518060400160405280600e81526020016d646976696465206279207a65726f60901b815250600081836159bb5760405162461bcd60e51b815260206004820181815283516024840152835190928392604490910191908501908083836000831561556e578181015183820152602001615556565b508284816159c557fe5b04949350505050565b6040518060200160405280600081525090565b81548183558181111561156d5760008381526020902061156d918101908301615a6f565b604051806101400160405280600081526020016000815260200160008152602001600081526020016000815260200160008152602001615a436159ce565b8152602001615a506159ce565b8152602001615a5d6159ce565b8152602001615a6a6159ce565b905290565b611dda91905b80821115615a895760008155600101615a75565b509056fea265627a7a723158203b572cbde865aef8c70a29acf721afae5a2cbedbbe10de7ba62cec611fdc181064736f6c63430005100032",
  "linkReferences": {},
  "deployedLinkReferences": {}
}