{
  "_format": "hh-sol-artifact-1",
  "contractName": "CRBTC",
  "sourceName": "contracts/CRBTC.sol",
  "abi": [
    {
      "inputs": [
        {
          "internalType": "contract ComptrollerInterface",
          "name": "comptroller_",
          "type": "address"
        },
        {
          "internalType": "contract InterestRateModel",
          "name": "interestRateModel_",
          "type": "address"
        },
        {
          "internalType": "uint256",
          "name": "initialExchangeRateMantissa_",
          "type": "uint256"
        },
        {
          "internalType": "string",
          "name": "name_",
          "type": "string"
        },
        {
          "internalType": "string",
          "name": "symbol_",
          "type": "string"
        },
        {
          "internalType": "uint8",
          "name": "decimals_",
          "type": "uint8"
        },
        {
          "internalType": "address payable",
          "name": "admin_",
          "type": "address"
        }
      ],
      "payable": false,
      "stateMutability": "nonpayable",
      "type": "constructor"
    },
    {
      "anonymous": false,
      "inputs": [
        {
          "indexed": false,
          "internalType": "uint256",
          "name": "cashPrior",
          "type": "uint256"
        },
        {
          "indexed": false,
          "internalType": "uint256",
          "name": "interestAccumulated",
          "type": "uint256"
        },
        {
          "indexed": false,
          "internalType": "uint256",
          "name": "borrowIndex",
          "type": "uint256"
        },
        {
          "indexed": false,
          "internalType": "uint256",
          "name": "totalBorrows",
          "type": "uint256"
        }
      ],
      "name": "AccrueInterest",
      "type": "event"
    },
    {
      "anonymous": false,
      "inputs": [
        {
          "indexed": true,
          "internalType": "address",
          "name": "owner",
          "type": "address"
        },
        {
          "indexed": true,
          "internalType": "address",
          "name": "spender",
          "type": "address"
        },
        {
          "indexed": false,
          "internalType": "uint256",
          "name": "amount",
          "type": "uint256"
        }
      ],
      "name": "Approval",
      "type": "event"
    },
    {
      "anonymous": false,
      "inputs": [
        {
          "indexed": true,
          "internalType": "address",
          "name": "borrower",
          "type": "address"
        },
        {
          "indexed": false,
          "internalType": "uint256",
          "name": "borrowAmount",
          "type": "uint256"
        },
        {
          "indexed": false,
          "internalType": "uint256",
          "name": "accountBorrows",
          "type": "uint256"
        },
        {
          "indexed": false,
          "internalType": "uint256",
          "name": "totalBorrows",
          "type": "uint256"
        }
      ],
      "name": "Borrow",
      "type": "event"
    },
    {
      "anonymous": false,
      "inputs": [
        {
          "indexed": false,
          "internalType": "uint256",
          "name": "error",
          "type": "uint256"
        },
        {
          "indexed": false,
          "internalType": "uint256",
          "name": "info",
          "type": "uint256"
        },
        {
          "indexed": false,
          "internalType": "uint256",
          "name": "detail",
          "type": "uint256"
        }
      ],
      "name": "Failure",
      "type": "event"
    },
    {
      "anonymous": false,
      "inputs": [
        {
          "indexed": true,
          "internalType": "address",
          "name": "liquidator",
          "type": "address"
        },
        {
          "indexed": true,
          "internalType": "address",
          "name": "borrower",
          "type": "address"
        },
        {
          "indexed": false,
          "internalType": "uint256",
          "name": "repayAmount",
          "type": "uint256"
        },
        {
          "indexed": true,
          "internalType": "address",
          "name": "cTokenCollateral",
          "type": "address"
        },
        {
          "indexed": false,
          "internalType": "uint256",
          "name": "seizeTokens",
          "type": "uint256"
        }
      ],
      "name": "LiquidateBorrow",
      "type": "event"
    },
    {
      "anonymous": false,
      "inputs": [
        {
          "indexed": true,
          "internalType": "address",
          "name": "minter",
          "type": "address"
        },
        {
          "indexed": false,
          "internalType": "uint256",
          "name": "mintAmount",
          "type": "uint256"
        },
        {
          "indexed": false,
          "internalType": "uint256",
          "name": "mintTokens",
          "type": "uint256"
        }
      ],
      "name": "Mint",
      "type": "event"
    },
    {
      "anonymous": false,
      "inputs": [
        {
          "indexed": false,
          "internalType": "address",
          "name": "oldAdmin",
          "type": "address"
        },
        {
          "indexed": false,
          "internalType": "address",
          "name": "newAdmin",
          "type": "address"
        }
      ],
      "name": "NewAdmin",
      "type": "event"
    },
    {
      "anonymous": false,
      "inputs": [
        {
          "indexed": false,
          "internalType": "contract ComptrollerInterface",
          "name": "oldComptroller",
          "type": "address"
        },
        {
          "indexed": false,
          "internalType": "contract ComptrollerInterface",
          "name": "newComptroller",
          "type": "address"
        }
      ],
      "name": "NewComptroller",
      "type": "event"
    },
    {
      "anonymous": false,
      "inputs": [
        {
          "indexed": false,
          "internalType": "contract InterestRateModel",
          "name": "oldInterestRateModel",
          "type": "address"
        },
        {
          "indexed": false,
          "internalType": "contract InterestRateModel",
          "name": "newInterestRateModel",
          "type": "address"
        }
      ],
      "name": "NewMarketInterestRateModel",
      "type": "event"
    },
    {
      "anonymous": false,
      "inputs": [
        {
          "indexed": false,
          "internalType": "address",
          "name": "oldPendingAdmin",
          "type": "address"
        },
        {
          "indexed": false,
          "internalType": "address",
          "name": "newPendingAdmin",
          "type": "address"
        }
      ],
      "name": "NewPendingAdmin",
      "type": "event"
    },
    {
      "anonymous": false,
      "inputs": [
        {
          "indexed": false,
          "internalType": "uint256",
          "name": "oldReserveFactorMantissa",
          "type": "uint256"
        },
        {
          "indexed": false,
          "internalType": "uint256",
          "name": "newReserveFactorMantissa",
          "type": "uint256"
        }
      ],
      "name": "NewReserveFactor",
      "type": "event"
    },
    {
      "anonymous": false,
      "inputs": [
        {
          "indexed": true,
          "internalType": "address",
          "name": "redeemer",
          "type": "address"
        },
        {
          "indexed": false,
          "internalType": "uint256",
          "name": "redeemAmount",
          "type": "uint256"
        },
        {
          "indexed": false,
          "internalType": "uint256",
          "name": "redeemTokens",
          "type": "uint256"
        }
      ],
      "name": "Redeem",
      "type": "event"
    },
    {
      "anonymous": false,
      "inputs": [
        {
          "indexed": true,
          "internalType": "address",
          "name": "payer",
          "type": "address"
        },
        {
          "indexed": true,
          "internalType": "address",
          "name": "borrower",
          "type": "address"
        },
        {
          "indexed": false,
          "internalType": "uint256",
          "name": "repayAmount",
          "type": "uint256"
        },
        {
          "indexed": false,
          "internalType": "uint256",
          "name": "accountBorrows",
          "type": "uint256"
        },
        {
          "indexed": false,
          "internalType": "uint256",
          "name": "totalBorrows",
          "type": "uint256"
        }
      ],
      "name": "RepayBorrow",
      "type": "event"
    },
    {
      "anonymous": false,
      "inputs": [
        {
          "indexed": false,
          "internalType": "address",
          "name": "benefactor",
          "type": "address"
        },
        {
          "indexed": false,
          "internalType": "uint256",
          "name": "addAmount",
          "type": "uint256"
        },
        {
          "indexed": false,
          "internalType": "uint256",
          "name": "newTotalReserves",
          "type": "uint256"
        }
      ],
      "name": "ReservesAdded",
      "type": "event"
    },
    {
      "anonymous": false,
      "inputs": [
        {
          "indexed": false,
          "internalType": "address",
          "name": "admin",
          "type": "address"
        },
        {
          "indexed": false,
          "internalType": "uint256",
          "name": "reduceAmount",
          "type": "uint256"
        },
        {
          "indexed": false,
          "internalType": "uint256",
          "name": "newTotalReserves",
          "type": "uint256"
        }
      ],
      "name": "ReservesReduced",
      "type": "event"
    },
    {
      "anonymous": false,
      "inputs": [
        {
          "indexed": false,
          "internalType": "address",
          "name": "benefactor",
          "type": "address"
        },
        {
          "indexed": false,
          "internalType": "uint256",
          "name": "addAmount",
          "type": "uint256"
        },
        {
          "indexed": false,
          "internalType": "uint256",
          "name": "newSubsidyFund",
          "type": "uint256"
        }
      ],
      "name": "SubsidyAdded",
      "type": "event"
    },
    {
      "anonymous": false,
      "inputs": [
        {
          "indexed": true,
          "internalType": "address",
          "name": "from",
          "type": "address"
        },
        {
          "indexed": true,
          "internalType": "address",
          "name": "to",
          "type": "address"
        },
        {
          "indexed": false,
          "internalType": "uint256",
          "name": "amount",
          "type": "uint256"
        }
      ],
      "name": "Transfer",
      "type": "event"
    },
    {
      "payable": true,
      "stateMutability": "payable",
      "type": "fallback"
    },
    {
      "constant": false,
      "inputs": [],
      "name": "_acceptAdmin",
      "outputs": [
        {
          "internalType": "uint256",
          "name": "",
          "type": "uint256"
        }
      ],
      "payable": false,
      "stateMutability": "nonpayable",
      "type": "function"
    },
    {
      "constant": false,
      "inputs": [
        {
          "internalType": "uint256",
          "name": "reduceAmount",
          "type": "uint256"
        }
      ],
      "name": "_reduceReserves",
      "outputs": [
        {
          "internalType": "uint256",
          "name": "",
          "type": "uint256"
        }
      ],
      "payable": false,
      "stateMutability": "nonpayable",
      "type": "function"
    },
    {
      "constant": false,
      "inputs": [
        {
          "internalType": "contract ComptrollerInterface",
          "name": "newComptroller",
          "type": "address"
        }
      ],
      "name": "_setComptroller",
      "outputs": [
        {
          "internalType": "uint256",
          "name": "",
          "type": "uint256"
        }
      ],
      "payable": false,
      "stateMutability": "nonpayable",
      "type": "function"
    },
    {
      "constant": false,
      "inputs": [
        {
          "internalType": "contract InterestRateModel",
          "name": "newInterestRateModel",
          "type": "address"
        }
      ],
      "name": "_setInterestRateModel",
      "outputs": [
        {
          "internalType": "uint256",
          "name": "",
          "type": "uint256"
        }
      ],
      "payable": false,
      "stateMutability": "nonpayable",
      "type": "function"
    },
    {
      "constant": false,
      "inputs": [
        {
          "internalType": "address payable",
          "name": "newPendingAdmin",
          "type": "address"
        }
      ],
      "name": "_setPendingAdmin",
      "outputs": [
        {
          "internalType": "uint256",
          "name": "",
          "type": "uint256"
        }
      ],
      "payable": false,
      "stateMutability": "nonpayable",
      "type": "function"
    },
    {
      "constant": false,
      "inputs": [
        {
          "internalType": "uint256",
          "name": "newReserveFactorMantissa",
          "type": "uint256"
        }
      ],
      "name": "_setReserveFactor",
      "outputs": [
        {
          "internalType": "uint256",
          "name": "",
          "type": "uint256"
        }
      ],
      "payable": false,
      "stateMutability": "nonpayable",
      "type": "function"
    },
    {
      "constant": true,
      "inputs": [],
      "name": "accrualBlockNumber",
      "outputs": [
        {
          "internalType": "uint256",
          "name": "",
          "type": "uint256"
        }
      ],
      "payable": false,
      "stateMutability": "view",
      "type": "function"
    },
    {
      "constant": false,
      "inputs": [],
      "name": "accrueInterest",
      "outputs": [
        {
          "internalType": "uint256",
          "name": "",
          "type": "uint256"
        }
      ],
      "payable": false,
      "stateMutability": "nonpayable",
      "type": "function"
    },
    {
      "constant": false,
      "inputs": [],
      "name": "addSubsidy",
      "outputs": [],
      "payable": true,
      "stateMutability": "payable",
      "type": "function"
    },
    {
      "constant": true,
      "inputs": [],
      "name": "admin",
      "outputs": [
        {
          "internalType": "address payable",
          "name": "",
          "type": "address"
        }
      ],
      "payable": false,
      "stateMutability": "view",
      "type": "function"
    },
    {
      "constant": true,
      "inputs": [
        {
          "internalType": "address",
          "name": "owner",
          "type": "address"
        },
        {
          "internalType": "address",
          "name": "spender",
          "type": "address"
        }
      ],
      "name": "allowance",
      "outputs": [
        {
          "internalType": "uint256",
          "name": "",
          "type": "uint256"
        }
      ],
      "payable": false,
      "stateMutability": "view",
      "type": "function"
    },
    {
      "constant": false,
      "inputs": [
        {
          "internalType": "address",
          "name": "spender",
          "type": "address"
        },
        {
          "internalType": "uint256",
          "name": "amount",
          "type": "uint256"
        }
      ],
      "name": "approve",
      "outputs": [
        {
          "internalType": "bool",
          "name": "",
          "type": "bool"
        }
      ],
      "payable": false,
      "stateMutability": "nonpayable",
      "type": "function"
    },
    {
      "constant": true,
      "inputs": [
        {
          "internalType": "address",
          "name": "owner",
          "type": "address"
        }
      ],
      "name": "balanceOf",
      "outputs": [
        {
          "internalType": "uint256",
          "name": "",
          "type": "uint256"
        }
      ],
      "payable": false,
      "stateMutability": "view",
      "type": "function"
    },
    {
      "constant": false,
      "inputs": [
        {
          "internalType": "address",
          "name": "owner",
          "type": "address"
        }
      ],
      "name": "balanceOfUnderlying",
      "outputs": [
        {
          "internalType": "uint256",
          "name": "",
          "type": "uint256"
        }
      ],
      "payable": false,
      "stateMutability": "nonpayable",
      "type": "function"
    },
    {
      "constant": false,
      "inputs": [
        {
          "internalType": "uint256",
          "name": "borrowAmount",
          "type": "uint256"
        }
      ],
      "name": "borrow",
      "outputs": [
        {
          "internalType": "uint256",
          "name": "",
          "type": "uint256"
        }
      ],
      "payable": false,
      "stateMutability": "nonpayable",
      "type": "function"
    },
    {
      "constant": false,
      "inputs": [
        {
          "internalType": "address",
          "name": "account",
          "type": "address"
        }
      ],
      "name": "borrowBalanceCurrent",
      "outputs": [
        {
          "internalType": "uint256",
          "name": "",
          "type": "uint256"
        }
      ],
      "payable": false,
      "stateMutability": "nonpayable",
      "type": "function"
    },
    {
      "constant": true,
      "inputs": [
        {
          "internalType": "address",
          "name": "account",
          "type": "address"
        }
      ],
      "name": "borrowBalanceStored",
      "outputs": [
        {
          "internalType": "uint256",
          "name": "",
          "type": "uint256"
        }
      ],
      "payable": false,
      "stateMutability": "view",
      "type": "function"
    },
    {
      "constant": true,
      "inputs": [],
      "name": "borrowIndex",
      "outputs": [
        {
          "internalType": "uint256",
          "name": "",
          "type": "uint256"
        }
      ],
      "payable": false,
      "stateMutability": "view",
      "type": "function"
    },
    {
      "constant": true,
      "inputs": [],
      "name": "borrowRatePerBlock",
      "outputs": [
        {
          "internalType": "uint256",
          "name": "",
          "type": "uint256"
        }
      ],
      "payable": false,
      "stateMutability": "view",
      "type": "function"
    },
    {
      "constant": true,
      "inputs": [],
      "name": "comptroller",
      "outputs": [
        {
          "internalType": "contract ComptrollerInterface",
          "name": "",
          "type": "address"
        }
      ],
      "payable": false,
      "stateMutability": "view",
      "type": "function"
    },
    {
      "constant": true,
      "inputs": [],
      "name": "decimals",
      "outputs": [
        {
          "internalType": "uint8",
          "name": "",
          "type": "uint8"
        }
      ],
      "payable": false,
      "stateMutability": "view",
      "type": "function"
    },
    {
      "constant": false,
      "inputs": [],
      "name": "exchangeRateCurrent",
      "outputs": [
        {
          "internalType": "uint256",
          "name": "",
          "type": "uint256"
        }
      ],
      "payable": false,
      "stateMutability": "nonpayable",
      "type": "function"
    },
    {
      "constant": true,
      "inputs": [],
      "name": "exchangeRateStored",
      "outputs": [
        {
          "internalType": "uint256",
          "name": "",
          "type": "uint256"
        }
      ],
      "payable": false,
      "stateMutability": "view",
      "type": "function"
    },
    {
      "constant": true,
      "inputs": [
        {
          "internalType": "address",
          "name": "account",
          "type": "address"
        }
      ],
      "name": "getAccountSnapshot",
      "outputs": [
        {
          "internalType": "uint256",
          "name": "",
          "type": "uint256"
        },
        {
          "internalType": "uint256",
          "name": "",
          "type": "uint256"
        },
        {
          "internalType": "uint256",
          "name": "",
          "type": "uint256"
        },
        {
          "internalType": "uint256",
          "name": "",
          "type": "uint256"
        }
      ],
      "payable": false,
      "stateMutability": "view",
      "type": "function"
    },
    {
      "constant": true,
      "inputs": [
        {
          "internalType": "address",
          "name": "account",
          "type": "address"
        }
      ],
      "name": "getBorrowerPrincipalStored",
      "outputs": [
        {
          "internalType": "uint256",
          "name": "borrowed",
          "type": "uint256"
        }
      ],
      "payable": false,
      "stateMutability": "view",
      "type": "function"
    },
    {
      "constant": true,
      "inputs": [],
      "name": "getCash",
      "outputs": [
        {
          "internalType": "uint256",
          "name": "",
          "type": "uint256"
        }
      ],
      "payable": false,
      "stateMutability": "view",
      "type": "function"
    },
    {
      "constant": true,
      "inputs": [
        {
          "internalType": "address",
          "name": "account",
          "type": "address"
        }
      ],
      "name": "getSupplierSnapshotStored",
      "outputs": [
        {
          "internalType": "uint256",
          "name": "tokens",
          "type": "uint256"
        },
        {
          "internalType": "uint256",
          "name": "underlyingAmount",
          "type": "uint256"
        },
        {
          "internalType": "uint256",
          "name": "suppliedAt",
          "type": "uint256"
        },
        {
          "internalType": "uint256",
          "name": "promisedSupplyRate",
          "type": "uint256"
        }
      ],
      "payable": false,
      "stateMutability": "view",
      "type": "function"
    },
    {
      "constant": true,
      "inputs": [],
      "name": "initialExchangeRateMantissa",
      "outputs": [
        {
          "internalType": "uint256",
          "name": "",
          "type": "uint256"
        }
      ],
      "payable": false,
      "stateMutability": "view",
      "type": "function"
    },
    {
      "constant": false,
      "inputs": [
        {
          "internalType": "contract ComptrollerInterface",
          "name": "comptroller_",
          "type": "address"
        },
        {
          "internalType": "contract InterestRateModel",
          "name": "interestRateModel_",
          "type": "address"
        },
        {
          "internalType": "uint256",
          "name": "initialExchangeRateMantissa_",
          "type": "uint256"
        },
        {
          "internalType": "string",
          "name": "name_",
          "type": "string"
        },
        {
          "internalType": "string",
          "name": "symbol_",
          "type": "string"
        },
        {
          "internalType": "uint8",
          "name": "decimals_",
          "type": "uint8"
        }
      ],
      "name": "initialize",
      "outputs": [],
      "payable": false,
      "stateMutability": "nonpayable",
      "type": "function"
    },
    {
      "constant": true,
      "inputs": [],
      "name": "interestRateModel",
      "outputs": [
        {
          "internalType": "contract InterestRateModel",
          "name": "",
          "type": "address"
        }
      ],
      "payable": false,
      "stateMutability": "view",
      "type": "function"
    },
    {
      "constant": true,
      "inputs": [],
      "name": "isCToken",
      "outputs": [
        {
          "internalType": "bool",
          "name": "",
          "type": "bool"
        }
      ],
      "payable": false,
      "stateMutability": "view",
      "type": "function"
    },
    {
      "constant": false,
      "inputs": [
        {
          "internalType": "address",
          "name": "borrower",
          "type": "address"
        },
        {
          "internalType": "contract CToken",
          "name": "cTokenCollateral",
          "type": "address"
        }
      ],
      "name": "liquidateBorrow",
      "outputs": [],
      "payable": true,
      "stateMutability": "payable",
      "type": "function"
    },
    {
      "constant": false,
      "inputs": [],
      "name": "mint",
      "outputs": [],
      "payable": true,
      "stateMutability": "payable",
      "type": "function"
    },
    {
      "constant": true,
      "inputs": [],
      "name": "name",
      "outputs": [
        {
          "internalType": "string",
          "name": "",
          "type": "string"
        }
      ],
      "payable": false,
      "stateMutability": "view",
      "type": "function"
    },
    {
      "constant": true,
      "inputs": [],
      "name": "pendingAdmin",
      "outputs": [
        {
          "internalType": "address payable",
          "name": "",
          "type": "address"
        }
      ],
      "payable": false,
      "stateMutability": "view",
      "type": "function"
    },
    {
      "constant": false,
      "inputs": [
        {
          "internalType": "uint256",
          "name": "redeemTokens",
          "type": "uint256"
        }
      ],
      "name": "redeem",
      "outputs": [
        {
          "internalType": "uint256",
          "name": "",
          "type": "uint256"
        }
      ],
      "payable": false,
      "stateMutability": "nonpayable",
      "type": "function"
    },
    {
      "constant": false,
      "inputs": [
        {
          "internalType": "uint256",
          "name": "redeemAmount",
          "type": "uint256"
        }
      ],
      "name": "redeemUnderlying",
      "outputs": [
        {
          "internalType": "uint256",
          "name": "",
          "type": "uint256"
        }
      ],
      "payable": false,
      "stateMutability": "nonpayable",
      "type": "function"
    },
    {
      "constant": false,
      "inputs": [],
      "name": "repayBorrow",
      "outputs": [],
      "payable": true,
      "stateMutability": "payable",
      "type": "function"
    },
    {
      "constant": false,
      "inputs": [],
      "name": "repayBorrowAll",
      "outputs": [],
      "payable": true,
      "stateMutability": "payable",
      "type": "function"
    },
    {
      "constant": false,
      "inputs": [
        {
          "internalType": "address",
          "name": "borrower",
          "type": "address"
        }
      ],
      "name": "repayBorrowBehalf",
      "outputs": [],
      "payable": true,
      "stateMutability": "payable",
      "type": "function"
    },
    {
      "constant": true,
      "inputs": [],
      "name": "reserveFactorMantissa",
      "outputs": [
        {
          "internalType": "uint256",
          "name": "",
          "type": "uint256"
        }
      ],
      "payable": false,
      "stateMutability": "view",
      "type": "function"
    },
    {
      "constant": false,
      "inputs": [
        {
          "internalType": "address",
          "name": "liquidator",
          "type": "address"
        },
        {
          "internalType": "address",
          "name": "borrower",
          "type": "address"
        },
        {
          "internalType": "uint256",
          "name": "seizeTokens",
          "type": "uint256"
        }
      ],
      "name": "seize",
      "outputs": [
        {
          "internalType": "uint256",
          "name": "",
          "type": "uint256"
        }
      ],
      "payable": false,
      "stateMutability": "nonpayable",
      "type": "function"
    },
    {
      "constant": false,
      "inputs": [
        {
          "internalType": "address",
          "name": "crbtcCompanion_",
          "type": "address"
        }
      ],
      "name": "setCompanion",
      "outputs": [],
      "payable": false,
      "stateMutability": "nonpayable",
      "type": "function"
    },
    {
      "constant": true,
      "inputs": [],
      "name": "subsidyFund",
      "outputs": [
        {
          "internalType": "uint256",
          "name": "",
          "type": "uint256"
        }
      ],
      "payable": false,
      "stateMutability": "view",
      "type": "function"
    },
    {
      "constant": true,
      "inputs": [],
      "name": "supplyRatePerBlock",
      "outputs": [
        {
          "internalType": "uint256",
          "name": "",
          "type": "uint256"
        }
      ],
      "payable": false,
      "stateMutability": "view",
      "type": "function"
    },
    {
      "constant": true,
      "inputs": [],
      "name": "symbol",
      "outputs": [
        {
          "internalType": "string",
          "name": "",
          "type": "string"
        }
      ],
      "payable": false,
      "stateMutability": "view",
      "type": "function"
    },
    {
      "constant": true,
      "inputs": [],
      "name": "totalBorrows",
      "outputs": [
        {
          "internalType": "uint256",
          "name": "",
          "type": "uint256"
        }
      ],
      "payable": false,
      "stateMutability": "view",
      "type": "function"
    },
    {
      "constant": false,
      "inputs": [],
      "name": "totalBorrowsCurrent",
      "outputs": [
        {
          "internalType": "uint256",
          "name": "",
          "type": "uint256"
        }
      ],
      "payable": false,
      "stateMutability": "nonpayable",
      "type": "function"
    },
    {
      "constant": true,
      "inputs": [],
      "name": "totalReserves",
      "outputs": [
        {
          "internalType": "uint256",
          "name": "",
          "type": "uint256"
        }
      ],
      "payable": false,
      "stateMutability": "view",
      "type": "function"
    },
    {
      "constant": true,
      "inputs": [],
      "name": "totalSupply",
      "outputs": [
        {
          "internalType": "uint256",
          "name": "",
          "type": "uint256"
        }
      ],
      "payable": false,
      "stateMutability": "view",
      "type": "function"
    },
    {
      "constant": false,
      "inputs": [
        {
          "internalType": "address",
          "name": "dst",
          "type": "address"
        },
        {
          "internalType": "uint256",
          "name": "amount",
          "type": "uint256"
        }
      ],
      "name": "transfer",
      "outputs": [
        {
          "internalType": "bool",
          "name": "",
          "type": "bool"
        }
      ],
      "payable": false,
      "stateMutability": "nonpayable",
      "type": "function"
    },
    {
      "constant": false,
      "inputs": [
        {
          "internalType": "address",
          "name": "src",
          "type": "address"
        },
        {
          "internalType": "address",
          "name": "dst",
          "type": "address"
        },
        {
          "internalType": "uint256",
          "name": "amount",
          "type": "uint256"
        }
      ],
      "name": "transferFrom",
      "outputs": [
        {
          "internalType": "bool",
          "name": "",
          "type": "bool"
        }
      ],
      "payable": false,
      "stateMutability": "nonpayable",
      "type": "function"
    },
    {
      "constant": true,
      "inputs": [
        {
          "internalType": "address",
          "name": "account",
          "type": "address"
        }
      ],
      "name": "tropykusInterestAccrued",
      "outputs": [
        {
          "internalType": "enum CarefulMath.MathError",
          "name": "",
          "type": "uint8"
        },
        {
          "internalType": "uint256",
          "name": "",
          "type": "uint256"
        },
        {
          "internalType": "uint256",
          "name": "",
          "type": "uint256"
        },
        {
          "internalType": "uint256",
          "name": "",
          "type": "uint256"
        },
        {
          "internalType": "uint256",
          "name": "",
          "type": "uint256"
        }
      ],
      "payable": false,
      "stateMutability": "view",
      "type": "function"
    }
  ],
  "bytecode": "0x60806040523480156200001157600080fd5b506040516200639638038062006396833981810160405260e08110156200003757600080fd5b8151602083015160408085015160608601805192519496939591949391820192846401000000008211156200006b57600080fd5b9083019060208201858111156200008157600080fd5b82516401000000008111828201881017156200009c57600080fd5b82525081516020918201929091019080838360005b83811015620000cb578181015183820152602001620000b1565b50505050905090810190601f168015620000f95780820380516001836020036101000a031916815260200191505b50604052602001805160405193929190846401000000008211156200011d57600080fd5b9083019060208201858111156200013357600080fd5b82516401000000008111828201881017156200014e57600080fd5b82525081516020918201929091019080838360005b838110156200017d57818101518382015260200162000163565b50505050905090810190601f168015620001ab5780820380516001836020036101000a031916815260200191505b506040908152602082015191015160038054610100600160a81b03191633610100021790559092509050620001e587878787878762000218565b600380546001600160a01b0390921661010002610100600160a81b031990921691909117905550620007ec945050505050565b60035461010090046001600160a01b0316331462000262576040805162461bcd60e51b8152602060048201526002602482015261543160f01b604482015290519081900360640190fd5b600954158015620002735750600a54155b620002aa576040805162461bcd60e51b81526020600482015260026024820152612a1960f11b604482015290519081900360640190fd5b600784905583620002e7576040805162461bcd60e51b8152602060048201526002602482015261543360f01b604482015290519081900360640190fd5b6000620002fd876001600160e01b03620003fb16565b9050801562000338576040805162461bcd60e51b8152602060048201526002602482015261150d60f21b604482015290519081900360640190fd5b6200034b6001600160e01b036200054916565b600955670de0b6b3a7640000600a556200036e866001600160e01b036200054e16565b90508015620003a9576040805162461bcd60e51b8152602060048201526002602482015261543560f01b604482015290519081900360640190fd5b8351620003be9060019060208701906200074a565b508251620003d49060029060208601906200074a565b50506003805460ff90921660ff199283161790556000805490911660011790555050505050565b60035460009061010090046001600160a01b0316331462000435576200042d6001603f6001600160e01b03620006da16565b905062000544565b60055460408051623f1ee960e11b815290516001600160a01b0392831692851691627e3dd2916004808301926020929190829003018186803b1580156200047b57600080fd5b505afa15801562000490573d6000803e3d6000fd5b505050506040513d6020811015620004a757600080fd5b5051620004e1576040805162461bcd60e51b81526020600482015260036024820152622a191960e91b604482015290519081900360640190fd5b600580546001600160a01b0319166001600160a01b03858116918217909255604080519284168352602083019190915280517f7ac369dbd14fa5ea3f473ed67cc9d598964a77501540ba6751eb0b3decf5870d9281900390910190a160005b9150505b919050565b435b90565b600354600090819061010090046001600160a01b031633146200058b5762000582600160426001600160e01b03620006da16565b91505062000544565b6200059e6001600160e01b036200054916565b60095414620005be5762000582600a60416001600160e01b03620006da16565b600660009054906101000a90046001600160a01b03169050826001600160a01b0316632191f92a6040518163ffffffff1660e01b815260040160206040518083038186803b1580156200061057600080fd5b505afa15801562000625573d6000803e3d6000fd5b505050506040513d60208110156200063c57600080fd5b505162000676576040805162461bcd60e51b81526020600482015260036024820152622a191960e91b604482015290519081900360640190fd5b600680546001600160a01b0319166001600160a01b03858116918217909255604080519284168352602083019190915280517fedffc32e068c7c95dfd4bdfd5c4d939a084d6b11c4199eac8436ed234d72f9269281900390910190a1600062000540565b60007f45b96fe442630264581b197e84bbada861235052c5a1aadfff9ea4e40a969aa08360108111156200070a57fe5b8360528111156200071757fe5b604080519283526020830191909152600082820152519081900360600190a18260108111156200074357fe5b9392505050565b828054600181600116156101000203166002900490600052602060002090601f016020900481019282601f106200078d57805160ff1916838001178555620007bd565b82800160010185558215620007bd579182015b82811115620007bd578251825591602001919060010190620007a0565b50620007cb929150620007cf565b5090565b6200054b91905b80821115620007cb5760008155600101620007d6565b615b9a80620007fc6000396000f3fe60806040526004361061031a5760003560e01c8063852a12e3116101ab578063c139562b116100f7578063f2b3abbd11610095578063f8f9da281161006f578063f8f9da2814610bfa578063fc610b3d14610c0f578063fca7820b14610c82578063fe9c44ae14610cac5761031a565b8063f2b3abbd14610b9d578063f3fdb15a14610bd0578063f851a44014610be55761031a565b8063db006a75116100d1578063db006a7514610afd578063dd62ed3e14610b27578063e597461914610b62578063e9c714f214610b885761031a565b8063c139562b14610a6d578063c37f68e214610aa0578063c5ebeaec14610ad35761031a565b8063a9059cbb11610164578063ae9d70b01161013e578063ae9d70b0146109cd578063b2a02ff1146109e2578063b71d1a0c14610a25578063bd6d894d14610a585761031a565b8063a9059cbb14610951578063aa5af0fd1461098a578063aae40a2a1461099f5761031a565b8063852a12e3146107565780638f840ddd1461078057806395d89b411461079557806395dd9193146107aa57806399d8c1b4146107dd578063a6afed951461093c5761031a565b80634576b5db1161026a5780636653d464116102235780636c865c4f116101fd5780636c865c4f146106fe57806370a082311461070657806373acee98146107395780637f78fe161461074e5761031a565b80636653d464146106a1578063675d972c146106d45780636c540baf146106e95761031a565b80634576b5db146105b957806347bd3718146105ec5780634e4d9fea14610601578063524fe4b5146106095780635fe3b56714610662578063601a0bf1146106775761031a565b8063182df0f5116102d757806326782247116102b15780632678224714610515578063313ce567146105465780633af9e669146105715780633b1d21a2146105a45761031a565b8063182df0f5146104a85780631df0ba9d146104bd57806323b872dd146104d25761031a565b806306fdde0314610358578063095ea7b3146103e25780631249c58b1461042f578063173b99041461043957806317bfdfbc1461046057806318160ddd14610493575b600061032534610cc1565b509050610355816040518060400160405280600b81526020016a1b5a5b9d0819985a5b195960aa1b815250610d62565b50005b34801561036457600080fd5b5061036d610f62565b6040805160208082528351818301528351919283929083019185019080838360005b838110156103a757818101518382015260200161038f565b50505050905090810190601f1680156103d45780820380516001836020036101000a031916815260200191505b509250505060405180910390f35b3480156103ee57600080fd5b5061041b6004803603604081101561040557600080fd5b506001600160a01b038135169060200135610fef565b604080519115158252519081900360200190f35b61043761105c565b005b34801561044557600080fd5b5061044e61109a565b60408051918252519081900360200190f35b34801561046c57600080fd5b5061044e6004803603602081101561048357600080fd5b50356001600160a01b03166110a0565b34801561049f57600080fd5b5061044e611145565b3480156104b457600080fd5b5061044e61114b565b3480156104c957600080fd5b5061044e6111a9565b3480156104de57600080fd5b5061041b600480360360608110156104f557600080fd5b506001600160a01b038135811691602081013590911690604001356111af565b34801561052157600080fd5b5061052a61121a565b604080516001600160a01b039092168252519081900360200190f35b34801561055257600080fd5b5061055b611229565b6040805160ff9092168252519081900360200190f35b34801561057d57600080fd5b5061044e6004803603602081101561059457600080fd5b50356001600160a01b0316611232565b3480156105b057600080fd5b5061044e6112cf565b3480156105c557600080fd5b5061044e600480360360208110156105dc57600080fd5b50356001600160a01b03166112de565b3480156105f857600080fd5b5061044e611419565b61043761141f565b34801561061557600080fd5b5061063c6004803603602081101561062c57600080fd5b50356001600160a01b0316611461565b604080519485526020850193909352838301919091526060830152519081900360800190f35b34801561066e57600080fd5b5061052a611492565b34801561068357600080fd5b5061044e6004803603602081101561069a57600080fd5b50356114a1565b3480156106ad57600080fd5b50610437600480360360208110156106c457600080fd5b50356001600160a01b0316611535565b3480156106e057600080fd5b5061044e6115bb565b3480156106f557600080fd5b5061044e6115c1565b6104376115c7565b34801561071257600080fd5b5061044e6004803603602081101561072957600080fd5b50356001600160a01b03166115d4565b34801561074557600080fd5b5061044e6115ef565b61043761168a565b34801561076257600080fd5b5061044e6004803603602081101561077957600080fd5b5035611693565b34801561078c57600080fd5b5061044e61169e565b3480156107a157600080fd5b5061036d6116a4565b3480156107b657600080fd5b5061044e600480360360208110156107cd57600080fd5b50356001600160a01b03166116fc565b3480156107e957600080fd5b50610437600480360360c081101561080057600080fd5b6001600160a01b0382358116926020810135909116916040820135919081019060808101606082013564010000000081111561083b57600080fd5b82018360208201111561084d57600080fd5b8035906020019184600183028401116401000000008311171561086f57600080fd5b91908080601f01602080910402602001604051908101604052809392919081815260200183838082843760009201919091525092959493602081019350359150506401000000008111156108c257600080fd5b8201836020820111156108d457600080fd5b803590602001918460018302840111640100000000831117156108f657600080fd5b91908080601f0160208091040260200160405190810160405280939291908181526020018383808284376000920191909152509295505050903560ff1691506117549050565b34801561094857600080fd5b5061044e61190c565b34801561095d57600080fd5b5061041b6004803603604081101561097457600080fd5b506001600160a01b038135169060200135611ce7565b34801561099657600080fd5b5061044e611d51565b610437600480360360408110156109b557600080fd5b506001600160a01b0381358116916020013516611d57565b3480156109d957600080fd5b5061044e611da4565b3480156109ee57600080fd5b5061044e60048036036060811015610a0557600080fd5b506001600160a01b03813581169160208101359091169060400135611e43565b348015610a3157600080fd5b5061044e60048036036020811015610a4857600080fd5b50356001600160a01b0316611ead565b348015610a6457600080fd5b5061044e611f39565b348015610a7957600080fd5b5061044e60048036036020811015610a9057600080fd5b50356001600160a01b0316611fda565b348015610aac57600080fd5b5061063c60048036036020811015610ac357600080fd5b50356001600160a01b0316611ff5565b348015610adf57600080fd5b5061044e60048036036020811015610af657600080fd5b503561208a565b348015610b0957600080fd5b5061044e60048036036020811015610b2057600080fd5b5035612095565b348015610b3357600080fd5b5061044e60048036036040811015610b4a57600080fd5b506001600160a01b03813581169160200135166120a0565b61043760048036036020811015610b7857600080fd5b50356001600160a01b03166120cb565b348015610b9457600080fd5b5061044e612119565b348015610ba957600080fd5b5061044e60048036036020811015610bc057600080fd5b50356001600160a01b031661221c565b348015610bdc57600080fd5b5061052a612256565b348015610bf157600080fd5b5061052a612265565b348015610c0657600080fd5b5061044e612279565b348015610c1b57600080fd5b50610c4260048036036020811015610c3257600080fd5b50356001600160a01b03166122dd565b60405180866003811115610c5257fe5b60ff1681526020018581526020018481526020018381526020018281526020019550505050505060405180910390f35b348015610c8e57600080fd5b5061044e60048036036020811015610ca557600080fd5b50356123ff565b348015610cb857600080fd5b5061041b612476565b60008054819060ff16610d01576040805162461bcd60e51b81526020600482015260036024820152622a191b60e91b604482015290519081900360640190fd5b6000805460ff19168155610d1361190c565b90508015610d3e57610d31816010811115610d2a57fe5b601e61247b565b925060009150610d4e9050565b610d4833856124e1565b92509250505b6000805460ff191660011790559092909150565b81610d6c57610f5e565b606081516005016040519080825280601f01601f191660200182016040528015610d9d576020820181803883390190505b50905060005b8251811015610dee57828181518110610db857fe5b602001015160f81c60f81b828281518110610dcf57fe5b60200101906001600160f81b031916908160001a905350600101610da3565b8151600160fd1b90839083908110610e0257fe5b60200101906001600160f81b031916908160001a905350602860f81b828260010181518110610e2d57fe5b60200101906001600160f81b031916908160001a905350600a840460300160f81b828260020181518110610e5d57fe5b60200101906001600160f81b031916908160001a905350600a840660300160f81b828260030181518110610e8d57fe5b60200101906001600160f81b031916908160001a905350602960f81b828260040181518110610eb857fe5b60200101906001600160f81b031916908160001a905350818415610f5a5760405162461bcd60e51b81526004018080602001828103825283818151815260200191508051906020019080838360005b83811015610f1f578181015183820152602001610f07565b50505050905090810190601f168015610f4c5780820380516001836020036101000a031916815260200191505b509250505060405180910390fd5b5050505b5050565b60018054604080516020600284861615610100026000190190941693909304601f81018490048402820184019092528181529291830182828015610fe75780601f10610fbc57610100808354040283529160200191610fe7565b820191906000526020600020905b815481529060010190602001808311610fca57829003601f168201915b505050505081565b3360008181526010602090815260408083206001600160a01b03871680855290835281842086905581518681529151939493909284927f8c5be1e5ebec7d5bd14f71427d1e84f3dd0314c0f7b2291e5b200ac8c7c3b925929081900390910190a360019150505b92915050565b600061106734610cc1565b509050611097816040518060400160405280600b81526020016a1b5a5b9d0819985a5b195960aa1b815250610d62565b50565b60085481565b6000805460ff166110de576040805162461bcd60e51b81526020600482015260036024820152622a191b60e91b604482015290519081900360640190fd5b6000805460ff191681556110f061190c565b14611127576040805162461bcd60e51b8152602060048201526002602482015261543760f01b604482015290519081900360640190fd5b611130826116fc565b90505b6000805460ff19166001179055919050565b600d5481565b6000806000611158612b1a565b9092509050600082600381111561116b57fe5b146111a2576040805162461bcd60e51b8152602060048201526002602482015261543960f01b604482015290519081900360640190fd5b9150505b90565b600e5481565b6000805460ff166111ed576040805162461bcd60e51b81526020600482015260036024820152622a191b60e91b604482015290519081900360640190fd5b6000805460ff1916815561120333868686612cb2565b1490506000805460ff191660011790559392505050565b6004546001600160a01b031681565b60035460ff1681565b600061123c615a2b565b604051806020016040528061124f611f39565b90526001600160a01b0384166000908152600f602052604081205491925090819061127b908490612f40565b9092509050600082600381111561128e57fe5b146112c5576040805162461bcd60e51b81526020600482015260026024820152612a1b60f11b604482015290519081900360640190fd5b925050505b919050565b60006112d9612f93565b905090565b60035460009061010090046001600160a01b0316331461130b576113046001603f61247b565b90506112ca565b60055460408051623f1ee960e11b815290516001600160a01b0392831692851691627e3dd2916004808301926020929190829003018186803b15801561135057600080fd5b505afa158015611364573d6000803e3d6000fd5b505050506040513d602081101561137a57600080fd5b50516113b3576040805162461bcd60e51b81526020600482015260036024820152622a191960e91b604482015290519081900360640190fd5b600580546001600160a01b0319166001600160a01b03858116918217909255604080519284168352602083019190915280517f7ac369dbd14fa5ea3f473ed67cc9d598964a77501540ba6751eb0b3decf5870d9281900390910190a160005b9392505050565b600b5481565b600061142a34613084565b50905061109781604051806040016040528060128152602001711c995c185e509bdc9c9bddc819985a5b195960721b815250610d62565b6001600160a01b03166000908152600f60205260409020805460018201546002830154600390930154919390929190565b6005546001600160a01b031681565b6000805460ff166114df576040805162461bcd60e51b81526020600482015260036024820152622a191b60e91b604482015290519081900360640190fd5b6000805460ff191681556114f161190c565b905080156115175761150f81601081111561150857fe5b603061247b565b915050611133565b611520836130ff565b9150506000805460ff19166001179055919050565b60035461010090046001600160a01b03163314611599576040805162461bcd60e51b815260206004820181905260248201527f6f6e6c792061646d696e206d6179207365742074686520636f6d70616e696f6e604482015290519081900360640190fd5b601280546001600160a01b0319166001600160a01b0392909216919091179055565b60075481565b60095481565b600061142a600019613084565b6001600160a01b03166000908152600f602052604090205490565b6000805460ff1661162d576040805162461bcd60e51b81526020600482015260036024820152622a191b60e91b604482015290519081900360640190fd5b6000805460ff1916815561163f61190c565b14611676576040805162461bcd60e51b8152602060048201526002602482015261543760f01b604482015290519081900360640190fd5b50600b546000805460ff1916600117905590565b6110973461322e565b6000611056826132bb565b600c5481565b6002805460408051602060018416156101000260001901909316849004601f81018490048402820184019092528181529291830182828015610fe75780601f10610fbc57610100808354040283529160200191610fe7565b600080600061170a84613335565b9092509050600082600381111561171d57fe5b14611412576040805162461bcd60e51b81526020600482015260026024820152610a8760f31b604482015290519081900360640190fd5b60035461010090046001600160a01b0316331461179d576040805162461bcd60e51b8152602060048201526002602482015261543160f01b604482015290519081900360640190fd5b6009541580156117ad5750600a54155b6117e3576040805162461bcd60e51b81526020600482015260026024820152612a1960f11b604482015290519081900360640190fd5b60078490558361181f576040805162461bcd60e51b8152602060048201526002602482015261543360f01b604482015290519081900360640190fd5b600061182a876112de565b90508015611864576040805162461bcd60e51b8152602060048201526002602482015261150d60f21b604482015290519081900360640190fd5b61186c6133e9565b600955670de0b6b3a7640000600a55611884866133ed565b905080156118be576040805162461bcd60e51b8152602060048201526002602482015261543560f01b604482015290519081900360640190fd5b83516118d1906001906020870190615a3e565b5082516118e5906002906020860190615a3e565b50506003805460ff90921660ff199283161790556000805490911660011790555050505050565b6000806119176133e9565b60095490915080821415611930576000925050506111a6565b600061193a612f93565b600b54600c54600a54600654604080516315f2405360e01b815260048101879052602481018690526044810185905290519596509394929391926000926001600160a01b03909216916315f24053916064808301926020929190829003018186803b1580156119a857600080fd5b505afa1580156119bc573d6000803e3d6000fd5b505050506040513d60208110156119d257600080fd5b5051905065048c27395000811115611a17576040805162461bcd60e51b815260206004820152600360248201526205431360ec1b604482015290519081900360640190fd5b600080611a248989613548565b90925090506000826003811115611a3757fe5b14611a6f576040805162461bcd60e51b815260206004820152600360248201526254313160e81b604482015290519081900360640190fd5b611a77615a2b565b600080600080611a9560405180602001604052808a8152508761356b565b90975094506000876003811115611aa857fe5b14611ada57611ac560096006896003811115611ac057fe5b6135d3565b9e5050505050505050505050505050506111a6565b611ae4858c612f40565b90975093506000876003811115611af757fe5b14611b0f57611ac560096001896003811115611ac057fe5b611b19848c613639565b90975092506000876003811115611b2c57fe5b14611b4457611ac560096004896003811115611ac057fe5b611b5f6040518060200160405280600854815250858c61365f565b90975091506000876003811115611b7257fe5b14611b8a57611ac560096005896003811115611ac057fe5b600660009054906101000a90046001600160a01b03166001600160a01b031663e36c26e46040518163ffffffff1660e01b815260040160206040518083038186803b158015611bd857600080fd5b505afa158015611bec573d6000803e3d6000fd5b505050506040513d6020811015611c0257600080fd5b505115611c4157611c16888d8d8d886136bb565b90975091506000876003811115611c2957fe5b14611c4157611ac560096005896003811115611ac057fe5b611c4c858a8b61365f565b90975090506000876003811115611c5f57fe5b14611c7757611ac560096003896003811115611ac057fe5b60098e9055600a819055600b839055600c829055604080518d8152602081018690528082018390526060810185905290517f4dec04e750ca11537cabcd8a9eab06494de08da3735bc8871cd41250e190bc049181900360800190a160009e50505050505050505050505050505090565b6000805460ff16611d25576040805162461bcd60e51b81526020600482015260036024820152622a191b60e91b604482015290519081900360640190fd5b6000805460ff19168155611d3b33338686612cb2565b1490506000805460ff1916600117905592915050565b600a5481565b6000611d64833484613930565b509050611d9f81604051806040016040528060168152602001751b1a5c5d5a59185d19509bdc9c9bddc819985a5b195960521b815250610d62565b505050565b6006546000906001600160a01b031663b8168816611dc0612f93565b600b54600c546008546040518563ffffffff1660e01b81526004018085815260200184815260200183815260200182815260200194505050505060206040518083038186803b158015611e1257600080fd5b505afa158015611e26573d6000803e3d6000fd5b505050506040513d6020811015611e3c57600080fd5b5051905090565b6000805460ff16611e81576040805162461bcd60e51b81526020600482015260036024820152622a191b60e91b604482015290519081900360640190fd5b6000805460ff19169055611e9733858585613a5b565b90506000805460ff191660011790559392505050565b60035460009061010090046001600160a01b03163314611ed3576113046001604561247b565b600480546001600160a01b038481166001600160a01b0319831681179093556040805191909216808252602082019390935281517fca4f2f25d0898edd99413412fb94012f9e54ec8142f9b093e7720646a95b16a9929181900390910190a16000611412565b6000805460ff16611f77576040805162461bcd60e51b81526020600482015260036024820152622a191b60e91b604482015290519081900360640190fd5b6000805460ff19168155611f8961190c565b14611fc0576040805162461bcd60e51b8152602060048201526002602482015261543760f01b604482015290519081900360640190fd5b611fc861114b565b90506000805460ff1916600117905590565b6001600160a01b031660009081526011602052604090205490565b6001600160a01b0381166000908152600f602052604081205481908190819081808061202089613335565b93509050600081600381111561203257fe5b146120505760095b9750600096508695508594506120839350505050565b612058612b1a565b92509050600081600381111561206a57fe5b1461207657600961203a565b5060009650919450925090505b9193509193565b600061105682613c37565b600061105682613caf565b6001600160a01b03918216600090815260106020908152604080832093909416825291909152205490565b60006120d78234613d22565b509050610f5e816040518060400160405280601881526020017f7265706179426f72726f77426568616c66206661696c65640000000000000000815250610d62565b6004546000906001600160a01b031633141580612134575033155b1561214c576121456001600061247b565b90506111a6565b60038054600480546001600160a01b03818116610100818102610100600160a81b0319871617968790556001600160a01b031990931690935560408051948390048216808652929095041660208401528351909391927ff9ffabca9c8276e99321725bcb43fb076a6c66a54b7f21c4e8146d8519b417dc92908290030190a1600454604080516001600160a01b038085168252909216602083015280517fca4f2f25d0898edd99413412fb94012f9e54ec8142f9b093e7720646a95b16a99281900390910190a160009250505090565b60008061222761190c565b9050801561224d5761224581601081111561223e57fe5b604061247b565b9150506112ca565b611412836133ed565b6006546001600160a01b031681565b60035461010090046001600160a01b031681565b6006546000906001600160a01b03166315f24053612295612f93565b600b54600c546040518463ffffffff1660e01b815260040180848152602001838152602001828152602001935050505060206040518083038186803b158015611e1257600080fd5b6001600160a01b0381166000908152600f602052604081206003810154829182918291829161230a615a2b565b6040518060200160405280838152509050600061232d6009548560020154613548565b915050612338615a2b565b612342838361356b565b91505061234d615a2b565b61236d6040518060200160405280670de0b6b3a764000081525083613dc6565b6001880154909250905061237f615a2b565b506040805160208101909152818152612396615a2b565b6123a08483613e00565b91505060006123b3826000015185613548565b9150506123be615a2b565b82518b546123cc9190613ee9565b9150506000866000015183836000015186600001519f509f509f509f509f50505050505050505050505091939590929450565b6000805460ff1661243d576040805162461bcd60e51b81526020600482015260036024820152622a191b60e91b604482015290519081900360640190fd5b6000805460ff1916815561244f61190c565b9050801561246d5761150f81601081111561246657fe5b604661247b565b61152083613f99565b600181565b60007f45b96fe442630264581b197e84bbada861235052c5a1aadfff9ea4e40a969aa08360108111156124aa57fe5b8360528111156124b657fe5b604080519283526020830191909152600082820152519081900360600190a182601081111561141257fe5b6001600160a01b038216600090815260116020526040812054819015612534576040805162461bcd60e51b81526020600482015260036024820152622a189960e91b604482015290519081900360640190fd5b60055460408051634ef4c3e160e01b81523060048201526001600160a01b0387811660248301526044820187905291516000939290921691634ef4c3e19160648082019260209290919082900301818787803b15801561259357600080fd5b505af11580156125a7573d6000803e3d6000fd5b505050506040513d60208110156125bd57600080fd5b5051905080156125e1576125d46003601f836135d3565b925060009150612b139050565b6125e96133e9565b600954146125fd576125d4600a602261247b565b612605615abc565b61260d612b1a565b604083018190526020830182600381111561262457fe5b600381111561262f57fe5b905250600090508160200151600381111561264657fe5b14612670576126626009602183602001516003811115611ac057fe5b935060009250612b13915050565b608081018590526126818682614041565b61268b86866141c9565b60e08201819052604080516020810182529083015181526126ac9190614265565b60608301819052602083018260038111156126c357fe5b60038111156126ce57fe5b90525060009050816020015160038111156126e557fe5b1461271d576040805162461bcd60e51b815260206004820152600360248201526254313360e81b604482015290519081900360640190fd5b61272d600d548260600151613639565b60a083018190526020830182600381111561274457fe5b600381111561274f57fe5b905250600090508160200151600381111561276657fe5b1461279e576040805162461bcd60e51b8152602060048201526003602482015262150c4d60ea1b604482015290519081900360640190fd5b6001600160a01b0386166000908152600f602052604090205460608201516127c69190613639565b60c08301819052602083018260038111156127dd57fe5b60038111156127e857fe5b90525060009050816020015160038111156127ff57fe5b14612837576040805162461bcd60e51b815260206004820152600360248201526254313560e81b604482015290519081900360640190fd5b6006546000906001600160a01b031663b8168816612853612f93565b600b54600c546008546040518563ffffffff1660e01b81526004018085815260200184815260200183815260200182815260200194505050505060206040518083038186803b1580156128a557600080fd5b505afa1580156128b9573d6000803e3d6000fd5b505050506040513d60208110156128cf57600080fd5b5051600654604080516338db09b960e21b815290519293506000926001600160a01b039092169163e36c26e491600480820192602092909190829003018186803b15801561291c57600080fd5b505afa158015612930573d6000803e3d6000fd5b505050506040513d602081101561294657600080fd5b50516001600160a01b0389166000908152600f602052604090205490915015612a2d57612971615a2b565b811561299d5760006129828a6122dd565b60408051602081019091529081529550612a1c945050505050565b6001600160a01b0389166000908152600f6020908152604080832054815180840183528181528251938401835291880151835292916129dc9190613e00565b9350905060008160038111156129ee57fe5b14612a1957612a0660096020836003811115611ac057fe5b985060009750612b139650505050505050565b50505b8051612a289089613639565b985050505b60a0830151600d556040805160808101825260c0850151815260208082018a815260095483850190815260608085018881526001600160a01b038f166000818152600f8752889020965187559351600187015591516002860155905160039094019390935560e087015192870151845193845291830191909152825190927f4c209b5fc8ad50758f13e2e1088ba56a560dff690a1c6fef26394f4c03821c4f928290030190a2606083015160408051918252516001600160a01b038a16913091600080516020615b468339815191529181900360200190a3505060e00151600093509150505b9250929050565b600d54600090819080612b3557505060075460009150612cae565b6000806000612b42612f93565b9050600660009054906101000a90046001600160a01b03166001600160a01b031663e36c26e46040518163ffffffff1660e01b815260040160206040518083038186803b158015612b9257600080fd5b505afa158015612ba6573d6000803e3d6000fd5b505050506040513d6020811015612bbc57600080fd5b505115612c0657612bcc3361427c565b90935091506000836003811115612bdf57fe5b1415612bf45750600094509250612cae915050565b60006007549550955050505050612cae565b600654600b54600c54600d5460408051639dc8bea760e01b81526004810187905260248101949094526044840192909252606483015280516001600160a01b0390931692639dc8bea7926084808201939291829003018186803b158015612c6c57600080fd5b505afa158015612c80573d6000803e3d6000fd5b505050506040513d6040811015612c9657600080fd5b5080516020909101519096509450612cae9350505050565b9091565b600554604080516317b9b84b60e31b81523060048201526001600160a01b03868116602483015285811660448301526064820185905291516000938493169163bdcdc25891608480830192602092919082900301818787803b158015612d1757600080fd5b505af1158015612d2b573d6000803e3d6000fd5b505050506040513d6020811015612d4157600080fd5b505190508015612d6057612d586003604a836135d3565b915050612f38565b836001600160a01b0316856001600160a01b03161415612d8657612d586002604b61247b565b60006001600160a01b038781169087161415612da55750600019612dcd565b506001600160a01b038086166000908152601060209081526040808320938a16835292905220545b600080600080612ddd8589613548565b90945092506000846003811115612df057fe5b14612e0e57612e016009604b61247b565b9650505050505050612f38565b6001600160a01b038a166000908152600f6020526040902054612e319089613548565b90945091506000846003811115612e4457fe5b14612e5557612e016009604c61247b565b6001600160a01b0389166000908152600f6020526040902054612e789089613639565b90945090506000846003811115612e8b57fe5b14612e9c57612e016009604d61247b565b6001600160a01b03808b166000908152600f6020526040808220859055918b168152208190556000198514612ef4576001600160a01b03808b166000908152601060209081526040808320938f168352929052208390555b886001600160a01b03168a6001600160a01b0316600080516020615b468339815191528a6040518082815260200191505060405180910390a3600096505050505050505b949350505050565b6000806000612f4d615a2b565b612f57868661356b565b90925090506000826003811115612f6a57fe5b14612f7b5750915060009050612b13565b6000612f868261435e565b9350935050509250929050565b6000806000612fa24734613548565b91509150600660009054906101000a90046001600160a01b03166001600160a01b031663e36c26e46040518163ffffffff1660e01b815260040160206040518083038186803b158015612ff457600080fd5b505afa158015613008573d6000803e3d6000fd5b505050506040513d602081101561301e57600080fd5b5051156130375761303181600e54613548565b90925090505b600082600381111561304557fe5b146111a2576040805162461bcd60e51b815260206004820152600a60248201526926b0ba341032b93937b960b11b604482015290519081900360640190fd5b60008054819060ff166130c4576040805162461bcd60e51b81526020600482015260036024820152622a191b60e91b604482015290519081900360640190fd5b6000805460ff191681556130d661190c565b905080156130f457610d318160108111156130ed57fe5b603661247b565b610d4833338661436d565b600354600090819061010090046001600160a01b03163314613127576122456001603161247b565b61312f6133e9565b6009541461314357612245600a603361247b565b8261314c612f93565b101561315e57612245600e603261247b565b600c54831115613174576122456002603461247b565b50600c54828103908111156131b6576040805162461bcd60e51b815260206004820152600360248201526254323560e81b604482015290519081900360640190fd5b600c8190556003546131d69061010090046001600160a01b0316846146b7565b600354604080516101009092046001600160a01b0316825260208201859052818101839052517f3bad0c59cf2f06e7314077049f48a93578cd16f5ef92329f1dab1420a99c177e916060908290030190a16000611412565b6000805460ff1661326c576040805162461bcd60e51b81526020600482015260036024820152622a191b60e91b604482015290519081900360640190fd5b6000805460ff1916815561327e61190c565b9050801561329c5761150f81601081111561329557fe5b605161247b565b6132a5836146ed565b509150506000805460ff19166001179055919050565b6000805460ff166132f9576040805162461bcd60e51b81526020600482015260036024820152622a191b60e91b604482015290519081900360640190fd5b6000805460ff1916815561330b61190c565b905080156133295761150f81601081111561332257fe5b602761247b565b611520336000856147bb565b6001600160a01b03811660009081526011602052604081208054829182918291829161336c5750600094508493506133e492505050565b61337c8160000154600a54615167565b9094509250600084600381111561338f57fe5b146133a45750919350600092506133e4915050565b6133b28382600101546151a6565b909450915060008460038111156133c557fe5b146133da5750919350600092506133e4915050565b5060009450925050505b915091565b4390565b600354600090819061010090046001600160a01b03163314613415576122456001604261247b565b61341d6133e9565b6009541461343157612245600a604161247b565b600660009054906101000a90046001600160a01b03169050826001600160a01b0316632191f92a6040518163ffffffff1660e01b815260040160206040518083038186803b15801561348257600080fd5b505afa158015613496573d6000803e3d6000fd5b505050506040513d60208110156134ac57600080fd5b50516134e5576040805162461bcd60e51b81526020600482015260036024820152622a191960e91b604482015290519081900360640190fd5b600680546001600160a01b0319166001600160a01b03858116918217909255604080519284168352602083019190915280517fedffc32e068c7c95dfd4bdfd5c4d939a084d6b11c4199eac8436ed234d72f9269281900390910190a16000611412565b60008083831161355f575060009050818303612b13565b50600390506000612b13565b6000613575615a2b565b600080613586866000015186615167565b9092509050600082600381111561359957fe5b146135b857506040805160208101909152600081529092509050612b13565b60408051602081019091529081526000969095509350505050565b60007f45b96fe442630264581b197e84bbada861235052c5a1aadfff9ea4e40a969aa084601081111561360257fe5b84605281111561360e57fe5b604080519283526020830191909152818101859052519081900360600190a1836010811115612f3857fe5b60008083830184811061365157600092509050612b13565b506002915060009050612b13565b600080600061366c615a2b565b613676878761356b565b9092509050600082600381111561368957fe5b1461369a57509150600090506136b3565b6136ac6136a68261435e565b86613639565b9350935050505b935093915050565b60065460408051630dce3c5b60e31b815260048101879052602481018690526044810185905290516000928392839283926001600160a01b031691636e71e2d8916064808301926020929190829003018186803b15801561371b57600080fd5b505afa15801561372f573d6000803e3d6000fd5b505050506040513d602081101561374557600080fd5b505160065460085460408051635c0b440b60e11b8152600481018d9052602481018c9052604481018b90526064810192909252519293506000926001600160a01b039092169163b816881691608480820192602092909190829003018186803b1580156137b157600080fd5b505afa1580156137c5573d6000803e3d6000fd5b505050506040513d60208110156137db57600080fd5b50516006546040805163327a176d60e11b8152600481018d9052602481018c9052604481018b905290519293506001600160a01b03909116916364f42eda91606480820192602092909190829003018186803b15801561383a57600080fd5b505afa15801561384e573d6000803e3d6000fd5b505050506040513d602081101561386457600080fd5b50511561391a576138836040518060200160405280848152508b612f40565b9095509250600085600381111561389657fe5b146138a8575060009250613926915050565b6138b28382613548565b909550925060008560038111156138c557fe5b146138d7575060009250613926915050565b6138f0604051806020016040528085815250878961365f565b9095509350600085600381111561390357fe5b14613915575060009250613926915050565b613922565b600094508693505b5050505b9550959350505050565b60008054819060ff16613970576040805162461bcd60e51b81526020600482015260036024820152622a191b60e91b604482015290519081900360640190fd5b6000805460ff1916815561398261190c565b905080156139ad576139a081601081111561399957fe5b600f61247b565b925060009150613a449050565b836001600160a01b031663a6afed956040518163ffffffff1660e01b8152600401602060405180830381600087803b1580156139e857600080fd5b505af11580156139fc573d6000803e3d6000fd5b505050506040513d6020811015613a1257600080fd5b505190508015613a32576139a0816010811115613a2b57fe5b601061247b565b613a3e338787876151d1565b92509250505b6000805460ff191660011790559094909350915050565b6005546040805163d02f735160e01b81523060048201526001600160a01b038781166024830152868116604483015285811660648301526084820185905291516000938493169163d02f73519160a480830192602092919082900301818787803b158015613ac857600080fd5b505af1158015613adc573d6000803e3d6000fd5b505050506040513d6020811015613af257600080fd5b505190508015613b0957612d586003601b836135d3565b846001600160a01b0316846001600160a01b03161415613b2f57612d586006601c61247b565b6001600160a01b0384166000908152600f602052604081205481908190613b569087613548565b90935091506000836003811115613b6957fe5b14613b8c57613b816009601a856003811115611ac057fe5b945050505050612f38565b6001600160a01b0388166000908152600f6020526040902054613baf9087613639565b90935090506000836003811115613bc257fe5b14613bda57613b8160096019856003811115611ac057fe5b6001600160a01b038088166000818152600f60209081526040808320879055938c168083529184902085905583518a815293519193600080516020615b46833981519152929081900390910190a360009998505050505050505050565b6000805460ff16613c75576040805162461bcd60e51b81526020600482015260036024820152622a191b60e91b604482015290519081900360640190fd5b6000805460ff19168155613c8761190c565b90508015613ca55761150f816010811115613c9e57fe5b600861247b565b6115203384615698565b6000805460ff16613ced576040805162461bcd60e51b81526020600482015260036024820152622a191b60e91b604482015290519081900360640190fd5b6000805460ff19168155613cff61190c565b90508015613d165761150f81601081111561332257fe5b611520338460006147bb565b60008054819060ff16613d62576040805162461bcd60e51b81526020600482015260036024820152622a191b60e91b604482015290519081900360640190fd5b6000805460ff19168155613d7461190c565b90508015613d9f57613d92816010811115613d8b57fe5b603561247b565b925060009150613db09050565b613daa33868661436d565b92509250505b6000805460ff1916600117905590939092509050565b6000613dd0615a2b565b600080613de586600001518660000151613639565b60408051602081019091529081529097909650945050505050565b6000613e0a615a2b565b600080613e1f86600001518660000151615167565b90925090506000826003811115613e3257fe5b14613e5157506040805160208101909152600081529092509050612b13565b600080613e666706f05b59d3b2000084613639565b90925090506000826003811115613e7957fe5b14613e9b57506040805160208101909152600081529094509250612b13915050565b600080613eb083670de0b6b3a76400006151a6565b90925090506000826003811115613ec357fe5b14613eca57fe5b604080516020810190915290815260009a909950975050505050505050565b6000613ef3615a2b565b600080613f0886670de0b6b3a7640000615167565b90925090506000826003811115613f1b57fe5b14613f3a57506040805160208101909152600081529092509050612b13565b600080613f4783886151a6565b90925090506000826003811115613f5a57fe5b14613f7c57506040805160208101909152600081529094509250612b13915050565b604080516020810190915290815260009890975095505050505050565b60035460009061010090046001600160a01b03163314613fbf576113046001604761247b565b613fc76133e9565b60095414613fdb57611304600a604861247b565b670de0b6b3a7640000821115613ff7576113046002604961247b565b6008805490839055604080518281526020810185905281517faaa68312e2ea9d50e16af5068410ab56e1a1fd06037b1a35664812c30f821460929181900390910190a16000611412565b600660009054906101000a90046001600160a01b03166001600160a01b031663e36c26e46040518163ffffffff1660e01b815260040160206040518083038186803b15801561408f57600080fd5b505afa1580156140a3573d6000803e3d6000fd5b505050506040513d60208110156140b957600080fd5b505115610f5e576001600160a01b038083166000908152600f60205260408082206012546001820154608087015184516306d3af0d60e51b81526004810192909252602482015292519194169263da75e1a0926044808201939182900301818387803b15801561412857600080fd5b505af115801561413c573d6000803e3d6000fd5b5050601254600d546080860151604080880151815160016235be3960e21b03198152600481019490945260248401929092526044830191909152516001600160a01b03909216935063ff29071c925060648082019260009290919082900301818387803b1580156141ac57600080fd5b505af11580156141c0573d6000803e3d6000fd5b50505050505050565b6000336001600160a01b0384161461421a576040805162461bcd60e51b815260206004820152600f60248201526e0e6cadcc8cae440dad2e6dac2e8c6d608b1b604482015290519081900360640190fd5b81341461425f576040805162461bcd60e51b815260206004820152600e60248201526d0ecc2d8eaca40dad2e6dac2e8c6d60931b604482015290519081900360640190fd5b50919050565b6000806000614272615a2b565b612f578686615930565b600080600d54600014156142975750506007546000906133e4565b6001600160a01b0383166000908152600f6020526040902060028101546142c6575060019150600090506133e4565b80546142da575050600754600091506133e4565b60006142e5856122dd565b5050509150506142f3615a2b565b506040805160208101909152818152600183015461430f615a2b565b506040805160208101909152818152614326615a2b565b6143308483613e00565b91505061433b615a2b565b815187546143499190613ee9565b5160009a5098506133e4975050505050505050565b51670de0b6b3a7640000900490565b60055460408051631200453160e11b81523060048201526001600160a01b0386811660248301528581166044830152606482018590529151600093849384939116916324008a629160848082019260209290919082900301818787803b1580156143d657600080fd5b505af11580156143ea573d6000803e3d6000fd5b505050506040513d602081101561440057600080fd5b5051905080156144245761441760036038836135d3565b9250600091506136b39050565b61442c6133e9565b6009541461444057614417600a603961247b565b614448615abc565b6001600160a01b038616600090815260116020526040902060010154606082015261447286613335565b608083018190526020830182600381111561448957fe5b600381111561449457fe5b90525060009050816020015160038111156144ab57fe5b146144d5576144c76009603783602001516003811115611ac057fe5b9350600092506136b3915050565b600019851415614502576080810151604082018190526144f8908890600161598f565b60e0820152614519565b6040810185905261451387866141c9565b60e08201525b61452b81608001518260e00151613548565b60a083018190526020830182600381111561454257fe5b600381111561454d57fe5b905250600090508160200151600381111561456457fe5b1461459c576040805162461bcd60e51b815260206004820152600360248201526254313760e81b604482015290519081900360640190fd5b6145ac600b548260e00151613548565b60c08301819052602083018260038111156145c357fe5b60038111156145ce57fe5b90525060009050816020015160038111156145e557fe5b1461461d576040805162461bcd60e51b81526020600482015260036024820152620a862760eb1b604482015290519081900360640190fd5b60a0810180516001600160a01b03808916600081815260116020908152604091829020948555600a5460019095019490945560c0860151600b81905560e087015195518251968752948601949094528481019390935291519192908a16917f1a2a22cb034d26d1854bdc6666a5b91fe25efbbb5dcad3b0355478d6f5c362a19181900360600190a360e00151600097909650945050505050565b6040516001600160a01b0383169082156108fc029083906000818181858888f19350505050158015611d9f573d6000803e3d6000fd5b6000806000806146fb6133e9565b6009541461471a5761470f600a605261247b565b935091506133e49050565b61472433866141c9565b905080600e54019150600e5482101561476a576040805162461bcd60e51b8152602060048201526003602482015262150c8d60ea1b604482015290519081900360640190fd5b600e829055604080513381526020810183905280820184905290517f3b1f8ad9af3f4b191c8118fa7e5ff5c809518c2c9c8b091de2378057f646bbe29181900360600190a160009350915050915091565b60008215806147c8575081155b6147ff576040805162461bcd60e51b81526020600482015260036024820152622a189b60e91b604482015290519081900360640190fd5b614807615abc565b6001600160a01b0385166000908152600f60205260409020614827612b1a565b604084018190526020840182600381111561483e57fe5b600381111561484957fe5b905250600090508260200151600381111561486057fe5b146148855761487c6009602b84602001516003811115611ac057fe5b92505050611412565b6000806000806000600660009054906101000a90046001600160a01b03166001600160a01b031663e36c26e46040518163ffffffff1660e01b815260040160206040518083038186803b1580156148db57600080fd5b505afa1580156148ef573d6000803e3d6000fd5b505050506040513d602081101561490557600080fd5b50519050801561492c576149188b6122dd565b60018b018190559198509095508594505050505b6006546001600160a01b031663b8168816614945612f93565b600b54600c546008546040518563ffffffff1660e01b81526004018085815260200184815260200183815260200182815260200194505050505060206040518083038186803b15801561499757600080fd5b505afa1580156149ab573d6000803e3d6000fd5b505050506040513d60208110156149c157600080fd5b50516003870155808015614a5f57506006546001600160a01b03166364f42eda6149e9612f93565b600b54600c546040518463ffffffff1660e01b815260040180848152602001838152602001828152602001935050505060206040518083038186803b158015614a3157600080fd5b505afa158015614a45573d6000803e3d6000fd5b505050506040513d6020811015614a5b57600080fd5b5051155b15614be5576006546000906001600160a01b03166315f24053614a80612f93565b600b54600c546040518463ffffffff1660e01b815260040180848152602001838152602001828152602001935050505060206040518083038186803b158015614ac857600080fd5b505afa158015614adc573d6000803e3d6000fd5b505050506040513d6020811015614af257600080fd5b50516006549091506000906001600160a01b0316636e71e2d8614b13612f93565b600b54600c546040518463ffffffff1660e01b815260040180848152602001838152602001828152602001935050505060206040518083038186803b158015614b5b57600080fd5b505afa158015614b6f573d6000803e3d6000fd5b505050506040513d6020811015614b8557600080fd5b50516040805160208101909152838152909150600090614ba59083612f40565b915050614bb6896003015482613548565b9750614bc29050615a2b565b614bd0888b60030154613ee9565b915050614bdd818a612f40565b985050505050505b600019891415614c1b57604080516020810182529088015181528654614c0b9190612f40565b608089018190529950614c239050565b608087018990525b8915614d1057606087018a90528015614c8c5785548a1415614c4e5760018601546080880152614c87565b614c56615a2b565b614c648860600151846159e8565b915050614c6f615a2b565b81518854614c7d9190613ee9565b5160808b01525050505b614d0b565b614ca8604051806020016040528089604001518152508b612f40565b6080890181905260208901826003811115614cbf57fe5b6003811115614cca57fe5b9052506000905087602001516003811115614ce157fe5b14614d0b57614cfd6009602989602001516003811115611ac057fe5b975050505050505050611412565b614dce565b608087018990528015614d5d57614d25615a2b565b614d37886080015188600001546159e8565b915050614d42615a2b565b8151614d4e9085613ee9565b5160608b015250614dce915050565b614d798960405180602001604052808a60400151815250614265565b6060890181905260208901826003811115614d9057fe5b6003811115614d9b57fe5b9052506000905087602001516003811115614db257fe5b14614dce57614cfd6009602a89602001516003811115611ac057fe5b60055460608801516040805163eabe7d9160e01b81523060048201526001600160a01b038f8116602483015260448201939093529051600093929092169163eabe7d919160648082019260209290919082900301818787803b158015614e3357600080fd5b505af1158015614e47573d6000803e3d6000fd5b505050506040513d6020811015614e5d57600080fd5b505190508015614e8357614e7460036028836135d3565b98505050505050505050611412565b614e8b6133e9565b60095414614e9f57614e74600a602c61247b565b614eaf600d548960600151613548565b60a08a0181905260208a01826003811115614ec657fe5b6003811115614ed157fe5b9052506000905088602001516003811115614ee857fe5b14614f0457614e746009602e8a602001516003811115611ac057fe5b614f10600e5486613548565b60e08a01525086546060890151614f279190613548565b60c08a0181905260208a01826003811115614f3e57fe5b6003811115614f4957fe5b9052506000905088602001516003811115614f6057fe5b14614f7c57614e746009602d8a602001516003811115611ac057fe5b6000614f86612f93565b90508215614f915750475b8860800151811015614fb957614fa9600e602f61247b565b9950505050505050505050611412565b614fc78d8a608001516146b7565b60a0890151600d5560e0890151600e5560c089015188556009546002890155600188015460808a0151614ffa9190613548565b9050886001016000829190505550306001600160a01b03168d6001600160a01b0316600080516020615b468339815191528b606001516040518082815260200191505060405180910390a38c6001600160a01b03167fe5b754fb1abb7f01b499791d0b820ae3b6af3424ac1c59768edb53f4ec31a9298a608001518b60600151604051808381526020018281526020019250505060405180910390a2600560009054906101000a90046001600160a01b03166001600160a01b03166351dff989308f8c608001518d606001516040518563ffffffff1660e01b815260040180856001600160a01b03166001600160a01b03168152602001846001600160a01b03166001600160a01b03168152602001838152602001828152602001945050505050600060405180830381600087803b15801561513557600080fd5b505af1158015615149573d6000803e3d6000fd5b5060009250615156915050565b9d9c50505050505050505050505050565b6000808361517a57506000905080612b13565b8383028385828161518757fe5b041461519b57506002915060009050612b13565b600092509050612b13565b600080826151ba5750600190506000612b13565b60008385816151c557fe5b04915091509250929050565b60055460408051632fe3f38f60e11b81523060048201526001600160a01b0384811660248301528781166044830152868116606483015260848201869052915160009384938493911691635fc7e71e9160a48082019260209290919082900301818787803b15801561524257600080fd5b505af1158015615256573d6000803e3d6000fd5b505050506040513d602081101561526c57600080fd5b5051905080156152905761528360036012836135d3565b92506000915061568f9050565b6152986133e9565b600954146152ac57615283600a601661247b565b6152b46133e9565b846001600160a01b0316636c540baf6040518163ffffffff1660e01b815260040160206040518083038186803b1580156152ed57600080fd5b505afa158015615301573d6000803e3d6000fd5b505050506040513d602081101561531757600080fd5b50511461532a57615283600a601161247b565b866001600160a01b0316866001600160a01b03161415615350576152836006601761247b565b84615361576152836007601561247b565b600019851415615377576152836007601461247b565b60008061538589898961436d565b909250905081156153b5576153a682601081111561539f57fe5b601861247b565b94506000935061568f92505050565b6005546040805163c488847b60e01b81523060048201526001600160a01b038981166024830152604482018590528251600094859492169263c488847b926064808301939192829003018186803b15801561540f57600080fd5b505afa158015615423573d6000803e3d6000fd5b505050506040513d604081101561543957600080fd5b50805160209091015190925090508115615480576040805162461bcd60e51b815260206004820152600360248201526254313960e81b604482015290519081900360640190fd5b80886001600160a01b03166370a082318c6040518263ffffffff1660e01b815260040180826001600160a01b03166001600160a01b0316815260200191505060206040518083038186803b1580156154d757600080fd5b505afa1580156154eb573d6000803e3d6000fd5b505050506040513d602081101561550157600080fd5b5051101561553c576040805162461bcd60e51b815260206004820152600360248201526205432360ec1b604482015290519081900360640190fd5b60006001600160a01b0389163014156155625761555b308d8d85613a5b565b90506155ec565b6040805163b2a02ff160e01b81526001600160a01b038e811660048301528d81166024830152604482018590529151918b169163b2a02ff1916064808201926020929091908290030181600087803b1580156155bd57600080fd5b505af11580156155d1573d6000803e3d6000fd5b505050506040513d60208110156155e757600080fd5b505190505b8015615625576040805162461bcd60e51b815260206004820152600360248201526254323160e81b604482015290519081900360640190fd5b886001600160a01b03168b6001600160a01b03168d6001600160a01b03167f298637f684da70674f26509b10f07ec2fbc77a335ab1e7d6215a4b2484d8bb528786604051808381526020018281526020019250505060405180910390a46000975092955050505050505b94509492505050565b6005546040805163368f515360e21b81523060048201526001600160a01b0385811660248301526044820185905291516000938493169163da3d454c91606480830192602092919082900301818787803b1580156156f557600080fd5b505af1158015615709573d6000803e3d6000fd5b505050506040513d602081101561571f57600080fd5b50519050801561573e576157366003600e836135d3565b915050611056565b6157466133e9565b6009541461575957615736600a8061247b565b82615762612f93565b101561577457615736600e600961247b565b61577c615b02565b61578585613335565b602083018190528282600381111561579957fe5b60038111156157a457fe5b90525060009050815160038111156157b857fe5b146157dd576157d46009600783600001516003811115611ac057fe5b92505050611056565b6157eb816020015185613639565b60408301819052828260038111156157ff57fe5b600381111561580a57fe5b905250600090508151600381111561581e57fe5b1461583a576157d46009600c83600001516003811115611ac057fe5b615846600b5485613639565b606083018190528282600381111561585a57fe5b600381111561586557fe5b905250600090508151600381111561587957fe5b14615895576157d46009600b83600001516003811115611ac057fe5b61589f8582615a23565b90506158ab85856146b7565b604080820180516001600160a01b03881660008181526011602090815290859020928355600a54600190930192909255606080860151600b819055935185518a8152938401528285019390935292517f13ed6866d4e1ee6da46f845c46d7e54120883d75c5ea9a2dacc1c4ca8984ab80929181900390910190a2600095945050505050565b600061593a615a2b565b60008061594f670de0b6b3a764000087615167565b9092509050600082600381111561596257fe5b1461598157506040805160208101909152600081529092509050612b13565b612f86818660000151613ee9565b6000336001600160a01b038516146159e0576040805162461bcd60e51b815260206004820152600f60248201526e0e6cadcc8cae440dad2e6dac2e8c6d608b1b604482015290519081900360640190fd5b509092915050565b60006159f2615a2b565b615a18604051806020016040528086815250604051806020016040528086815250613e00565b915091509250929050565b61425f615b02565b6040518060200160405280600081525090565b828054600181600116156101000203166002900490600052602060002090601f016020900481019282601f10615a7f57805160ff1916838001178555615aac565b82800160010185558215615aac579182015b82811115615aac578251825591602001919060010190615a91565b50615ab8929150615b2b565b5090565b6040805161010081019091528060008152602001600081526020016000815260200160008152602001600081526020016000815260200160008152602001600081525090565b604080516080810190915280600081526020016000815260200160008152602001600081525090565b6111a691905b80821115615ab85760008155600101615b3156feddf252ad1be2c89b69c2b068fc378daa952ba7f163c4a11628f55a4df523b3efa265627a7a72315820a09d4270163a2a7da6fe3e4ea6155e92d6212f7a19bbe3c16e70edc651d069db64736f6c63430005100032",
  "linkReferences": {},
  "deployedLinkReferences": {}
}