{
  "_format": "hh-sol-artifact-1",
  "contractName": "CRBTC",
  "sourceName": "contracts/CRBTC.sol",
  "abi": [
    {
      "inputs": [
        {
          "internalType": "contract ComptrollerInterface",
          "name": "comptroller_",
          "type": "address"
        },
        {
          "internalType": "contract InterestRateModel",
          "name": "interestRateModel_",
          "type": "address"
        },
        {
          "internalType": "uint256",
          "name": "initialExchangeRateMantissa_",
          "type": "uint256"
        },
        {
          "internalType": "string",
          "name": "name_",
          "type": "string"
        },
        {
          "internalType": "string",
          "name": "symbol_",
          "type": "string"
        },
        {
          "internalType": "uint8",
          "name": "decimals_",
          "type": "uint8"
        },
        {
          "internalType": "address payable",
          "name": "admin_",
          "type": "address"
        }
      ],
      "payable": false,
      "stateMutability": "nonpayable",
      "type": "constructor"
    },
    {
      "anonymous": false,
      "inputs": [
        {
          "indexed": false,
          "internalType": "uint256",
          "name": "cashPrior",
          "type": "uint256"
        },
        {
          "indexed": false,
          "internalType": "uint256",
          "name": "interestAccumulated",
          "type": "uint256"
        },
        {
          "indexed": false,
          "internalType": "uint256",
          "name": "borrowIndex",
          "type": "uint256"
        },
        {
          "indexed": false,
          "internalType": "uint256",
          "name": "totalBorrows",
          "type": "uint256"
        }
      ],
      "name": "AccrueInterest",
      "type": "event"
    },
    {
      "anonymous": false,
      "inputs": [
        {
          "indexed": true,
          "internalType": "address",
          "name": "owner",
          "type": "address"
        },
        {
          "indexed": true,
          "internalType": "address",
          "name": "spender",
          "type": "address"
        },
        {
          "indexed": false,
          "internalType": "uint256",
          "name": "amount",
          "type": "uint256"
        }
      ],
      "name": "Approval",
      "type": "event"
    },
    {
      "anonymous": false,
      "inputs": [
        {
          "indexed": true,
          "internalType": "address",
          "name": "borrower",
          "type": "address"
        },
        {
          "indexed": false,
          "internalType": "uint256",
          "name": "borrowAmount",
          "type": "uint256"
        },
        {
          "indexed": false,
          "internalType": "uint256",
          "name": "accountBorrows",
          "type": "uint256"
        },
        {
          "indexed": false,
          "internalType": "uint256",
          "name": "totalBorrows",
          "type": "uint256"
        }
      ],
      "name": "Borrow",
      "type": "event"
    },
    {
      "anonymous": false,
      "inputs": [
        {
          "indexed": false,
          "internalType": "uint256",
          "name": "error",
          "type": "uint256"
        },
        {
          "indexed": false,
          "internalType": "uint256",
          "name": "info",
          "type": "uint256"
        },
        {
          "indexed": false,
          "internalType": "uint256",
          "name": "detail",
          "type": "uint256"
        }
      ],
      "name": "Failure",
      "type": "event"
    },
    {
      "anonymous": false,
      "inputs": [
        {
          "indexed": true,
          "internalType": "address",
          "name": "liquidator",
          "type": "address"
        },
        {
          "indexed": true,
          "internalType": "address",
          "name": "borrower",
          "type": "address"
        },
        {
          "indexed": false,
          "internalType": "uint256",
          "name": "repayAmount",
          "type": "uint256"
        },
        {
          "indexed": true,
          "internalType": "address",
          "name": "cTokenCollateral",
          "type": "address"
        },
        {
          "indexed": false,
          "internalType": "uint256",
          "name": "seizeTokens",
          "type": "uint256"
        }
      ],
      "name": "LiquidateBorrow",
      "type": "event"
    },
    {
      "anonymous": false,
      "inputs": [
        {
          "indexed": true,
          "internalType": "address",
          "name": "minter",
          "type": "address"
        },
        {
          "indexed": false,
          "internalType": "uint256",
          "name": "mintAmount",
          "type": "uint256"
        },
        {
          "indexed": false,
          "internalType": "uint256",
          "name": "mintTokens",
          "type": "uint256"
        }
      ],
      "name": "Mint",
      "type": "event"
    },
    {
      "anonymous": false,
      "inputs": [
        {
          "indexed": false,
          "internalType": "address",
          "name": "oldAdmin",
          "type": "address"
        },
        {
          "indexed": false,
          "internalType": "address",
          "name": "newAdmin",
          "type": "address"
        }
      ],
      "name": "NewAdmin",
      "type": "event"
    },
    {
      "anonymous": false,
      "inputs": [
        {
          "indexed": false,
          "internalType": "contract ComptrollerInterface",
          "name": "oldComptroller",
          "type": "address"
        },
        {
          "indexed": false,
          "internalType": "contract ComptrollerInterface",
          "name": "newComptroller",
          "type": "address"
        }
      ],
      "name": "NewComptroller",
      "type": "event"
    },
    {
      "anonymous": false,
      "inputs": [
        {
          "indexed": false,
          "internalType": "contract InterestRateModel",
          "name": "oldInterestRateModel",
          "type": "address"
        },
        {
          "indexed": false,
          "internalType": "contract InterestRateModel",
          "name": "newInterestRateModel",
          "type": "address"
        }
      ],
      "name": "NewMarketInterestRateModel",
      "type": "event"
    },
    {
      "anonymous": false,
      "inputs": [
        {
          "indexed": false,
          "internalType": "address",
          "name": "oldPendingAdmin",
          "type": "address"
        },
        {
          "indexed": false,
          "internalType": "address",
          "name": "newPendingAdmin",
          "type": "address"
        }
      ],
      "name": "NewPendingAdmin",
      "type": "event"
    },
    {
      "anonymous": false,
      "inputs": [
        {
          "indexed": false,
          "internalType": "uint256",
          "name": "oldReserveFactorMantissa",
          "type": "uint256"
        },
        {
          "indexed": false,
          "internalType": "uint256",
          "name": "newReserveFactorMantissa",
          "type": "uint256"
        }
      ],
      "name": "NewReserveFactor",
      "type": "event"
    },
    {
      "anonymous": false,
      "inputs": [
        {
          "indexed": true,
          "internalType": "address",
          "name": "redeemer",
          "type": "address"
        },
        {
          "indexed": false,
          "internalType": "uint256",
          "name": "redeemAmount",
          "type": "uint256"
        },
        {
          "indexed": false,
          "internalType": "uint256",
          "name": "redeemTokens",
          "type": "uint256"
        }
      ],
      "name": "Redeem",
      "type": "event"
    },
    {
      "anonymous": false,
      "inputs": [
        {
          "indexed": true,
          "internalType": "address",
          "name": "payer",
          "type": "address"
        },
        {
          "indexed": true,
          "internalType": "address",
          "name": "borrower",
          "type": "address"
        },
        {
          "indexed": false,
          "internalType": "uint256",
          "name": "repayAmount",
          "type": "uint256"
        },
        {
          "indexed": false,
          "internalType": "uint256",
          "name": "accountBorrows",
          "type": "uint256"
        },
        {
          "indexed": false,
          "internalType": "uint256",
          "name": "totalBorrows",
          "type": "uint256"
        }
      ],
      "name": "RepayBorrow",
      "type": "event"
    },
    {
      "anonymous": false,
      "inputs": [
        {
          "indexed": false,
          "internalType": "address",
          "name": "benefactor",
          "type": "address"
        },
        {
          "indexed": false,
          "internalType": "uint256",
          "name": "addAmount",
          "type": "uint256"
        },
        {
          "indexed": false,
          "internalType": "uint256",
          "name": "newTotalReserves",
          "type": "uint256"
        }
      ],
      "name": "ReservesAdded",
      "type": "event"
    },
    {
      "anonymous": false,
      "inputs": [
        {
          "indexed": false,
          "internalType": "address",
          "name": "admin",
          "type": "address"
        },
        {
          "indexed": false,
          "internalType": "uint256",
          "name": "reduceAmount",
          "type": "uint256"
        },
        {
          "indexed": false,
          "internalType": "uint256",
          "name": "newTotalReserves",
          "type": "uint256"
        }
      ],
      "name": "ReservesReduced",
      "type": "event"
    },
    {
      "anonymous": false,
      "inputs": [
        {
          "indexed": false,
          "internalType": "address",
          "name": "benefactor",
          "type": "address"
        },
        {
          "indexed": false,
          "internalType": "uint256",
          "name": "addAmount",
          "type": "uint256"
        },
        {
          "indexed": false,
          "internalType": "uint256",
          "name": "newSubsidyFund",
          "type": "uint256"
        }
      ],
      "name": "SubsidyAdded",
      "type": "event"
    },
    {
      "anonymous": false,
      "inputs": [
        {
          "indexed": true,
          "internalType": "address",
          "name": "from",
          "type": "address"
        },
        {
          "indexed": true,
          "internalType": "address",
          "name": "to",
          "type": "address"
        },
        {
          "indexed": false,
          "internalType": "uint256",
          "name": "amount",
          "type": "uint256"
        }
      ],
      "name": "Transfer",
      "type": "event"
    },
    {
      "payable": true,
      "stateMutability": "payable",
      "type": "fallback"
    },
    {
      "constant": false,
      "inputs": [],
      "name": "_acceptAdmin",
      "outputs": [
        {
          "internalType": "uint256",
          "name": "",
          "type": "uint256"
        }
      ],
      "payable": false,
      "stateMutability": "nonpayable",
      "type": "function"
    },
    {
      "constant": false,
      "inputs": [
        {
          "internalType": "uint256",
          "name": "reduceAmount",
          "type": "uint256"
        }
      ],
      "name": "_reduceReserves",
      "outputs": [
        {
          "internalType": "uint256",
          "name": "",
          "type": "uint256"
        }
      ],
      "payable": false,
      "stateMutability": "nonpayable",
      "type": "function"
    },
    {
      "constant": false,
      "inputs": [
        {
          "internalType": "contract ComptrollerInterface",
          "name": "newComptroller",
          "type": "address"
        }
      ],
      "name": "_setComptroller",
      "outputs": [
        {
          "internalType": "uint256",
          "name": "",
          "type": "uint256"
        }
      ],
      "payable": false,
      "stateMutability": "nonpayable",
      "type": "function"
    },
    {
      "constant": false,
      "inputs": [
        {
          "internalType": "contract InterestRateModel",
          "name": "newInterestRateModel",
          "type": "address"
        }
      ],
      "name": "_setInterestRateModel",
      "outputs": [
        {
          "internalType": "uint256",
          "name": "",
          "type": "uint256"
        }
      ],
      "payable": false,
      "stateMutability": "nonpayable",
      "type": "function"
    },
    {
      "constant": false,
      "inputs": [
        {
          "internalType": "address payable",
          "name": "newPendingAdmin",
          "type": "address"
        }
      ],
      "name": "_setPendingAdmin",
      "outputs": [
        {
          "internalType": "uint256",
          "name": "",
          "type": "uint256"
        }
      ],
      "payable": false,
      "stateMutability": "nonpayable",
      "type": "function"
    },
    {
      "constant": false,
      "inputs": [
        {
          "internalType": "uint256",
          "name": "newReserveFactorMantissa",
          "type": "uint256"
        }
      ],
      "name": "_setReserveFactor",
      "outputs": [
        {
          "internalType": "uint256",
          "name": "",
          "type": "uint256"
        }
      ],
      "payable": false,
      "stateMutability": "nonpayable",
      "type": "function"
    },
    {
      "constant": true,
      "inputs": [],
      "name": "accrualBlockNumber",
      "outputs": [
        {
          "internalType": "uint256",
          "name": "",
          "type": "uint256"
        }
      ],
      "payable": false,
      "stateMutability": "view",
      "type": "function"
    },
    {
      "constant": false,
      "inputs": [],
      "name": "accrueInterest",
      "outputs": [
        {
          "internalType": "uint256",
          "name": "",
          "type": "uint256"
        }
      ],
      "payable": false,
      "stateMutability": "nonpayable",
      "type": "function"
    },
    {
      "constant": false,
      "inputs": [],
      "name": "addSubsidy",
      "outputs": [],
      "payable": true,
      "stateMutability": "payable",
      "type": "function"
    },
    {
      "constant": true,
      "inputs": [],
      "name": "admin",
      "outputs": [
        {
          "internalType": "address payable",
          "name": "",
          "type": "address"
        }
      ],
      "payable": false,
      "stateMutability": "view",
      "type": "function"
    },
    {
      "constant": true,
      "inputs": [
        {
          "internalType": "address",
          "name": "owner",
          "type": "address"
        },
        {
          "internalType": "address",
          "name": "spender",
          "type": "address"
        }
      ],
      "name": "allowance",
      "outputs": [
        {
          "internalType": "uint256",
          "name": "",
          "type": "uint256"
        }
      ],
      "payable": false,
      "stateMutability": "view",
      "type": "function"
    },
    {
      "constant": false,
      "inputs": [
        {
          "internalType": "address",
          "name": "spender",
          "type": "address"
        },
        {
          "internalType": "uint256",
          "name": "amount",
          "type": "uint256"
        }
      ],
      "name": "approve",
      "outputs": [
        {
          "internalType": "bool",
          "name": "",
          "type": "bool"
        }
      ],
      "payable": false,
      "stateMutability": "nonpayable",
      "type": "function"
    },
    {
      "constant": true,
      "inputs": [
        {
          "internalType": "address",
          "name": "owner",
          "type": "address"
        }
      ],
      "name": "balanceOf",
      "outputs": [
        {
          "internalType": "uint256",
          "name": "",
          "type": "uint256"
        }
      ],
      "payable": false,
      "stateMutability": "view",
      "type": "function"
    },
    {
      "constant": false,
      "inputs": [
        {
          "internalType": "address",
          "name": "owner",
          "type": "address"
        }
      ],
      "name": "balanceOfUnderlying",
      "outputs": [
        {
          "internalType": "uint256",
          "name": "",
          "type": "uint256"
        }
      ],
      "payable": false,
      "stateMutability": "nonpayable",
      "type": "function"
    },
    {
      "constant": false,
      "inputs": [
        {
          "internalType": "uint256",
          "name": "borrowAmount",
          "type": "uint256"
        }
      ],
      "name": "borrow",
      "outputs": [
        {
          "internalType": "uint256",
          "name": "",
          "type": "uint256"
        }
      ],
      "payable": false,
      "stateMutability": "nonpayable",
      "type": "function"
    },
    {
      "constant": false,
      "inputs": [
        {
          "internalType": "address",
          "name": "account",
          "type": "address"
        }
      ],
      "name": "borrowBalanceCurrent",
      "outputs": [
        {
          "internalType": "uint256",
          "name": "",
          "type": "uint256"
        }
      ],
      "payable": false,
      "stateMutability": "nonpayable",
      "type": "function"
    },
    {
      "constant": true,
      "inputs": [
        {
          "internalType": "address",
          "name": "account",
          "type": "address"
        }
      ],
      "name": "borrowBalanceStored",
      "outputs": [
        {
          "internalType": "uint256",
          "name": "",
          "type": "uint256"
        }
      ],
      "payable": false,
      "stateMutability": "view",
      "type": "function"
    },
    {
      "constant": true,
      "inputs": [],
      "name": "borrowIndex",
      "outputs": [
        {
          "internalType": "uint256",
          "name": "",
          "type": "uint256"
        }
      ],
      "payable": false,
      "stateMutability": "view",
      "type": "function"
    },
    {
      "constant": true,
      "inputs": [],
      "name": "borrowRatePerBlock",
      "outputs": [
        {
          "internalType": "uint256",
          "name": "",
          "type": "uint256"
        }
      ],
      "payable": false,
      "stateMutability": "view",
      "type": "function"
    },
    {
      "constant": true,
      "inputs": [],
      "name": "comptroller",
      "outputs": [
        {
          "internalType": "contract ComptrollerInterface",
          "name": "",
          "type": "address"
        }
      ],
      "payable": false,
      "stateMutability": "view",
      "type": "function"
    },
    {
      "constant": true,
      "inputs": [],
      "name": "decimals",
      "outputs": [
        {
          "internalType": "uint8",
          "name": "",
          "type": "uint8"
        }
      ],
      "payable": false,
      "stateMutability": "view",
      "type": "function"
    },
    {
      "constant": false,
      "inputs": [],
      "name": "exchangeRateCurrent",
      "outputs": [
        {
          "internalType": "uint256",
          "name": "",
          "type": "uint256"
        }
      ],
      "payable": false,
      "stateMutability": "nonpayable",
      "type": "function"
    },
    {
      "constant": true,
      "inputs": [],
      "name": "exchangeRateStored",
      "outputs": [
        {
          "internalType": "uint256",
          "name": "",
          "type": "uint256"
        }
      ],
      "payable": false,
      "stateMutability": "view",
      "type": "function"
    },
    {
      "constant": true,
      "inputs": [
        {
          "internalType": "address",
          "name": "account",
          "type": "address"
        }
      ],
      "name": "getAccountSnapshot",
      "outputs": [
        {
          "internalType": "uint256",
          "name": "",
          "type": "uint256"
        },
        {
          "internalType": "uint256",
          "name": "",
          "type": "uint256"
        },
        {
          "internalType": "uint256",
          "name": "",
          "type": "uint256"
        },
        {
          "internalType": "uint256",
          "name": "",
          "type": "uint256"
        }
      ],
      "payable": false,
      "stateMutability": "view",
      "type": "function"
    },
    {
      "constant": true,
      "inputs": [
        {
          "internalType": "address",
          "name": "account",
          "type": "address"
        }
      ],
      "name": "getBorrowerPrincipalStored",
      "outputs": [
        {
          "internalType": "uint256",
          "name": "borrowed",
          "type": "uint256"
        }
      ],
      "payable": false,
      "stateMutability": "view",
      "type": "function"
    },
    {
      "constant": true,
      "inputs": [],
      "name": "getCash",
      "outputs": [
        {
          "internalType": "uint256",
          "name": "",
          "type": "uint256"
        }
      ],
      "payable": false,
      "stateMutability": "view",
      "type": "function"
    },
    {
      "constant": true,
      "inputs": [
        {
          "internalType": "address",
          "name": "account",
          "type": "address"
        }
      ],
      "name": "getSupplierSnapshotStored",
      "outputs": [
        {
          "internalType": "uint256",
          "name": "tokens",
          "type": "uint256"
        },
        {
          "internalType": "uint256",
          "name": "underlyingAmount",
          "type": "uint256"
        },
        {
          "internalType": "uint256",
          "name": "suppliedAt",
          "type": "uint256"
        },
        {
          "internalType": "uint256",
          "name": "promisedSupplyRate",
          "type": "uint256"
        }
      ],
      "payable": false,
      "stateMutability": "view",
      "type": "function"
    },
    {
      "constant": true,
      "inputs": [],
      "name": "initialExchangeRateMantissa",
      "outputs": [
        {
          "internalType": "uint256",
          "name": "",
          "type": "uint256"
        }
      ],
      "payable": false,
      "stateMutability": "view",
      "type": "function"
    },
    {
      "constant": false,
      "inputs": [
        {
          "internalType": "contract ComptrollerInterface",
          "name": "comptroller_",
          "type": "address"
        },
        {
          "internalType": "contract InterestRateModel",
          "name": "interestRateModel_",
          "type": "address"
        },
        {
          "internalType": "uint256",
          "name": "initialExchangeRateMantissa_",
          "type": "uint256"
        },
        {
          "internalType": "string",
          "name": "name_",
          "type": "string"
        },
        {
          "internalType": "string",
          "name": "symbol_",
          "type": "string"
        },
        {
          "internalType": "uint8",
          "name": "decimals_",
          "type": "uint8"
        }
      ],
      "name": "initialize",
      "outputs": [],
      "payable": false,
      "stateMutability": "nonpayable",
      "type": "function"
    },
    {
      "constant": true,
      "inputs": [],
      "name": "interestRateModel",
      "outputs": [
        {
          "internalType": "contract InterestRateModel",
          "name": "",
          "type": "address"
        }
      ],
      "payable": false,
      "stateMutability": "view",
      "type": "function"
    },
    {
      "constant": true,
      "inputs": [],
      "name": "isCToken",
      "outputs": [
        {
          "internalType": "bool",
          "name": "",
          "type": "bool"
        }
      ],
      "payable": false,
      "stateMutability": "view",
      "type": "function"
    },
    {
      "constant": false,
      "inputs": [
        {
          "internalType": "address",
          "name": "borrower",
          "type": "address"
        },
        {
          "internalType": "contract CToken",
          "name": "cTokenCollateral",
          "type": "address"
        }
      ],
      "name": "liquidateBorrow",
      "outputs": [],
      "payable": true,
      "stateMutability": "payable",
      "type": "function"
    },
    {
      "constant": false,
      "inputs": [],
      "name": "mint",
      "outputs": [],
      "payable": true,
      "stateMutability": "payable",
      "type": "function"
    },
    {
      "constant": true,
      "inputs": [],
      "name": "name",
      "outputs": [
        {
          "internalType": "string",
          "name": "",
          "type": "string"
        }
      ],
      "payable": false,
      "stateMutability": "view",
      "type": "function"
    },
    {
      "constant": true,
      "inputs": [],
      "name": "pendingAdmin",
      "outputs": [
        {
          "internalType": "address payable",
          "name": "",
          "type": "address"
        }
      ],
      "payable": false,
      "stateMutability": "view",
      "type": "function"
    },
    {
      "constant": false,
      "inputs": [
        {
          "internalType": "uint256",
          "name": "redeemTokens",
          "type": "uint256"
        }
      ],
      "name": "redeem",
      "outputs": [
        {
          "internalType": "uint256",
          "name": "",
          "type": "uint256"
        }
      ],
      "payable": false,
      "stateMutability": "nonpayable",
      "type": "function"
    },
    {
      "constant": false,
      "inputs": [
        {
          "internalType": "uint256",
          "name": "redeemAmount",
          "type": "uint256"
        }
      ],
      "name": "redeemUnderlying",
      "outputs": [
        {
          "internalType": "uint256",
          "name": "",
          "type": "uint256"
        }
      ],
      "payable": false,
      "stateMutability": "nonpayable",
      "type": "function"
    },
    {
      "constant": false,
      "inputs": [],
      "name": "repayBorrow",
      "outputs": [],
      "payable": true,
      "stateMutability": "payable",
      "type": "function"
    },
    {
      "constant": false,
      "inputs": [],
      "name": "repayBorrowAll",
      "outputs": [],
      "payable": true,
      "stateMutability": "payable",
      "type": "function"
    },
    {
      "constant": false,
      "inputs": [
        {
          "internalType": "address",
          "name": "borrower",
          "type": "address"
        }
      ],
      "name": "repayBorrowBehalf",
      "outputs": [],
      "payable": true,
      "stateMutability": "payable",
      "type": "function"
    },
    {
      "constant": true,
      "inputs": [],
      "name": "reserveFactorMantissa",
      "outputs": [
        {
          "internalType": "uint256",
          "name": "",
          "type": "uint256"
        }
      ],
      "payable": false,
      "stateMutability": "view",
      "type": "function"
    },
    {
      "constant": false,
      "inputs": [
        {
          "internalType": "address",
          "name": "liquidator",
          "type": "address"
        },
        {
          "internalType": "address",
          "name": "borrower",
          "type": "address"
        },
        {
          "internalType": "uint256",
          "name": "seizeTokens",
          "type": "uint256"
        }
      ],
      "name": "seize",
      "outputs": [
        {
          "internalType": "uint256",
          "name": "",
          "type": "uint256"
        }
      ],
      "payable": false,
      "stateMutability": "nonpayable",
      "type": "function"
    },
    {
      "constant": false,
      "inputs": [
        {
          "internalType": "address",
          "name": "crbtcCompanion_",
          "type": "address"
        }
      ],
      "name": "setCompanion",
      "outputs": [],
      "payable": false,
      "stateMutability": "nonpayable",
      "type": "function"
    },
    {
      "constant": true,
      "inputs": [],
      "name": "subsidyFund",
      "outputs": [
        {
          "internalType": "uint256",
          "name": "",
          "type": "uint256"
        }
      ],
      "payable": false,
      "stateMutability": "view",
      "type": "function"
    },
    {
      "constant": true,
      "inputs": [],
      "name": "supplyRatePerBlock",
      "outputs": [
        {
          "internalType": "uint256",
          "name": "",
          "type": "uint256"
        }
      ],
      "payable": false,
      "stateMutability": "view",
      "type": "function"
    },
    {
      "constant": true,
      "inputs": [],
      "name": "symbol",
      "outputs": [
        {
          "internalType": "string",
          "name": "",
          "type": "string"
        }
      ],
      "payable": false,
      "stateMutability": "view",
      "type": "function"
    },
    {
      "constant": true,
      "inputs": [],
      "name": "totalBorrows",
      "outputs": [
        {
          "internalType": "uint256",
          "name": "",
          "type": "uint256"
        }
      ],
      "payable": false,
      "stateMutability": "view",
      "type": "function"
    },
    {
      "constant": false,
      "inputs": [],
      "name": "totalBorrowsCurrent",
      "outputs": [
        {
          "internalType": "uint256",
          "name": "",
          "type": "uint256"
        }
      ],
      "payable": false,
      "stateMutability": "nonpayable",
      "type": "function"
    },
    {
      "constant": true,
      "inputs": [],
      "name": "totalReserves",
      "outputs": [
        {
          "internalType": "uint256",
          "name": "",
          "type": "uint256"
        }
      ],
      "payable": false,
      "stateMutability": "view",
      "type": "function"
    },
    {
      "constant": true,
      "inputs": [],
      "name": "totalSupply",
      "outputs": [
        {
          "internalType": "uint256",
          "name": "",
          "type": "uint256"
        }
      ],
      "payable": false,
      "stateMutability": "view",
      "type": "function"
    },
    {
      "constant": false,
      "inputs": [
        {
          "internalType": "address",
          "name": "dst",
          "type": "address"
        },
        {
          "internalType": "uint256",
          "name": "amount",
          "type": "uint256"
        }
      ],
      "name": "transfer",
      "outputs": [
        {
          "internalType": "bool",
          "name": "",
          "type": "bool"
        }
      ],
      "payable": false,
      "stateMutability": "nonpayable",
      "type": "function"
    },
    {
      "constant": false,
      "inputs": [
        {
          "internalType": "address",
          "name": "src",
          "type": "address"
        },
        {
          "internalType": "address",
          "name": "dst",
          "type": "address"
        },
        {
          "internalType": "uint256",
          "name": "amount",
          "type": "uint256"
        }
      ],
      "name": "transferFrom",
      "outputs": [
        {
          "internalType": "bool",
          "name": "",
          "type": "bool"
        }
      ],
      "payable": false,
      "stateMutability": "nonpayable",
      "type": "function"
    },
    {
      "constant": true,
      "inputs": [
        {
          "internalType": "address",
          "name": "account",
          "type": "address"
        }
      ],
      "name": "tropykusInterestAccrued",
      "outputs": [
        {
          "internalType": "enum CarefulMath.MathError",
          "name": "",
          "type": "uint8"
        },
        {
          "internalType": "uint256",
          "name": "",
          "type": "uint256"
        },
        {
          "internalType": "uint256",
          "name": "",
          "type": "uint256"
        },
        {
          "internalType": "uint256",
          "name": "",
          "type": "uint256"
        },
        {
          "internalType": "uint256",
          "name": "",
          "type": "uint256"
        }
      ],
      "payable": false,
      "stateMutability": "view",
      "type": "function"
    }
  ],
  "bytecode": "0x60806040523480156200001157600080fd5b50604051620065ba380380620065ba833981810160405260e08110156200003757600080fd5b8151602083015160408085015160608601805192519496939591949391820192846401000000008211156200006b57600080fd5b9083019060208201858111156200008157600080fd5b82516401000000008111828201881017156200009c57600080fd5b82525081516020918201929091019080838360005b83811015620000cb578181015183820152602001620000b1565b50505050905090810190601f168015620000f95780820380516001836020036101000a031916815260200191505b50604052602001805160405193929190846401000000008211156200011d57600080fd5b9083019060208201858111156200013357600080fd5b82516401000000008111828201881017156200014e57600080fd5b82525081516020918201929091019080838360005b838110156200017d57818101518382015260200162000163565b50505050905090810190601f168015620001ab5780820380516001836020036101000a031916815260200191505b506040908152602082015191015160038054610100600160a81b03191633610100021790559092509050620001e587878787878762000218565b600380546001600160a01b0390921661010002610100600160a81b031990921691909117905550620007ec945050505050565b60035461010090046001600160a01b0316331462000262576040805162461bcd60e51b8152602060048201526002602482015261543160f01b604482015290519081900360640190fd5b600954158015620002735750600a54155b620002aa576040805162461bcd60e51b81526020600482015260026024820152612a1960f11b604482015290519081900360640190fd5b600784905583620002e7576040805162461bcd60e51b8152602060048201526002602482015261543360f01b604482015290519081900360640190fd5b6000620002fd876001600160e01b03620003fb16565b9050801562000338576040805162461bcd60e51b8152602060048201526002602482015261150d60f21b604482015290519081900360640190fd5b6200034b6001600160e01b036200054916565b600955670de0b6b3a7640000600a556200036e866001600160e01b036200054e16565b90508015620003a9576040805162461bcd60e51b8152602060048201526002602482015261543560f01b604482015290519081900360640190fd5b8351620003be9060019060208701906200074a565b508251620003d49060029060208601906200074a565b50506003805460ff90921660ff199283161790556000805490911660011790555050505050565b60035460009061010090046001600160a01b0316331462000435576200042d6001603f6001600160e01b03620006da16565b905062000544565b60055460408051623f1ee960e11b815290516001600160a01b0392831692851691627e3dd2916004808301926020929190829003018186803b1580156200047b57600080fd5b505afa15801562000490573d6000803e3d6000fd5b505050506040513d6020811015620004a757600080fd5b5051620004e1576040805162461bcd60e51b81526020600482015260036024820152622a191960e91b604482015290519081900360640190fd5b600580546001600160a01b0319166001600160a01b03858116918217909255604080519284168352602083019190915280517f7ac369dbd14fa5ea3f473ed67cc9d598964a77501540ba6751eb0b3decf5870d9281900390910190a160005b9150505b919050565b435b90565b600354600090819061010090046001600160a01b031633146200058b5762000582600160426001600160e01b03620006da16565b91505062000544565b6200059e6001600160e01b036200054916565b60095414620005be5762000582600a60416001600160e01b03620006da16565b600660009054906101000a90046001600160a01b03169050826001600160a01b0316632191f92a6040518163ffffffff1660e01b815260040160206040518083038186803b1580156200061057600080fd5b505afa15801562000625573d6000803e3d6000fd5b505050506040513d60208110156200063c57600080fd5b505162000676576040805162461bcd60e51b81526020600482015260036024820152622a191960e91b604482015290519081900360640190fd5b600680546001600160a01b0319166001600160a01b03858116918217909255604080519284168352602083019190915280517fedffc32e068c7c95dfd4bdfd5c4d939a084d6b11c4199eac8436ed234d72f9269281900390910190a1600062000540565b60007f45b96fe442630264581b197e84bbada861235052c5a1aadfff9ea4e40a969aa08360108111156200070a57fe5b8360528111156200071757fe5b604080519283526020830191909152600082820152519081900360600190a18260108111156200074357fe5b9392505050565b828054600181600116156101000203166002900490600052602060002090601f016020900481019282601f106200078d57805160ff1916838001178555620007bd565b82800160010185558215620007bd579182015b82811115620007bd578251825591602001919060010190620007a0565b50620007cb929150620007cf565b5090565b6200054b91905b80821115620007cb5760008155600101620007d6565b615dbe80620007fc6000396000f3fe60806040526004361061031a5760003560e01c8063852a12e3116101ab578063c139562b116100f7578063f2b3abbd11610095578063f8f9da281161006f578063f8f9da2814610bf1578063fc610b3d14610c06578063fca7820b14610c79578063fe9c44ae14610ca35761031a565b8063f2b3abbd14610b94578063f3fdb15a14610bc7578063f851a44014610bdc5761031a565b8063db006a75116100d1578063db006a7514610af4578063dd62ed3e14610b1e578063e597461914610b59578063e9c714f214610b7f5761031a565b8063c139562b14610a64578063c37f68e214610a97578063c5ebeaec14610aca5761031a565b8063a9059cbb11610164578063ae9d70b01161013e578063ae9d70b0146109c4578063b2a02ff1146109d9578063b71d1a0c14610a1c578063bd6d894d14610a4f5761031a565b8063a9059cbb14610948578063aa5af0fd14610981578063aae40a2a146109965761031a565b8063852a12e31461074d5780638f840ddd1461077757806395d89b411461078c57806395dd9193146107a157806399d8c1b4146107d4578063a6afed95146109335761031a565b80634576b5db1161026a5780636653d464116102235780636c865c4f116101fd5780636c865c4f146106f557806370a08231146106fd57806373acee98146107305780637f78fe16146107455761031a565b80636653d46414610698578063675d972c146106cb5780636c540baf146106e05761031a565b80634576b5db146105b057806347bd3718146105e35780634e4d9fea146105f8578063524fe4b5146106005780635fe3b56714610659578063601a0bf11461066e5761031a565b8063182df0f5116102d757806326782247116102b1578063267822471461050c578063313ce5671461053d5780633af9e669146105685780633b1d21a21461059b5761031a565b8063182df0f51461049f5780631df0ba9d146104b457806323b872dd146104c95761031a565b806306fdde031461034f578063095ea7b3146103d95780631249c58b14610426578063173b99041461043057806317bfdfbc1461045757806318160ddd1461048a575b600061032534610cb8565b50905061034c8160405180604001604052806002815260200161291960f11b815250610d59565b50005b34801561035b57600080fd5b50610364610f59565b6040805160208082528351818301528351919283929083019185019080838360005b8381101561039e578181015183820152602001610386565b50505050905090810190601f1680156103cb5780820380516001836020036101000a031916815260200191505b509250505060405180910390f35b3480156103e557600080fd5b50610412600480360360408110156103fc57600080fd5b506001600160a01b038135169060200135610fe6565b604080519115158252519081900360200190f35b61042e611053565b005b34801561043c57600080fd5b50610445611088565b60408051918252519081900360200190f35b34801561046357600080fd5b506104456004803603602081101561047a57600080fd5b50356001600160a01b031661108e565b34801561049657600080fd5b50610445611133565b3480156104ab57600080fd5b50610445611139565b3480156104c057600080fd5b50610445611197565b3480156104d557600080fd5b50610412600480360360608110156104ec57600080fd5b506001600160a01b0381358116916020810135909116906040013561119d565b34801561051857600080fd5b50610521611208565b604080516001600160a01b039092168252519081900360200190f35b34801561054957600080fd5b50610552611217565b6040805160ff9092168252519081900360200190f35b34801561057457600080fd5b506104456004803603602081101561058b57600080fd5b50356001600160a01b0316611220565b3480156105a757600080fd5b506104456112bd565b3480156105bc57600080fd5b50610445600480360360208110156105d357600080fd5b50356001600160a01b03166112cc565b3480156105ef57600080fd5b50610445611407565b61042e61140d565b34801561060c57600080fd5b506106336004803603602081101561062357600080fd5b50356001600160a01b031661143f565b604080519485526020850193909352838301919091526060830152519081900360800190f35b34801561066557600080fd5b50610521611470565b34801561067a57600080fd5b506104456004803603602081101561069157600080fd5b503561147f565b3480156106a457600080fd5b5061042e600480360360208110156106bb57600080fd5b50356001600160a01b0316611513565b3480156106d757600080fd5b5061044561157f565b3480156106ec57600080fd5b50610445611585565b61042e61158b565b34801561070957600080fd5b506104456004803603602081101561072057600080fd5b50356001600160a01b03166115bf565b34801561073c57600080fd5b506104456115da565b61042e611675565b34801561075957600080fd5b506104456004803603602081101561077057600080fd5b50356116ba565b34801561078357600080fd5b506104456116c5565b34801561079857600080fd5b506103646116cb565b3480156107ad57600080fd5b50610445600480360360208110156107c457600080fd5b50356001600160a01b0316611723565b3480156107e057600080fd5b5061042e600480360360c08110156107f757600080fd5b6001600160a01b0382358116926020810135909116916040820135919081019060808101606082013564010000000081111561083257600080fd5b82018360208201111561084457600080fd5b8035906020019184600183028401116401000000008311171561086657600080fd5b91908080601f01602080910402602001604051908101604052809392919081815260200183838082843760009201919091525092959493602081019350359150506401000000008111156108b957600080fd5b8201836020820111156108cb57600080fd5b803590602001918460018302840111640100000000831117156108ed57600080fd5b91908080601f0160208091040260200160405190810160405280939291908181526020018383808284376000920191909152509295505050903560ff16915061177b9050565b34801561093f57600080fd5b50610445611933565b34801561095457600080fd5b506104126004803603604081101561096b57600080fd5b506001600160a01b038135169060200135611d0e565b34801561098d57600080fd5b50610445611d78565b61042e600480360360408110156109ac57600080fd5b506001600160a01b0381358116916020013516611d7e565b3480156109d057600080fd5b50610445611db7565b3480156109e557600080fd5b50610445600480360360608110156109fc57600080fd5b506001600160a01b03813581169160208101359091169060400135611e56565b348015610a2857600080fd5b5061044560048036036020811015610a3f57600080fd5b50356001600160a01b0316611ec0565b348015610a5b57600080fd5b50610445611f4c565b348015610a7057600080fd5b5061044560048036036020811015610a8757600080fd5b50356001600160a01b0316611fed565b348015610aa357600080fd5b5061063360048036036020811015610aba57600080fd5b50356001600160a01b0316612008565b348015610ad657600080fd5b5061044560048036036020811015610aed57600080fd5b503561209d565b348015610b0057600080fd5b5061044560048036036020811015610b1757600080fd5b50356120a8565b348015610b2a57600080fd5b5061044560048036036040811015610b4157600080fd5b506001600160a01b03813581169160200135166120b3565b61042e60048036036020811015610b6f57600080fd5b50356001600160a01b03166120de565b348015610b8b57600080fd5b50610445612111565b348015610ba057600080fd5b5061044560048036036020811015610bb757600080fd5b50356001600160a01b0316612214565b348015610bd357600080fd5b5061052161224e565b348015610be857600080fd5b5061052161225d565b348015610bfd57600080fd5b50610445612271565b348015610c1257600080fd5b50610c3960048036036020811015610c2957600080fd5b50356001600160a01b03166122d5565b60405180866003811115610c4957fe5b60ff1681526020018581526020018481526020018381526020018281526020019550505050505060405180910390f35b348015610c8557600080fd5b5061044560048036036020811015610c9c57600080fd5b50356125bc565b348015610caf57600080fd5b50610412612633565b60008054819060ff16610cf8576040805162461bcd60e51b81526020600482015260036024820152622a191b60e91b604482015290519081900360640190fd5b6000805460ff19168155610d0a611933565b90508015610d3557610d28816010811115610d2157fe5b601e612638565b925060009150610d459050565b610d3f338561269e565b92509250505b6000805460ff191660011790559092909150565b81610d6357610f55565b606081516005016040519080825280601f01601f191660200182016040528015610d94576020820181803883390190505b50905060005b8251811015610de557828181518110610daf57fe5b602001015160f81c60f81b828281518110610dc657fe5b60200101906001600160f81b031916908160001a905350600101610d9a565b8151600160fd1b90839083908110610df957fe5b60200101906001600160f81b031916908160001a905350602860f81b828260010181518110610e2457fe5b60200101906001600160f81b031916908160001a905350600a840460300160f81b828260020181518110610e5457fe5b60200101906001600160f81b031916908160001a905350600a840660300160f81b828260030181518110610e8457fe5b60200101906001600160f81b031916908160001a905350602960f81b828260040181518110610eaf57fe5b60200101906001600160f81b031916908160001a905350818415610f515760405162461bcd60e51b81526004018080602001828103825283818151815260200191508051906020019080838360005b83811015610f16578181015183820152602001610efe565b50505050905090810190601f168015610f435780820380516001836020036101000a031916815260200191505b509250505060405180910390fd5b5050505b5050565b60018054604080516020600284861615610100026000190190941693909304601f81018490048402820184019092528181529291830182828015610fde5780601f10610fb357610100808354040283529160200191610fde565b820191906000526020600020905b815481529060010190602001808311610fc157829003601f168201915b505050505081565b3360008181526010602090815260408083206001600160a01b03871680855290835281842086905581518681529151939493909284927f8c5be1e5ebec7d5bd14f71427d1e84f3dd0314c0f7b2291e5b200ac8c7c3b925929081900390910190a360019150505b92915050565b600061105e34610cb8565b5090506110858160405180604001604052806002815260200161291960f11b815250610d59565b50565b60085481565b6000805460ff166110cc576040805162461bcd60e51b81526020600482015260036024820152622a191b60e91b604482015290519081900360640190fd5b6000805460ff191681556110de611933565b14611115576040805162461bcd60e51b8152602060048201526002602482015261543760f01b604482015290519081900360640190fd5b61111e82611723565b90505b6000805460ff19166001179055919050565b600d5481565b6000806000611146612cd7565b9092509050600082600381111561115957fe5b14611190576040805162461bcd60e51b8152602060048201526002602482015261543960f01b604482015290519081900360640190fd5b9150505b90565b600e5481565b6000805460ff166111db576040805162461bcd60e51b81526020600482015260036024820152622a191b60e91b604482015290519081900360640190fd5b6000805460ff191681556111f133868686612e6f565b1490506000805460ff191660011790559392505050565b6004546001600160a01b031681565b60035460ff1681565b600061122a615bf2565b604051806020016040528061123d611f4c565b90526001600160a01b0384166000908152600f60205260408120549192509081906112699084906130fd565b9092509050600082600381111561127c57fe5b146112b3576040805162461bcd60e51b81526020600482015260026024820152612a1b60f11b604482015290519081900360640190fd5b925050505b919050565b60006112c7613150565b905090565b60035460009061010090046001600160a01b031633146112f9576112f26001603f612638565b90506112b8565b60055460408051623f1ee960e11b815290516001600160a01b0392831692851691627e3dd2916004808301926020929190829003018186803b15801561133e57600080fd5b505afa158015611352573d6000803e3d6000fd5b505050506040513d602081101561136857600080fd5b50516113a1576040805162461bcd60e51b81526020600482015260036024820152622a191960e91b604482015290519081900360640190fd5b600580546001600160a01b0319166001600160a01b03858116918217909255604080519284168352602083019190915280517f7ac369dbd14fa5ea3f473ed67cc9d598964a77501540ba6751eb0b3decf5870d9281900390910190a160005b9392505050565b600b5481565b600061141834613241565b5090506110858160405180604001604052806002815260200161523360f01b815250610d59565b6001600160a01b03166000908152600f60205260409020805460018201546002830154600390930154919390929190565b6005546001600160a01b031681565b6000805460ff166114bd576040805162461bcd60e51b81526020600482015260036024820152622a191b60e91b604482015290519081900360640190fd5b6000805460ff191681556114cf611933565b905080156114f5576114ed8160108111156114e657fe5b6030612638565b915050611121565b6114fe836132bc565b9150506000805460ff19166001179055919050565b60035461010090046001600160a01b0316331461155d576040805162461bcd60e51b815260206004820152600360248201526252313160e81b604482015290519081900360640190fd5b601280546001600160a01b0319166001600160a01b0392909216919091179055565b60075481565b60095481565b6000611598600019613241565b5090506110858160405180604001604052806002815260200161148d60f21b815250610d59565b6001600160a01b03166000908152600f602052604090205490565b6000805460ff16611618576040805162461bcd60e51b81526020600482015260036024820152622a191b60e91b604482015290519081900360640190fd5b6000805460ff1916815561162a611933565b14611661576040805162461bcd60e51b8152602060048201526002602482015261543760f01b604482015290519081900360640190fd5b50600b546000805460ff1916600117905590565b6000611680346133eb565b90508015611085576040805162461bcd60e51b8152602060048201526002602482015261523160f01b604482015290519081900360640190fd5b600061104d82613478565b600c5481565b6002805460408051602060018416156101000260001901909316849004601f81018490048402820184019092528181529291830182828015610fde5780601f10610fb357610100808354040283529160200191610fde565b6000806000611731846134f2565b9092509050600082600381111561174457fe5b14611400576040805162461bcd60e51b81526020600482015260026024820152610a8760f31b604482015290519081900360640190fd5b60035461010090046001600160a01b031633146117c4576040805162461bcd60e51b8152602060048201526002602482015261543160f01b604482015290519081900360640190fd5b6009541580156117d45750600a54155b61180a576040805162461bcd60e51b81526020600482015260026024820152612a1960f11b604482015290519081900360640190fd5b600784905583611846576040805162461bcd60e51b8152602060048201526002602482015261543360f01b604482015290519081900360640190fd5b6000611851876112cc565b9050801561188b576040805162461bcd60e51b8152602060048201526002602482015261150d60f21b604482015290519081900360640190fd5b6118936135a6565b600955670de0b6b3a7640000600a556118ab866135aa565b905080156118e5576040805162461bcd60e51b8152602060048201526002602482015261543560f01b604482015290519081900360640190fd5b83516118f8906001906020870190615c05565b50825161190c906002906020860190615c05565b50506003805460ff90921660ff199283161790556000805490911660011790555050505050565b60008061193e6135a6565b6009549091508082141561195757600092505050611194565b6000611961613150565b600b54600c54600a54600654604080516315f2405360e01b815260048101879052602481018690526044810185905290519596509394929391926000926001600160a01b03909216916315f24053916064808301926020929190829003018186803b1580156119cf57600080fd5b505afa1580156119e3573d6000803e3d6000fd5b505050506040513d60208110156119f957600080fd5b5051905065048c27395000811115611a3e576040805162461bcd60e51b815260206004820152600360248201526205431360ec1b604482015290519081900360640190fd5b600080611a4b8989613705565b90925090506000826003811115611a5e57fe5b14611a96576040805162461bcd60e51b815260206004820152600360248201526254313160e81b604482015290519081900360640190fd5b611a9e615bf2565b600080600080611abc60405180602001604052808a81525087613728565b90975094506000876003811115611acf57fe5b14611b0157611aec60096006896003811115611ae757fe5b613790565b9e505050505050505050505050505050611194565b611b0b858c6130fd565b90975093506000876003811115611b1e57fe5b14611b3657611aec60096001896003811115611ae757fe5b611b40848c6137f6565b90975092506000876003811115611b5357fe5b14611b6b57611aec60096004896003811115611ae757fe5b611b866040518060200160405280600854815250858c61381c565b90975091506000876003811115611b9957fe5b14611bb157611aec60096005896003811115611ae757fe5b600660009054906101000a90046001600160a01b03166001600160a01b031663e36c26e46040518163ffffffff1660e01b815260040160206040518083038186803b158015611bff57600080fd5b505afa158015611c13573d6000803e3d6000fd5b505050506040513d6020811015611c2957600080fd5b505115611c6857611c3d888d8d8d88613878565b90975091506000876003811115611c5057fe5b14611c6857611aec60096005896003811115611ae757fe5b611c73858a8b61381c565b90975090506000876003811115611c8657fe5b14611c9e57611aec60096003896003811115611ae757fe5b60098e9055600a819055600b839055600c829055604080518d8152602081018690528082018390526060810185905290517f4dec04e750ca11537cabcd8a9eab06494de08da3735bc8871cd41250e190bc049181900360800190a160009e50505050505050505050505050505090565b6000805460ff16611d4c576040805162461bcd60e51b81526020600482015260036024820152622a191b60e91b604482015290519081900360640190fd5b6000805460ff19168155611d6233338686612e6f565b1490506000805460ff1916600117905592915050565b600a5481565b6000611d8b833484613aed565b509050611db28160405180604001604052806002815260200161291b60f11b815250610d59565b505050565b6006546000906001600160a01b031663b8168816611dd3613150565b600b54600c546008546040518563ffffffff1660e01b81526004018085815260200184815260200183815260200182815260200194505050505060206040518083038186803b158015611e2557600080fd5b505afa158015611e39573d6000803e3d6000fd5b505050506040513d6020811015611e4f57600080fd5b5051905090565b6000805460ff16611e94576040805162461bcd60e51b81526020600482015260036024820152622a191b60e91b604482015290519081900360640190fd5b6000805460ff19169055611eaa33858585613c18565b90506000805460ff191660011790559392505050565b60035460009061010090046001600160a01b03163314611ee6576112f260016045612638565b600480546001600160a01b038481166001600160a01b0319831681179093556040805191909216808252602082019390935281517fca4f2f25d0898edd99413412fb94012f9e54ec8142f9b093e7720646a95b16a9929181900390910190a16000611400565b6000805460ff16611f8a576040805162461bcd60e51b81526020600482015260036024820152622a191b60e91b604482015290519081900360640190fd5b6000805460ff19168155611f9c611933565b14611fd3576040805162461bcd60e51b8152602060048201526002602482015261543760f01b604482015290519081900360640190fd5b611fdb611139565b90506000805460ff1916600117905590565b6001600160a01b031660009081526011602052604090205490565b6001600160a01b0381166000908152600f6020526040812054819081908190818080612033896134f2565b93509050600081600381111561204557fe5b146120635760095b9750600096508695508594506120969350505050565b61206b612cd7565b92509050600081600381111561207d57fe5b1461208957600961204d565b5060009650919450925090505b9193509193565b600061104d82613df4565b600061104d82613e6c565b6001600160a01b03918216600090815260106020908152604080832093909416825291909152205490565b60006120ea8234613edf565b509050610f558160405180604001604052806002815260200161523560f01b815250610d59565b6004546000906001600160a01b03163314158061212c575033155b156121445761213d60016000612638565b9050611194565b60038054600480546001600160a01b03818116610100818102610100600160a81b0319871617968790556001600160a01b031990931690935560408051948390048216808652929095041660208401528351909391927ff9ffabca9c8276e99321725bcb43fb076a6c66a54b7f21c4e8146d8519b417dc92908290030190a1600454604080516001600160a01b038085168252909216602083015280517fca4f2f25d0898edd99413412fb94012f9e54ec8142f9b093e7720646a95b16a99281900390910190a160009250505090565b60008061221f611933565b905080156122455761223d81601081111561223657fe5b6040612638565b9150506112b8565b611400836135aa565b6006546001600160a01b031681565b60035461010090046001600160a01b031681565b6006546000906001600160a01b03166315f2405361228d613150565b600b54600c546040518463ffffffff1660e01b815260040180848152602001838152602001828152602001935050505060206040518083038186803b158015611e2557600080fd5b60008060008060006122e5615c83565b6001600160a01b0387166000908152600f60209081526040909120600381015491830191909152612314615bf2565b6040518060200160405280846020015181525090506123396009548360020154613705565b604085018190528482600381111561234d57fe5b600381111561235857fe5b905250600090508351600381111561236c57fe5b1461238b575050516007549095506000945084935091508290506125b3565b612393615bf2565b6123a1828560400151613728565b915081858260038111156123b157fe5b60038111156123bc57fe5b90525060009050845160038111156123d057fe5b146123f257505090516007549096506000955085945092508391506125b39050565b6124126040518060200160405280670de0b6b3a764000081525082613f83565b606086018190528582600381111561242657fe5b600381111561243157fe5b9052505060018301546080850190815260408051602081019091529051815260a08501819052606085015161246591613fbd565b60c086018190528582600381111561247957fe5b600381111561248457fe5b905250600090508451600381111561249857fe5b146124ba57505090516007549096506000955085945092508391506125b39050565b60006124d28560c00151600001518660800151613705565b915081868260038111156124e257fe5b60038111156124ed57fe5b905250600090508551600381111561250157fe5b1461252457505091516007549097506000965086955093508492506125b3915050565b60c085015151845461253691906140a6565b60e087018190528682600381111561254a57fe5b600381111561255557fe5b905250600090508551600381111561256957fe5b1461258c57505091516007549097506000965086955093508492506125b3915050565b60608501515160e08601515160c0909601515160009b509099509097509395509293505050505b91939590929450565b6000805460ff166125fa576040805162461bcd60e51b81526020600482015260036024820152622a191b60e91b604482015290519081900360640190fd5b6000805460ff1916815561260c611933565b9050801561262a576114ed81601081111561262357fe5b6046612638565b6114fe83614156565b600181565b60007f45b96fe442630264581b197e84bbada861235052c5a1aadfff9ea4e40a969aa083601081111561266757fe5b83605281111561267357fe5b604080519283526020830191909152600082820152519081900360600190a182601081111561140057fe5b6001600160a01b0382166000908152601160205260408120548190156126f1576040805162461bcd60e51b81526020600482015260036024820152622a189960e91b604482015290519081900360640190fd5b60055460408051634ef4c3e160e01b81523060048201526001600160a01b0387811660248301526044820187905291516000939290921691634ef4c3e19160648082019260209290919082900301818787803b15801561275057600080fd5b505af1158015612764573d6000803e3d6000fd5b505050506040513d602081101561277a57600080fd5b50519050801561279e576127916003601f83613790565b925060009150612cd09050565b6127a66135a6565b600954146127ba57612791600a6022612638565b6127c2615ce0565b6127ca612cd7565b60408301819052602083018260038111156127e157fe5b60038111156127ec57fe5b905250600090508160200151600381111561280357fe5b1461282d5761281f6009602183602001516003811115611ae757fe5b935060009250612cd0915050565b6080810185905261283e86826141fe565b6128488686614386565b60e0820181905260408051602081018252908301518152612869919061440a565b606083018190526020830182600381111561288057fe5b600381111561288b57fe5b90525060009050816020015160038111156128a257fe5b146128da576040805162461bcd60e51b815260206004820152600360248201526254313360e81b604482015290519081900360640190fd5b6128ea600d5482606001516137f6565b60a083018190526020830182600381111561290157fe5b600381111561290c57fe5b905250600090508160200151600381111561292357fe5b1461295b576040805162461bcd60e51b8152602060048201526003602482015262150c4d60ea1b604482015290519081900360640190fd5b6001600160a01b0386166000908152600f6020526040902054606082015161298391906137f6565b60c083018190526020830182600381111561299a57fe5b60038111156129a557fe5b90525060009050816020015160038111156129bc57fe5b146129f4576040805162461bcd60e51b815260206004820152600360248201526254313560e81b604482015290519081900360640190fd5b6006546000906001600160a01b031663b8168816612a10613150565b600b54600c546008546040518563ffffffff1660e01b81526004018085815260200184815260200183815260200182815260200194505050505060206040518083038186803b158015612a6257600080fd5b505afa158015612a76573d6000803e3d6000fd5b505050506040513d6020811015612a8c57600080fd5b5051600654604080516338db09b960e21b815290519293506000926001600160a01b039092169163e36c26e491600480820192602092909190829003018186803b158015612ad957600080fd5b505afa158015612aed573d6000803e3d6000fd5b505050506040513d6020811015612b0357600080fd5b50516001600160a01b0389166000908152600f602052604090205490915015612bea57612b2e615bf2565b8115612b5a576000612b3f8a6122d5565b60408051602081019091529081529550612bd9945050505050565b6001600160a01b0389166000908152600f602090815260408083205481518084018352818152825193840183529188015183529291612b999190613fbd565b935090506000816003811115612bab57fe5b14612bd657612bc360096020836003811115611ae757fe5b985060009750612cd09650505050505050565b50505b8051612be590896137f6565b985050505b60a0830151600d556040805160808101825260c0850151815260208082018a815260095483850190815260608085018881526001600160a01b038f166000818152600f8752889020965187559351600187015591516002860155905160039094019390935560e087015192870151845193845291830191909152825190927f4c209b5fc8ad50758f13e2e1088ba56a560dff690a1c6fef26394f4c03821c4f928290030190a2606083015160408051918252516001600160a01b038a16913091600080516020615d6a8339815191529181900360200190a3505060e00151600093509150505b9250929050565b600d54600090819080612cf257505060075460009150612e6b565b6000806000612cff613150565b9050600660009054906101000a90046001600160a01b03166001600160a01b031663e36c26e46040518163ffffffff1660e01b815260040160206040518083038186803b158015612d4f57600080fd5b505afa158015612d63573d6000803e3d6000fd5b505050506040513d6020811015612d7957600080fd5b505115612dc357612d8933614421565b90935091506000836003811115612d9c57fe5b1415612db15750600094509250612e6b915050565b60006007549550955050505050612e6b565b600654600b54600c54600d5460408051639dc8bea760e01b81526004810187905260248101949094526044840192909252606483015280516001600160a01b0390931692639dc8bea7926084808201939291829003018186803b158015612e2957600080fd5b505afa158015612e3d573d6000803e3d6000fd5b505050506040513d6040811015612e5357600080fd5b5080516020909101519096509450612e6b9350505050565b9091565b600554604080516317b9b84b60e31b81523060048201526001600160a01b03868116602483015285811660448301526064820185905291516000938493169163bdcdc25891608480830192602092919082900301818787803b158015612ed457600080fd5b505af1158015612ee8573d6000803e3d6000fd5b505050506040513d6020811015612efe57600080fd5b505190508015612f1d57612f156003604a83613790565b9150506130f5565b836001600160a01b0316856001600160a01b03161415612f4357612f156002604b612638565b60006001600160a01b038781169087161415612f625750600019612f8a565b506001600160a01b038086166000908152601060209081526040808320938a16835292905220545b600080600080612f9a8589613705565b90945092506000846003811115612fad57fe5b14612fcb57612fbe6009604b612638565b96505050505050506130f5565b6001600160a01b038a166000908152600f6020526040902054612fee9089613705565b9094509150600084600381111561300157fe5b1461301257612fbe6009604c612638565b6001600160a01b0389166000908152600f602052604090205461303590896137f6565b9094509050600084600381111561304857fe5b1461305957612fbe6009604d612638565b6001600160a01b03808b166000908152600f6020526040808220859055918b1681522081905560001985146130b1576001600160a01b03808b166000908152601060209081526040808320938f168352929052208390555b886001600160a01b03168a6001600160a01b0316600080516020615d6a8339815191528a6040518082815260200191505060405180910390a3600096505050505050505b949350505050565b600080600061310a615bf2565b6131148686613728565b9092509050600082600381111561312757fe5b146131385750915060009050612cd0565b6000613143826144da565b9350935050509250929050565b600080600061315f4734613705565b91509150600660009054906101000a90046001600160a01b03166001600160a01b031663e36c26e46040518163ffffffff1660e01b815260040160206040518083038186803b1580156131b157600080fd5b505afa1580156131c5573d6000803e3d6000fd5b505050506040513d60208110156131db57600080fd5b5051156131f4576131ee81600e54613705565b90925090505b600082600381111561320257fe5b14611190576040805162461bcd60e51b815260206004820152600a60248201526926b0ba341032b93937b960b11b604482015290519081900360640190fd5b60008054819060ff16613281576040805162461bcd60e51b81526020600482015260036024820152622a191b60e91b604482015290519081900360640190fd5b6000805460ff19168155613293611933565b905080156132b157610d288160108111156132aa57fe5b6036612638565b610d3f3333866144e9565b600354600090819061010090046001600160a01b031633146132e45761223d60016031612638565b6132ec6135a6565b600954146133005761223d600a6033612638565b82613309613150565b101561331b5761223d600e6032612638565b600c548311156133315761223d60026034612638565b50600c5482810390811115613373576040805162461bcd60e51b815260206004820152600360248201526254323560e81b604482015290519081900360640190fd5b600c8190556003546133939061010090046001600160a01b031684614833565b600354604080516101009092046001600160a01b0316825260208201859052818101839052517f3bad0c59cf2f06e7314077049f48a93578cd16f5ef92329f1dab1420a99c177e916060908290030190a16000611400565b6000805460ff16613429576040805162461bcd60e51b81526020600482015260036024820152622a191b60e91b604482015290519081900360640190fd5b6000805460ff1916815561343b611933565b90508015613459576114ed81601081111561345257fe5b6051612638565b61346283614869565b509150506000805460ff19166001179055919050565b6000805460ff166134b6576040805162461bcd60e51b81526020600482015260036024820152622a191b60e91b604482015290519081900360640190fd5b6000805460ff191681556134c8611933565b905080156134e6576114ed8160108111156134df57fe5b6027612638565b6114fe33600085614937565b6001600160a01b0381166000908152601160205260408120805482918291829182916135295750600094508493506135a192505050565b6135398160000154600a546152e3565b9094509250600084600381111561354c57fe5b146135615750919350600092506135a1915050565b61356f838260010154615322565b9094509150600084600381111561358257fe5b146135975750919350600092506135a1915050565b5060009450925050505b915091565b4390565b600354600090819061010090046001600160a01b031633146135d25761223d60016042612638565b6135da6135a6565b600954146135ee5761223d600a6041612638565b600660009054906101000a90046001600160a01b03169050826001600160a01b0316632191f92a6040518163ffffffff1660e01b815260040160206040518083038186803b15801561363f57600080fd5b505afa158015613653573d6000803e3d6000fd5b505050506040513d602081101561366957600080fd5b50516136a2576040805162461bcd60e51b81526020600482015260036024820152622a191960e91b604482015290519081900360640190fd5b600680546001600160a01b0319166001600160a01b03858116918217909255604080519284168352602083019190915280517fedffc32e068c7c95dfd4bdfd5c4d939a084d6b11c4199eac8436ed234d72f9269281900390910190a16000611400565b60008083831161371c575060009050818303612cd0565b50600390506000612cd0565b6000613732615bf2565b6000806137438660000151866152e3565b9092509050600082600381111561375657fe5b1461377557506040805160208101909152600081529092509050612cd0565b60408051602081019091529081526000969095509350505050565b60007f45b96fe442630264581b197e84bbada861235052c5a1aadfff9ea4e40a969aa08460108111156137bf57fe5b8460528111156137cb57fe5b604080519283526020830191909152818101859052519081900360600190a18360108111156130f557fe5b60008083830184811061380e57600092509050612cd0565b506002915060009050612cd0565b6000806000613829615bf2565b6138338787613728565b9092509050600082600381111561384657fe5b146138575750915060009050613870565b613869613863826144da565b866137f6565b9350935050505b935093915050565b60065460408051630dce3c5b60e31b815260048101879052602481018690526044810185905290516000928392839283926001600160a01b031691636e71e2d8916064808301926020929190829003018186803b1580156138d857600080fd5b505afa1580156138ec573d6000803e3d6000fd5b505050506040513d602081101561390257600080fd5b505160065460085460408051635c0b440b60e11b8152600481018d9052602481018c9052604481018b90526064810192909252519293506000926001600160a01b039092169163b816881691608480820192602092909190829003018186803b15801561396e57600080fd5b505afa158015613982573d6000803e3d6000fd5b505050506040513d602081101561399857600080fd5b50516006546040805163327a176d60e11b8152600481018d9052602481018c9052604481018b905290519293506001600160a01b03909116916364f42eda91606480820192602092909190829003018186803b1580156139f757600080fd5b505afa158015613a0b573d6000803e3d6000fd5b505050506040513d6020811015613a2157600080fd5b505115613ad757613a406040518060200160405280848152508b6130fd565b90955092506000856003811115613a5357fe5b14613a65575060009250613ae3915050565b613a6f8382613705565b90955092506000856003811115613a8257fe5b14613a94575060009250613ae3915050565b613aad604051806020016040528085815250878961381c565b90955093506000856003811115613ac057fe5b14613ad2575060009250613ae3915050565b613adf565b600094508693505b5050505b9550959350505050565b60008054819060ff16613b2d576040805162461bcd60e51b81526020600482015260036024820152622a191b60e91b604482015290519081900360640190fd5b6000805460ff19168155613b3f611933565b90508015613b6a57613b5d816010811115613b5657fe5b600f612638565b925060009150613c019050565b836001600160a01b031663a6afed956040518163ffffffff1660e01b8152600401602060405180830381600087803b158015613ba557600080fd5b505af1158015613bb9573d6000803e3d6000fd5b505050506040513d6020811015613bcf57600080fd5b505190508015613bef57613b5d816010811115613be857fe5b6010612638565b613bfb3387878761534d565b92509250505b6000805460ff191660011790559094909350915050565b6005546040805163d02f735160e01b81523060048201526001600160a01b038781166024830152868116604483015285811660648301526084820185905291516000938493169163d02f73519160a480830192602092919082900301818787803b158015613c8557600080fd5b505af1158015613c99573d6000803e3d6000fd5b505050506040513d6020811015613caf57600080fd5b505190508015613cc657612f156003601b83613790565b846001600160a01b0316846001600160a01b03161415613cec57612f156006601c612638565b6001600160a01b0384166000908152600f602052604081205481908190613d139087613705565b90935091506000836003811115613d2657fe5b14613d4957613d3e6009601a856003811115611ae757fe5b9450505050506130f5565b6001600160a01b0388166000908152600f6020526040902054613d6c90876137f6565b90935090506000836003811115613d7f57fe5b14613d9757613d3e60096019856003811115611ae757fe5b6001600160a01b038088166000818152600f60209081526040808320879055938c168083529184902085905583518a815293519193600080516020615d6a833981519152929081900390910190a360009998505050505050505050565b6000805460ff16613e32576040805162461bcd60e51b81526020600482015260036024820152622a191b60e91b604482015290519081900360640190fd5b6000805460ff19168155613e44611933565b90508015613e62576114ed816010811115613e5b57fe5b6008612638565b6114fe3384615814565b6000805460ff16613eaa576040805162461bcd60e51b81526020600482015260036024820152622a191b60e91b604482015290519081900360640190fd5b6000805460ff19168155613ebc611933565b90508015613ed3576114ed8160108111156134df57fe5b6114fe33846000614937565b60008054819060ff16613f1f576040805162461bcd60e51b81526020600482015260036024820152622a191b60e91b604482015290519081900360640190fd5b6000805460ff19168155613f31611933565b90508015613f5c57613f4f816010811115613f4857fe5b6035612638565b925060009150613f6d9050565b613f673386866144e9565b92509250505b6000805460ff1916600117905590939092509050565b6000613f8d615bf2565b600080613fa2866000015186600001516137f6565b60408051602081019091529081529097909650945050505050565b6000613fc7615bf2565b600080613fdc866000015186600001516152e3565b90925090506000826003811115613fef57fe5b1461400e57506040805160208101909152600081529092509050612cd0565b6000806140236706f05b59d3b20000846137f6565b9092509050600082600381111561403657fe5b1461405857506040805160208101909152600081529094509250612cd0915050565b60008061406d83670de0b6b3a7640000615322565b9092509050600082600381111561408057fe5b1461408757fe5b604080516020810190915290815260009a909950975050505050505050565b60006140b0615bf2565b6000806140c586670de0b6b3a76400006152e3565b909250905060008260038111156140d857fe5b146140f757506040805160208101909152600081529092509050612cd0565b6000806141048388615322565b9092509050600082600381111561411757fe5b1461413957506040805160208101909152600081529094509250612cd0915050565b604080516020810190915290815260009890975095505050505050565b60035460009061010090046001600160a01b0316331461417c576112f260016047612638565b6141846135a6565b60095414614198576112f2600a6048612638565b670de0b6b3a76400008211156141b4576112f260026049612638565b6008805490839055604080518281526020810185905281517faaa68312e2ea9d50e16af5068410ab56e1a1fd06037b1a35664812c30f821460929181900390910190a16000611400565b600660009054906101000a90046001600160a01b03166001600160a01b031663e36c26e46040518163ffffffff1660e01b815260040160206040518083038186803b15801561424c57600080fd5b505afa158015614260573d6000803e3d6000fd5b505050506040513d602081101561427657600080fd5b505115610f55576001600160a01b038083166000908152600f60205260408082206012546001820154608087015184516306d3af0d60e51b81526004810192909252602482015292519194169263da75e1a0926044808201939182900301818387803b1580156142e557600080fd5b505af11580156142f9573d6000803e3d6000fd5b5050601254600d546080860151604080880151815160016235be3960e21b03198152600481019490945260248401929092526044830191909152516001600160a01b03909216935063ff29071c925060648082019260009290919082900301818387803b15801561436957600080fd5b505af115801561437d573d6000803e3d6000fd5b50505050505050565b6000336001600160a01b038416146143ca576040805162461bcd60e51b8152602060048201526002602482015261523760f01b604482015290519081900360640190fd5b813414614404576040805162461bcd60e51b815260206004820152600360248201526205231360ec1b604482015290519081900360640190fd5b50919050565b6000806000614417615bf2565b6131148686615aac565b600080600d546000141561443c5750506007546000906135a1565b614444615c83565b6001600160a01b0384166000908152600f602052604090206002810154614475575060019250600091506135a19050565b805461448b5760006007549350935050506135a1565b600080614497876122d5565b50935050509150600060038111156144ab57fe5b8260038111156144b757fe5b146144cb57509350600092506135a1915050565b6000955093506135a192505050565b51670de0b6b3a7640000900490565b60055460408051631200453160e11b81523060048201526001600160a01b0386811660248301528581166044830152606482018590529151600093849384939116916324008a629160848082019260209290919082900301818787803b15801561455257600080fd5b505af1158015614566573d6000803e3d6000fd5b505050506040513d602081101561457c57600080fd5b5051905080156145a0576145936003603883613790565b9250600091506138709050565b6145a86135a6565b600954146145bc57614593600a6039612638565b6145c4615ce0565b6001600160a01b03861660009081526011602052604090206001015460608201526145ee866134f2565b608083018190526020830182600381111561460557fe5b600381111561461057fe5b905250600090508160200151600381111561462757fe5b14614651576146436009603783602001516003811115611ae757fe5b935060009250613870915050565b60001985141561467e576080810151604082018190526146749088906001615b0b565b60e0820152614695565b6040810185905261468f8786614386565b60e08201525b6146a781608001518260e00151613705565b60a08301819052602083018260038111156146be57fe5b60038111156146c957fe5b90525060009050816020015160038111156146e057fe5b14614718576040805162461bcd60e51b815260206004820152600360248201526254313760e81b604482015290519081900360640190fd5b614728600b548260e00151613705565b60c083018190526020830182600381111561473f57fe5b600381111561474a57fe5b905250600090508160200151600381111561476157fe5b14614799576040805162461bcd60e51b81526020600482015260036024820152620a862760eb1b604482015290519081900360640190fd5b60a0810180516001600160a01b03808916600081815260116020908152604091829020948555600a5460019095019490945560c0860151600b81905560e087015195518251968752948601949094528481019390935291519192908a16917f1a2a22cb034d26d1854bdc6666a5b91fe25efbbb5dcad3b0355478d6f5c362a19181900360600190a360e00151600097909650945050505050565b6040516001600160a01b0383169082156108fc029083906000818181858888f19350505050158015611db2573d6000803e3d6000fd5b6000806000806148776135a6565b600954146148965761488b600a6052612638565b935091506135a19050565b6148a03386614386565b905080600e54019150600e548210156148e6576040805162461bcd60e51b8152602060048201526003602482015262150c8d60ea1b604482015290519081900360640190fd5b600e829055604080513381526020810183905280820184905290517f3b1f8ad9af3f4b191c8118fa7e5ff5c809518c2c9c8b091de2378057f646bbe29181900360600190a160009350915050915091565b6000821580614944575081155b61497b576040805162461bcd60e51b81526020600482015260036024820152622a189b60e91b604482015290519081900360640190fd5b614983615ce0565b6001600160a01b0385166000908152600f602052604090206149a3612cd7565b60408401819052602084018260038111156149ba57fe5b60038111156149c557fe5b90525060009050826020015160038111156149dc57fe5b14614a01576149f86009602b84602001516003811115611ae757fe5b92505050611400565b6000806000806000600660009054906101000a90046001600160a01b03166001600160a01b031663e36c26e46040518163ffffffff1660e01b815260040160206040518083038186803b158015614a5757600080fd5b505afa158015614a6b573d6000803e3d6000fd5b505050506040513d6020811015614a8157600080fd5b505190508015614aa857614a948b6122d5565b60018b018190559198509095508594505050505b6006546001600160a01b031663b8168816614ac1613150565b600b54600c546008546040518563ffffffff1660e01b81526004018085815260200184815260200183815260200182815260200194505050505060206040518083038186803b158015614b1357600080fd5b505afa158015614b27573d6000803e3d6000fd5b505050506040513d6020811015614b3d57600080fd5b50516003870155808015614bdb57506006546001600160a01b03166364f42eda614b65613150565b600b54600c546040518463ffffffff1660e01b815260040180848152602001838152602001828152602001935050505060206040518083038186803b158015614bad57600080fd5b505afa158015614bc1573d6000803e3d6000fd5b505050506040513d6020811015614bd757600080fd5b5051155b15614d61576006546000906001600160a01b03166315f24053614bfc613150565b600b54600c546040518463ffffffff1660e01b815260040180848152602001838152602001828152602001935050505060206040518083038186803b158015614c4457600080fd5b505afa158015614c58573d6000803e3d6000fd5b505050506040513d6020811015614c6e57600080fd5b50516006549091506000906001600160a01b0316636e71e2d8614c8f613150565b600b54600c546040518463ffffffff1660e01b815260040180848152602001838152602001828152602001935050505060206040518083038186803b158015614cd757600080fd5b505afa158015614ceb573d6000803e3d6000fd5b505050506040513d6020811015614d0157600080fd5b50516040805160208101909152838152909150600090614d2190836130fd565b915050614d32896003015482613705565b9750614d3e9050615bf2565b614d4c888b600301546140a6565b915050614d59818a6130fd565b985050505050505b600019891415614d9757604080516020810182529088015181528654614d8791906130fd565b608089018190529950614d9f9050565b608087018990525b8915614e8c57606087018a90528015614e085785548a1415614dca5760018601546080880152614e03565b614dd2615bf2565b614de0886060015184615baf565b915050614deb615bf2565b81518854614df991906140a6565b5160808b01525050505b614e87565b614e24604051806020016040528089604001518152508b6130fd565b6080890181905260208901826003811115614e3b57fe5b6003811115614e4657fe5b9052506000905087602001516003811115614e5d57fe5b14614e8757614e796009602989602001516003811115611ae757fe5b975050505050505050611400565b614f4a565b608087018990528015614ed957614ea1615bf2565b614eb388608001518860000154615baf565b915050614ebe615bf2565b8151614eca90856140a6565b5160608b015250614f4a915050565b614ef58960405180602001604052808a6040015181525061440a565b6060890181905260208901826003811115614f0c57fe5b6003811115614f1757fe5b9052506000905087602001516003811115614f2e57fe5b14614f4a57614e796009602a89602001516003811115611ae757fe5b60055460608801516040805163eabe7d9160e01b81523060048201526001600160a01b038f8116602483015260448201939093529051600093929092169163eabe7d919160648082019260209290919082900301818787803b158015614faf57600080fd5b505af1158015614fc3573d6000803e3d6000fd5b505050506040513d6020811015614fd957600080fd5b505190508015614fff57614ff06003602883613790565b98505050505050505050611400565b6150076135a6565b6009541461501b57614ff0600a602c612638565b61502b600d548960600151613705565b60a08a0181905260208a0182600381111561504257fe5b600381111561504d57fe5b905250600090508860200151600381111561506457fe5b1461508057614ff06009602e8a602001516003811115611ae757fe5b61508c600e5486613705565b60e08a015250865460608901516150a39190613705565b60c08a0181905260208a018260038111156150ba57fe5b60038111156150c557fe5b90525060009050886020015160038111156150dc57fe5b146150f857614ff06009602d8a602001516003811115611ae757fe5b6000615102613150565b9050821561510d5750475b886080015181101561513557615125600e602f612638565b9950505050505050505050611400565b6151438d8a60800151614833565b60a0890151600d5560e0890151600e5560c089015188556009546002890155600188015460808a01516151769190613705565b9050886001016000829190505550306001600160a01b03168d6001600160a01b0316600080516020615d6a8339815191528b606001516040518082815260200191505060405180910390a38c6001600160a01b03167fe5b754fb1abb7f01b499791d0b820ae3b6af3424ac1c59768edb53f4ec31a9298a608001518b60600151604051808381526020018281526020019250505060405180910390a2600560009054906101000a90046001600160a01b03166001600160a01b03166351dff989308f8c608001518d606001516040518563ffffffff1660e01b815260040180856001600160a01b03166001600160a01b03168152602001846001600160a01b03166001600160a01b03168152602001838152602001828152602001945050505050600060405180830381600087803b1580156152b157600080fd5b505af11580156152c5573d6000803e3d6000fd5b50600092506152d2915050565b9d9c50505050505050505050505050565b600080836152f657506000905080612cd0565b8383028385828161530357fe5b041461531757506002915060009050612cd0565b600092509050612cd0565b600080826153365750600190506000612cd0565b600083858161534157fe5b04915091509250929050565b60055460408051632fe3f38f60e11b81523060048201526001600160a01b0384811660248301528781166044830152868116606483015260848201869052915160009384938493911691635fc7e71e9160a48082019260209290919082900301818787803b1580156153be57600080fd5b505af11580156153d2573d6000803e3d6000fd5b505050506040513d60208110156153e857600080fd5b50519050801561540c576153ff6003601283613790565b92506000915061580b9050565b6154146135a6565b60095414615428576153ff600a6016612638565b6154306135a6565b846001600160a01b0316636c540baf6040518163ffffffff1660e01b815260040160206040518083038186803b15801561546957600080fd5b505afa15801561547d573d6000803e3d6000fd5b505050506040513d602081101561549357600080fd5b5051146154a6576153ff600a6011612638565b866001600160a01b0316866001600160a01b031614156154cc576153ff60066017612638565b846154dd576153ff60076015612638565b6000198514156154f3576153ff60076014612638565b6000806155018989896144e9565b909250905081156155315761552282601081111561551b57fe5b6018612638565b94506000935061580b92505050565b6005546040805163c488847b60e01b81523060048201526001600160a01b038981166024830152604482018590528251600094859492169263c488847b926064808301939192829003018186803b15801561558b57600080fd5b505afa15801561559f573d6000803e3d6000fd5b505050506040513d60408110156155b557600080fd5b508051602090910151909250905081156155fc576040805162461bcd60e51b815260206004820152600360248201526254313960e81b604482015290519081900360640190fd5b80886001600160a01b03166370a082318c6040518263ffffffff1660e01b815260040180826001600160a01b03166001600160a01b0316815260200191505060206040518083038186803b15801561565357600080fd5b505afa158015615667573d6000803e3d6000fd5b505050506040513d602081101561567d57600080fd5b505110156156b8576040805162461bcd60e51b815260206004820152600360248201526205432360ec1b604482015290519081900360640190fd5b60006001600160a01b0389163014156156de576156d7308d8d85613c18565b9050615768565b6040805163b2a02ff160e01b81526001600160a01b038e811660048301528d81166024830152604482018590529151918b169163b2a02ff1916064808201926020929091908290030181600087803b15801561573957600080fd5b505af115801561574d573d6000803e3d6000fd5b505050506040513d602081101561576357600080fd5b505190505b80156157a1576040805162461bcd60e51b815260206004820152600360248201526254323160e81b604482015290519081900360640190fd5b886001600160a01b03168b6001600160a01b03168d6001600160a01b03167f298637f684da70674f26509b10f07ec2fbc77a335ab1e7d6215a4b2484d8bb528786604051808381526020018281526020019250505060405180910390a46000975092955050505050505b94509492505050565b6005546040805163368f515360e21b81523060048201526001600160a01b0385811660248301526044820185905291516000938493169163da3d454c91606480830192602092919082900301818787803b15801561587157600080fd5b505af1158015615885573d6000803e3d6000fd5b505050506040513d602081101561589b57600080fd5b5051905080156158ba576158b26003600e83613790565b91505061104d565b6158c26135a6565b600954146158d5576158b2600a80612638565b826158de613150565b10156158f0576158b2600e6009612638565b6158f8615d26565b615901856134f2565b602083018190528282600381111561591557fe5b600381111561592057fe5b905250600090508151600381111561593457fe5b14615959576159506009600783600001516003811115611ae757fe5b9250505061104d565b6159678160200151856137f6565b604083018190528282600381111561597b57fe5b600381111561598657fe5b905250600090508151600381111561599a57fe5b146159b6576159506009600c83600001516003811115611ae757fe5b6159c2600b54856137f6565b60608301819052828260038111156159d657fe5b60038111156159e157fe5b90525060009050815160038111156159f557fe5b14615a11576159506009600b83600001516003811115611ae757fe5b615a1b8582615bea565b9050615a278585614833565b604080820180516001600160a01b03881660008181526011602090815290859020928355600a54600190930192909255606080860151600b819055935185518a8152938401528285019390935292517f13ed6866d4e1ee6da46f845c46d7e54120883d75c5ea9a2dacc1c4ca8984ab80929181900390910190a2600095945050505050565b6000615ab6615bf2565b600080615acb670de0b6b3a7640000876152e3565b90925090506000826003811115615ade57fe5b14615afd57506040805160208101909152600081529092509050612cd0565b6131438186600001516140a6565b6000336001600160a01b03851614615b4f576040805162461bcd60e51b8152602060048201526002602482015261523760f01b604482015290519081900360640190fd5b82341015615b8a576040805162461bcd60e51b815260206004820152600360248201526205231360ec1b604482015290519081900360640190fd5b600080615b973486613705565b91509150615ba53382614833565b5092949350505050565b6000615bb9615bf2565b615bdf604051806020016040528086815250604051806020016040528086815250613fbd565b915091509250929050565b614404615d26565b6040518060200160405280600081525090565b828054600181600116156101000203166002900490600052602060002090601f016020900481019282601f10615c4657805160ff1916838001178555615c73565b82800160010185558215615c73579182015b82811115615c73578251825591602001919060010190615c58565b50615c7f929150615d4f565b5090565b60408051610100810190915280600081526020016000815260200160008152602001615cad615bf2565b815260200160008152602001615cc1615bf2565b8152602001615cce615bf2565b8152602001615cdb615bf2565b905290565b6040805161010081019091528060008152602001600081526020016000815260200160008152602001600081526020016000815260200160008152602001600081525090565b604080516080810190915280600081526020016000815260200160008152602001600081525090565b61119491905b80821115615c7f5760008155600101615d5556feddf252ad1be2c89b69c2b068fc378daa952ba7f163c4a11628f55a4df523b3efa265627a7a72315820686f691daafa874b5e6cf050f35178c8df29726a6835d4083302f49b168cb74864736f6c63430005100032",
  "linkReferences": {},
  "deployedLinkReferences": {}
}