{
  "_format": "hh-sol-artifact-1",
  "contractName": "CRDOC",
  "sourceName": "contracts/CRDOC.sol",
  "abi": [
    {
      "inputs": [
        {
          "internalType": "address",
          "name": "underlying_",
          "type": "address"
        },
        {
          "internalType": "contract ComptrollerInterface",
          "name": "comptroller_",
          "type": "address"
        },
        {
          "internalType": "contract InterestRateModel",
          "name": "interestRateModel_",
          "type": "address"
        },
        {
          "internalType": "uint256",
          "name": "initialExchangeRateMantissa_",
          "type": "uint256"
        },
        {
          "internalType": "string",
          "name": "name_",
          "type": "string"
        },
        {
          "internalType": "string",
          "name": "symbol_",
          "type": "string"
        },
        {
          "internalType": "uint8",
          "name": "decimals_",
          "type": "uint8"
        },
        {
          "internalType": "address payable",
          "name": "admin_",
          "type": "address"
        }
      ],
      "payable": false,
      "stateMutability": "nonpayable",
      "type": "constructor"
    },
    {
      "anonymous": false,
      "inputs": [
        {
          "indexed": false,
          "internalType": "uint256",
          "name": "cashPrior",
          "type": "uint256"
        },
        {
          "indexed": false,
          "internalType": "uint256",
          "name": "interestAccumulated",
          "type": "uint256"
        },
        {
          "indexed": false,
          "internalType": "uint256",
          "name": "borrowIndex",
          "type": "uint256"
        },
        {
          "indexed": false,
          "internalType": "uint256",
          "name": "totalBorrows",
          "type": "uint256"
        }
      ],
      "name": "AccrueInterest",
      "type": "event"
    },
    {
      "anonymous": false,
      "inputs": [
        {
          "indexed": true,
          "internalType": "address",
          "name": "owner",
          "type": "address"
        },
        {
          "indexed": true,
          "internalType": "address",
          "name": "spender",
          "type": "address"
        },
        {
          "indexed": false,
          "internalType": "uint256",
          "name": "amount",
          "type": "uint256"
        }
      ],
      "name": "Approval",
      "type": "event"
    },
    {
      "anonymous": false,
      "inputs": [
        {
          "indexed": true,
          "internalType": "address",
          "name": "borrower",
          "type": "address"
        },
        {
          "indexed": false,
          "internalType": "uint256",
          "name": "borrowAmount",
          "type": "uint256"
        },
        {
          "indexed": false,
          "internalType": "uint256",
          "name": "accountBorrows",
          "type": "uint256"
        },
        {
          "indexed": false,
          "internalType": "uint256",
          "name": "totalBorrows",
          "type": "uint256"
        }
      ],
      "name": "Borrow",
      "type": "event"
    },
    {
      "anonymous": false,
      "inputs": [
        {
          "indexed": false,
          "internalType": "uint256",
          "name": "error",
          "type": "uint256"
        },
        {
          "indexed": false,
          "internalType": "uint256",
          "name": "info",
          "type": "uint256"
        },
        {
          "indexed": false,
          "internalType": "uint256",
          "name": "detail",
          "type": "uint256"
        }
      ],
      "name": "Failure",
      "type": "event"
    },
    {
      "anonymous": false,
      "inputs": [
        {
          "indexed": true,
          "internalType": "address",
          "name": "liquidator",
          "type": "address"
        },
        {
          "indexed": true,
          "internalType": "address",
          "name": "borrower",
          "type": "address"
        },
        {
          "indexed": false,
          "internalType": "uint256",
          "name": "repayAmount",
          "type": "uint256"
        },
        {
          "indexed": true,
          "internalType": "address",
          "name": "cTokenCollateral",
          "type": "address"
        },
        {
          "indexed": false,
          "internalType": "uint256",
          "name": "seizeTokens",
          "type": "uint256"
        }
      ],
      "name": "LiquidateBorrow",
      "type": "event"
    },
    {
      "anonymous": false,
      "inputs": [
        {
          "indexed": true,
          "internalType": "address",
          "name": "minter",
          "type": "address"
        },
        {
          "indexed": false,
          "internalType": "uint256",
          "name": "mintAmount",
          "type": "uint256"
        },
        {
          "indexed": false,
          "internalType": "uint256",
          "name": "mintTokens",
          "type": "uint256"
        }
      ],
      "name": "Mint",
      "type": "event"
    },
    {
      "anonymous": false,
      "inputs": [
        {
          "indexed": false,
          "internalType": "address",
          "name": "oldAdmin",
          "type": "address"
        },
        {
          "indexed": false,
          "internalType": "address",
          "name": "newAdmin",
          "type": "address"
        }
      ],
      "name": "NewAdmin",
      "type": "event"
    },
    {
      "anonymous": false,
      "inputs": [
        {
          "indexed": false,
          "internalType": "contract ComptrollerInterface",
          "name": "oldComptroller",
          "type": "address"
        },
        {
          "indexed": false,
          "internalType": "contract ComptrollerInterface",
          "name": "newComptroller",
          "type": "address"
        }
      ],
      "name": "NewComptroller",
      "type": "event"
    },
    {
      "anonymous": false,
      "inputs": [
        {
          "indexed": false,
          "internalType": "contract InterestRateModel",
          "name": "oldInterestRateModel",
          "type": "address"
        },
        {
          "indexed": false,
          "internalType": "contract InterestRateModel",
          "name": "newInterestRateModel",
          "type": "address"
        }
      ],
      "name": "NewMarketInterestRateModel",
      "type": "event"
    },
    {
      "anonymous": false,
      "inputs": [
        {
          "indexed": false,
          "internalType": "address",
          "name": "oldPendingAdmin",
          "type": "address"
        },
        {
          "indexed": false,
          "internalType": "address",
          "name": "newPendingAdmin",
          "type": "address"
        }
      ],
      "name": "NewPendingAdmin",
      "type": "event"
    },
    {
      "anonymous": false,
      "inputs": [
        {
          "indexed": false,
          "internalType": "uint256",
          "name": "oldReserveFactorMantissa",
          "type": "uint256"
        },
        {
          "indexed": false,
          "internalType": "uint256",
          "name": "newReserveFactorMantissa",
          "type": "uint256"
        }
      ],
      "name": "NewReserveFactor",
      "type": "event"
    },
    {
      "anonymous": false,
      "inputs": [
        {
          "indexed": true,
          "internalType": "address",
          "name": "redeemer",
          "type": "address"
        },
        {
          "indexed": false,
          "internalType": "uint256",
          "name": "redeemAmount",
          "type": "uint256"
        },
        {
          "indexed": false,
          "internalType": "uint256",
          "name": "redeemTokens",
          "type": "uint256"
        }
      ],
      "name": "Redeem",
      "type": "event"
    },
    {
      "anonymous": false,
      "inputs": [
        {
          "indexed": true,
          "internalType": "address",
          "name": "payer",
          "type": "address"
        },
        {
          "indexed": true,
          "internalType": "address",
          "name": "borrower",
          "type": "address"
        },
        {
          "indexed": false,
          "internalType": "uint256",
          "name": "repayAmount",
          "type": "uint256"
        },
        {
          "indexed": false,
          "internalType": "uint256",
          "name": "accountBorrows",
          "type": "uint256"
        },
        {
          "indexed": false,
          "internalType": "uint256",
          "name": "totalBorrows",
          "type": "uint256"
        }
      ],
      "name": "RepayBorrow",
      "type": "event"
    },
    {
      "anonymous": false,
      "inputs": [
        {
          "indexed": false,
          "internalType": "address",
          "name": "benefactor",
          "type": "address"
        },
        {
          "indexed": false,
          "internalType": "uint256",
          "name": "addAmount",
          "type": "uint256"
        },
        {
          "indexed": false,
          "internalType": "uint256",
          "name": "newTotalReserves",
          "type": "uint256"
        }
      ],
      "name": "ReservesAdded",
      "type": "event"
    },
    {
      "anonymous": false,
      "inputs": [
        {
          "indexed": false,
          "internalType": "address",
          "name": "admin",
          "type": "address"
        },
        {
          "indexed": false,
          "internalType": "uint256",
          "name": "reduceAmount",
          "type": "uint256"
        },
        {
          "indexed": false,
          "internalType": "uint256",
          "name": "newTotalReserves",
          "type": "uint256"
        }
      ],
      "name": "ReservesReduced",
      "type": "event"
    },
    {
      "anonymous": false,
      "inputs": [
        {
          "indexed": false,
          "internalType": "address",
          "name": "benefactor",
          "type": "address"
        },
        {
          "indexed": false,
          "internalType": "uint256",
          "name": "addAmount",
          "type": "uint256"
        },
        {
          "indexed": false,
          "internalType": "uint256",
          "name": "newSubsidyFund",
          "type": "uint256"
        }
      ],
      "name": "SubsidyAdded",
      "type": "event"
    },
    {
      "anonymous": false,
      "inputs": [
        {
          "indexed": true,
          "internalType": "address",
          "name": "from",
          "type": "address"
        },
        {
          "indexed": true,
          "internalType": "address",
          "name": "to",
          "type": "address"
        },
        {
          "indexed": false,
          "internalType": "uint256",
          "name": "amount",
          "type": "uint256"
        }
      ],
      "name": "Transfer",
      "type": "event"
    },
    {
      "constant": false,
      "inputs": [],
      "name": "_acceptAdmin",
      "outputs": [
        {
          "internalType": "uint256",
          "name": "",
          "type": "uint256"
        }
      ],
      "payable": false,
      "stateMutability": "nonpayable",
      "type": "function"
    },
    {
      "constant": false,
      "inputs": [
        {
          "internalType": "uint256",
          "name": "addAmount",
          "type": "uint256"
        }
      ],
      "name": "_addReserves",
      "outputs": [
        {
          "internalType": "uint256",
          "name": "",
          "type": "uint256"
        }
      ],
      "payable": false,
      "stateMutability": "nonpayable",
      "type": "function"
    },
    {
      "constant": false,
      "inputs": [
        {
          "internalType": "uint256",
          "name": "reduceAmount",
          "type": "uint256"
        }
      ],
      "name": "_reduceReserves",
      "outputs": [
        {
          "internalType": "uint256",
          "name": "",
          "type": "uint256"
        }
      ],
      "payable": false,
      "stateMutability": "nonpayable",
      "type": "function"
    },
    {
      "constant": false,
      "inputs": [
        {
          "internalType": "contract ComptrollerInterface",
          "name": "newComptroller",
          "type": "address"
        }
      ],
      "name": "_setComptroller",
      "outputs": [
        {
          "internalType": "uint256",
          "name": "",
          "type": "uint256"
        }
      ],
      "payable": false,
      "stateMutability": "nonpayable",
      "type": "function"
    },
    {
      "constant": false,
      "inputs": [
        {
          "internalType": "contract InterestRateModel",
          "name": "newInterestRateModel",
          "type": "address"
        }
      ],
      "name": "_setInterestRateModel",
      "outputs": [
        {
          "internalType": "uint256",
          "name": "",
          "type": "uint256"
        }
      ],
      "payable": false,
      "stateMutability": "nonpayable",
      "type": "function"
    },
    {
      "constant": false,
      "inputs": [
        {
          "internalType": "address payable",
          "name": "newPendingAdmin",
          "type": "address"
        }
      ],
      "name": "_setPendingAdmin",
      "outputs": [
        {
          "internalType": "uint256",
          "name": "",
          "type": "uint256"
        }
      ],
      "payable": false,
      "stateMutability": "nonpayable",
      "type": "function"
    },
    {
      "constant": false,
      "inputs": [
        {
          "internalType": "uint256",
          "name": "newReserveFactorMantissa",
          "type": "uint256"
        }
      ],
      "name": "_setReserveFactor",
      "outputs": [
        {
          "internalType": "uint256",
          "name": "",
          "type": "uint256"
        }
      ],
      "payable": false,
      "stateMutability": "nonpayable",
      "type": "function"
    },
    {
      "constant": true,
      "inputs": [],
      "name": "accrualBlockNumber",
      "outputs": [
        {
          "internalType": "uint256",
          "name": "",
          "type": "uint256"
        }
      ],
      "payable": false,
      "stateMutability": "view",
      "type": "function"
    },
    {
      "constant": false,
      "inputs": [],
      "name": "accrueInterest",
      "outputs": [
        {
          "internalType": "uint256",
          "name": "",
          "type": "uint256"
        }
      ],
      "payable": false,
      "stateMutability": "nonpayable",
      "type": "function"
    },
    {
      "constant": true,
      "inputs": [],
      "name": "admin",
      "outputs": [
        {
          "internalType": "address payable",
          "name": "",
          "type": "address"
        }
      ],
      "payable": false,
      "stateMutability": "view",
      "type": "function"
    },
    {
      "constant": true,
      "inputs": [
        {
          "internalType": "address",
          "name": "owner",
          "type": "address"
        },
        {
          "internalType": "address",
          "name": "spender",
          "type": "address"
        }
      ],
      "name": "allowance",
      "outputs": [
        {
          "internalType": "uint256",
          "name": "",
          "type": "uint256"
        }
      ],
      "payable": false,
      "stateMutability": "view",
      "type": "function"
    },
    {
      "constant": false,
      "inputs": [
        {
          "internalType": "address",
          "name": "spender",
          "type": "address"
        },
        {
          "internalType": "uint256",
          "name": "amount",
          "type": "uint256"
        }
      ],
      "name": "approve",
      "outputs": [
        {
          "internalType": "bool",
          "name": "",
          "type": "bool"
        }
      ],
      "payable": false,
      "stateMutability": "nonpayable",
      "type": "function"
    },
    {
      "constant": true,
      "inputs": [
        {
          "internalType": "address",
          "name": "owner",
          "type": "address"
        }
      ],
      "name": "balanceOf",
      "outputs": [
        {
          "internalType": "uint256",
          "name": "",
          "type": "uint256"
        }
      ],
      "payable": false,
      "stateMutability": "view",
      "type": "function"
    },
    {
      "constant": false,
      "inputs": [
        {
          "internalType": "address",
          "name": "owner",
          "type": "address"
        }
      ],
      "name": "balanceOfUnderlying",
      "outputs": [
        {
          "internalType": "uint256",
          "name": "",
          "type": "uint256"
        }
      ],
      "payable": false,
      "stateMutability": "nonpayable",
      "type": "function"
    },
    {
      "constant": false,
      "inputs": [
        {
          "internalType": "uint256",
          "name": "borrowAmount",
          "type": "uint256"
        }
      ],
      "name": "borrow",
      "outputs": [
        {
          "internalType": "uint256",
          "name": "",
          "type": "uint256"
        }
      ],
      "payable": false,
      "stateMutability": "nonpayable",
      "type": "function"
    },
    {
      "constant": false,
      "inputs": [
        {
          "internalType": "address",
          "name": "account",
          "type": "address"
        }
      ],
      "name": "borrowBalanceCurrent",
      "outputs": [
        {
          "internalType": "uint256",
          "name": "",
          "type": "uint256"
        }
      ],
      "payable": false,
      "stateMutability": "nonpayable",
      "type": "function"
    },
    {
      "constant": true,
      "inputs": [
        {
          "internalType": "address",
          "name": "account",
          "type": "address"
        }
      ],
      "name": "borrowBalanceStored",
      "outputs": [
        {
          "internalType": "uint256",
          "name": "",
          "type": "uint256"
        }
      ],
      "payable": false,
      "stateMutability": "view",
      "type": "function"
    },
    {
      "constant": true,
      "inputs": [],
      "name": "borrowIndex",
      "outputs": [
        {
          "internalType": "uint256",
          "name": "",
          "type": "uint256"
        }
      ],
      "payable": false,
      "stateMutability": "view",
      "type": "function"
    },
    {
      "constant": true,
      "inputs": [],
      "name": "borrowRatePerBlock",
      "outputs": [
        {
          "internalType": "uint256",
          "name": "",
          "type": "uint256"
        }
      ],
      "payable": false,
      "stateMutability": "view",
      "type": "function"
    },
    {
      "constant": true,
      "inputs": [],
      "name": "comptroller",
      "outputs": [
        {
          "internalType": "contract ComptrollerInterface",
          "name": "",
          "type": "address"
        }
      ],
      "payable": false,
      "stateMutability": "view",
      "type": "function"
    },
    {
      "constant": true,
      "inputs": [],
      "name": "decimals",
      "outputs": [
        {
          "internalType": "uint8",
          "name": "",
          "type": "uint8"
        }
      ],
      "payable": false,
      "stateMutability": "view",
      "type": "function"
    },
    {
      "constant": false,
      "inputs": [],
      "name": "exchangeRateCurrent",
      "outputs": [
        {
          "internalType": "uint256",
          "name": "",
          "type": "uint256"
        }
      ],
      "payable": false,
      "stateMutability": "nonpayable",
      "type": "function"
    },
    {
      "constant": true,
      "inputs": [],
      "name": "exchangeRateStored",
      "outputs": [
        {
          "internalType": "uint256",
          "name": "",
          "type": "uint256"
        }
      ],
      "payable": false,
      "stateMutability": "view",
      "type": "function"
    },
    {
      "constant": true,
      "inputs": [
        {
          "internalType": "address",
          "name": "account",
          "type": "address"
        }
      ],
      "name": "getAccountSnapshot",
      "outputs": [
        {
          "internalType": "uint256",
          "name": "",
          "type": "uint256"
        },
        {
          "internalType": "uint256",
          "name": "",
          "type": "uint256"
        },
        {
          "internalType": "uint256",
          "name": "",
          "type": "uint256"
        },
        {
          "internalType": "uint256",
          "name": "",
          "type": "uint256"
        }
      ],
      "payable": false,
      "stateMutability": "view",
      "type": "function"
    },
    {
      "constant": true,
      "inputs": [
        {
          "internalType": "address",
          "name": "account",
          "type": "address"
        }
      ],
      "name": "getBorrowerPrincipalStored",
      "outputs": [
        {
          "internalType": "uint256",
          "name": "borrowed",
          "type": "uint256"
        }
      ],
      "payable": false,
      "stateMutability": "view",
      "type": "function"
    },
    {
      "constant": true,
      "inputs": [],
      "name": "getCash",
      "outputs": [
        {
          "internalType": "uint256",
          "name": "",
          "type": "uint256"
        }
      ],
      "payable": false,
      "stateMutability": "view",
      "type": "function"
    },
    {
      "constant": true,
      "inputs": [
        {
          "internalType": "address",
          "name": "account",
          "type": "address"
        }
      ],
      "name": "getSupplierSnapshotStored",
      "outputs": [
        {
          "internalType": "uint256",
          "name": "tokens",
          "type": "uint256"
        },
        {
          "internalType": "uint256",
          "name": "underlyingAmount",
          "type": "uint256"
        },
        {
          "internalType": "uint256",
          "name": "suppliedAt",
          "type": "uint256"
        },
        {
          "internalType": "uint256",
          "name": "promisedSupplyRate",
          "type": "uint256"
        }
      ],
      "payable": false,
      "stateMutability": "view",
      "type": "function"
    },
    {
      "constant": true,
      "inputs": [],
      "name": "initialExchangeRateMantissa",
      "outputs": [
        {
          "internalType": "uint256",
          "name": "",
          "type": "uint256"
        }
      ],
      "payable": false,
      "stateMutability": "view",
      "type": "function"
    },
    {
      "constant": false,
      "inputs": [
        {
          "internalType": "address",
          "name": "underlying_",
          "type": "address"
        },
        {
          "internalType": "contract ComptrollerInterface",
          "name": "comptroller_",
          "type": "address"
        },
        {
          "internalType": "contract InterestRateModel",
          "name": "interestRateModel_",
          "type": "address"
        },
        {
          "internalType": "uint256",
          "name": "initialExchangeRateMantissa_",
          "type": "uint256"
        },
        {
          "internalType": "string",
          "name": "name_",
          "type": "string"
        },
        {
          "internalType": "string",
          "name": "symbol_",
          "type": "string"
        },
        {
          "internalType": "uint8",
          "name": "decimals_",
          "type": "uint8"
        }
      ],
      "name": "initialize",
      "outputs": [],
      "payable": false,
      "stateMutability": "nonpayable",
      "type": "function"
    },
    {
      "constant": false,
      "inputs": [
        {
          "internalType": "contract ComptrollerInterface",
          "name": "comptroller_",
          "type": "address"
        },
        {
          "internalType": "contract InterestRateModel",
          "name": "interestRateModel_",
          "type": "address"
        },
        {
          "internalType": "uint256",
          "name": "initialExchangeRateMantissa_",
          "type": "uint256"
        },
        {
          "internalType": "string",
          "name": "name_",
          "type": "string"
        },
        {
          "internalType": "string",
          "name": "symbol_",
          "type": "string"
        },
        {
          "internalType": "uint8",
          "name": "decimals_",
          "type": "uint8"
        }
      ],
      "name": "initialize",
      "outputs": [],
      "payable": false,
      "stateMutability": "nonpayable",
      "type": "function"
    },
    {
      "constant": true,
      "inputs": [],
      "name": "interestRateModel",
      "outputs": [
        {
          "internalType": "contract InterestRateModel",
          "name": "",
          "type": "address"
        }
      ],
      "payable": false,
      "stateMutability": "view",
      "type": "function"
    },
    {
      "constant": true,
      "inputs": [],
      "name": "isCToken",
      "outputs": [
        {
          "internalType": "bool",
          "name": "",
          "type": "bool"
        }
      ],
      "payable": false,
      "stateMutability": "view",
      "type": "function"
    },
    {
      "constant": false,
      "inputs": [
        {
          "internalType": "address",
          "name": "borrower",
          "type": "address"
        },
        {
          "internalType": "uint256",
          "name": "repayAmount",
          "type": "uint256"
        },
        {
          "internalType": "contract CTokenInterface",
          "name": "cTokenCollateral",
          "type": "address"
        }
      ],
      "name": "liquidateBorrow",
      "outputs": [
        {
          "internalType": "uint256",
          "name": "",
          "type": "uint256"
        }
      ],
      "payable": false,
      "stateMutability": "nonpayable",
      "type": "function"
    },
    {
      "constant": false,
      "inputs": [
        {
          "internalType": "uint256",
          "name": "mintAmount",
          "type": "uint256"
        }
      ],
      "name": "mint",
      "outputs": [
        {
          "internalType": "uint256",
          "name": "",
          "type": "uint256"
        }
      ],
      "payable": false,
      "stateMutability": "nonpayable",
      "type": "function"
    },
    {
      "constant": true,
      "inputs": [],
      "name": "name",
      "outputs": [
        {
          "internalType": "string",
          "name": "",
          "type": "string"
        }
      ],
      "payable": false,
      "stateMutability": "view",
      "type": "function"
    },
    {
      "constant": true,
      "inputs": [],
      "name": "pendingAdmin",
      "outputs": [
        {
          "internalType": "address payable",
          "name": "",
          "type": "address"
        }
      ],
      "payable": false,
      "stateMutability": "view",
      "type": "function"
    },
    {
      "constant": false,
      "inputs": [
        {
          "internalType": "uint256",
          "name": "redeemTokens",
          "type": "uint256"
        }
      ],
      "name": "redeem",
      "outputs": [
        {
          "internalType": "uint256",
          "name": "",
          "type": "uint256"
        }
      ],
      "payable": false,
      "stateMutability": "nonpayable",
      "type": "function"
    },
    {
      "constant": false,
      "inputs": [
        {
          "internalType": "uint256",
          "name": "redeemAmount",
          "type": "uint256"
        }
      ],
      "name": "redeemUnderlying",
      "outputs": [
        {
          "internalType": "uint256",
          "name": "",
          "type": "uint256"
        }
      ],
      "payable": false,
      "stateMutability": "nonpayable",
      "type": "function"
    },
    {
      "constant": false,
      "inputs": [
        {
          "internalType": "uint256",
          "name": "repayAmount",
          "type": "uint256"
        }
      ],
      "name": "repayBorrow",
      "outputs": [
        {
          "internalType": "uint256",
          "name": "",
          "type": "uint256"
        }
      ],
      "payable": false,
      "stateMutability": "nonpayable",
      "type": "function"
    },
    {
      "constant": false,
      "inputs": [
        {
          "internalType": "address",
          "name": "borrower",
          "type": "address"
        },
        {
          "internalType": "uint256",
          "name": "repayAmount",
          "type": "uint256"
        }
      ],
      "name": "repayBorrowBehalf",
      "outputs": [
        {
          "internalType": "uint256",
          "name": "",
          "type": "uint256"
        }
      ],
      "payable": false,
      "stateMutability": "nonpayable",
      "type": "function"
    },
    {
      "constant": true,
      "inputs": [],
      "name": "reserveFactorMantissa",
      "outputs": [
        {
          "internalType": "uint256",
          "name": "",
          "type": "uint256"
        }
      ],
      "payable": false,
      "stateMutability": "view",
      "type": "function"
    },
    {
      "constant": false,
      "inputs": [
        {
          "internalType": "address",
          "name": "liquidator",
          "type": "address"
        },
        {
          "internalType": "address",
          "name": "borrower",
          "type": "address"
        },
        {
          "internalType": "uint256",
          "name": "seizeTokens",
          "type": "uint256"
        }
      ],
      "name": "seize",
      "outputs": [
        {
          "internalType": "uint256",
          "name": "",
          "type": "uint256"
        }
      ],
      "payable": false,
      "stateMutability": "nonpayable",
      "type": "function"
    },
    {
      "constant": true,
      "inputs": [],
      "name": "subsidyFund",
      "outputs": [
        {
          "internalType": "uint256",
          "name": "",
          "type": "uint256"
        }
      ],
      "payable": false,
      "stateMutability": "view",
      "type": "function"
    },
    {
      "constant": true,
      "inputs": [],
      "name": "supplyRatePerBlock",
      "outputs": [
        {
          "internalType": "uint256",
          "name": "",
          "type": "uint256"
        }
      ],
      "payable": false,
      "stateMutability": "view",
      "type": "function"
    },
    {
      "constant": false,
      "inputs": [
        {
          "internalType": "contract EIP20NonStandardInterface",
          "name": "token",
          "type": "address"
        }
      ],
      "name": "sweepToken",
      "outputs": [],
      "payable": false,
      "stateMutability": "nonpayable",
      "type": "function"
    },
    {
      "constant": true,
      "inputs": [],
      "name": "symbol",
      "outputs": [
        {
          "internalType": "string",
          "name": "",
          "type": "string"
        }
      ],
      "payable": false,
      "stateMutability": "view",
      "type": "function"
    },
    {
      "constant": true,
      "inputs": [],
      "name": "totalBorrows",
      "outputs": [
        {
          "internalType": "uint256",
          "name": "",
          "type": "uint256"
        }
      ],
      "payable": false,
      "stateMutability": "view",
      "type": "function"
    },
    {
      "constant": false,
      "inputs": [],
      "name": "totalBorrowsCurrent",
      "outputs": [
        {
          "internalType": "uint256",
          "name": "",
          "type": "uint256"
        }
      ],
      "payable": false,
      "stateMutability": "nonpayable",
      "type": "function"
    },
    {
      "constant": true,
      "inputs": [],
      "name": "totalReserves",
      "outputs": [
        {
          "internalType": "uint256",
          "name": "",
          "type": "uint256"
        }
      ],
      "payable": false,
      "stateMutability": "view",
      "type": "function"
    },
    {
      "constant": true,
      "inputs": [],
      "name": "totalSupply",
      "outputs": [
        {
          "internalType": "uint256",
          "name": "",
          "type": "uint256"
        }
      ],
      "payable": false,
      "stateMutability": "view",
      "type": "function"
    },
    {
      "constant": false,
      "inputs": [
        {
          "internalType": "address",
          "name": "dst",
          "type": "address"
        },
        {
          "internalType": "uint256",
          "name": "amount",
          "type": "uint256"
        }
      ],
      "name": "transfer",
      "outputs": [
        {
          "internalType": "bool",
          "name": "",
          "type": "bool"
        }
      ],
      "payable": false,
      "stateMutability": "nonpayable",
      "type": "function"
    },
    {
      "constant": false,
      "inputs": [
        {
          "internalType": "address",
          "name": "src",
          "type": "address"
        },
        {
          "internalType": "address",
          "name": "dst",
          "type": "address"
        },
        {
          "internalType": "uint256",
          "name": "amount",
          "type": "uint256"
        }
      ],
      "name": "transferFrom",
      "outputs": [
        {
          "internalType": "bool",
          "name": "",
          "type": "bool"
        }
      ],
      "payable": false,
      "stateMutability": "nonpayable",
      "type": "function"
    },
    {
      "constant": true,
      "inputs": [
        {
          "internalType": "address",
          "name": "account",
          "type": "address"
        }
      ],
      "name": "tropykusInterestAccrued",
      "outputs": [
        {
          "internalType": "enum CarefulMath.MathError",
          "name": "",
          "type": "uint8"
        },
        {
          "internalType": "uint256",
          "name": "",
          "type": "uint256"
        },
        {
          "internalType": "uint256",
          "name": "",
          "type": "uint256"
        },
        {
          "internalType": "uint256",
          "name": "",
          "type": "uint256"
        },
        {
          "internalType": "uint256",
          "name": "",
          "type": "uint256"
        }
      ],
      "payable": false,
      "stateMutability": "view",
      "type": "function"
    },
    {
      "constant": true,
      "inputs": [],
      "name": "underlying",
      "outputs": [
        {
          "internalType": "address",
          "name": "",
          "type": "address"
        }
      ],
      "payable": false,
      "stateMutability": "view",
      "type": "function"
    }
  ],
  "bytecode": "0x60806040523480156200001157600080fd5b50604051620062253803806200622583398181016040526101008110156200003857600080fd5b81516020830151604080850151606086015160808701805193519597949692959194919392820192846401000000008211156200007457600080fd5b9083019060208201858111156200008a57600080fd5b8251640100000000811182820188101715620000a557600080fd5b82525081516020918201929091019080838360005b83811015620000d4578181015183820152602001620000ba565b50505050905090810190601f168015620001025780820380516001836020036101000a031916815260200191505b50604052602001805160405193929190846401000000008211156200012657600080fd5b9083019060208201858111156200013c57600080fd5b82516401000000008111828201881017156200015757600080fd5b82525081516020918201929091019080838360005b83811015620001865781810151838201526020016200016c565b50505050905090810190601f168015620001b45780820380516001836020036101000a031916815260200191505b506040908152602082015191015160038054610100600160a81b03191633610100021790559092509050620001ef8888888888888862000223565b600380546001600160a01b0390921661010002610100600160a81b031990921691909117905550620008a695505050505050565b6200023e868686868686620002d260201b620014dc1760201c565b601280546001600160a01b0319166001600160a01b038981169190911791829055604080516318160ddd60e01b8152905192909116916318160ddd91600480820192602092909190829003018186803b1580156200029b57600080fd5b505afa158015620002b0573d6000803e3d6000fd5b505050506040513d6020811015620002c757600080fd5b505050505050505050565b60035461010090046001600160a01b031633146200031c576040805162461bcd60e51b8152602060048201526002602482015261543160f01b604482015290519081900360640190fd5b6009541580156200032d5750600a54155b62000364576040805162461bcd60e51b81526020600482015260026024820152612a1960f11b604482015290519081900360640190fd5b600784905583620003a1576040805162461bcd60e51b8152602060048201526002602482015261543360f01b604482015290519081900360640190fd5b6000620003b7876001600160e01b03620004b516565b90508015620003f2576040805162461bcd60e51b8152602060048201526002602482015261150d60f21b604482015290519081900360640190fd5b620004056001600160e01b036200060316565b600955670de0b6b3a7640000600a5562000428866001600160e01b036200060816565b9050801562000463576040805162461bcd60e51b8152602060048201526002602482015261543560f01b604482015290519081900360640190fd5b83516200047890600190602087019062000804565b5082516200048e90600290602086019062000804565b50506003805460ff90921660ff199283161790556000805490911660011790555050505050565b60035460009061010090046001600160a01b03163314620004ef57620004e76001603f6001600160e01b036200079416565b9050620005fe565b60055460408051623f1ee960e11b815290516001600160a01b0392831692851691627e3dd2916004808301926020929190829003018186803b1580156200053557600080fd5b505afa1580156200054a573d6000803e3d6000fd5b505050506040513d60208110156200056157600080fd5b50516200059b576040805162461bcd60e51b81526020600482015260036024820152622a191960e91b604482015290519081900360640190fd5b600580546001600160a01b0319166001600160a01b03858116918217909255604080519284168352602083019190915280517f7ac369dbd14fa5ea3f473ed67cc9d598964a77501540ba6751eb0b3decf5870d9281900390910190a160005b9150505b919050565b435b90565b600354600090819061010090046001600160a01b0316331462000645576200063c600160426001600160e01b036200079416565b915050620005fe565b620006586001600160e01b036200060316565b6009541462000678576200063c600a60416001600160e01b036200079416565b600660009054906101000a90046001600160a01b03169050826001600160a01b0316632191f92a6040518163ffffffff1660e01b815260040160206040518083038186803b158015620006ca57600080fd5b505afa158015620006df573d6000803e3d6000fd5b505050506040513d6020811015620006f657600080fd5b505162000730576040805162461bcd60e51b81526020600482015260036024820152622a191960e91b604482015290519081900360640190fd5b600680546001600160a01b0319166001600160a01b03858116918217909255604080519284168352602083019190915280517fedffc32e068c7c95dfd4bdfd5c4d939a084d6b11c4199eac8436ed234d72f9269281900390910190a16000620005fa565b60007f45b96fe442630264581b197e84bbada861235052c5a1aadfff9ea4e40a969aa0836010811115620007c457fe5b836052811115620007d157fe5b604080519283526020830191909152600082820152519081900360600190a1826010811115620007fd57fe5b9392505050565b828054600181600116156101000203166002900490600052602060002090601f016020900481019282601f106200084757805160ff191683800117855562000877565b8280016001018555821562000877579182015b82811115620008775782518255916020019190600101906200085a565b506200088592915062000889565b5090565b6200060591905b8082111562000885576000815560010162000890565b61596f80620008b66000396000f3fe608060405234801561001057600080fd5b50600436106103425760003560e01c8063852a12e3116101b8578063c139562b11610104578063f3fdb15a116100a2578063f8f9da281161007c578063f8f9da2814610b59578063fc610b3d14610b61578063fca7820b14610bc7578063fe9c44ae14610be457610342565b8063f3fdb15a14610b13578063f5e3c46214610b1b578063f851a44014610b5157610342565b8063db006a75116100de578063db006a7514610a9a578063dd62ed3e14610ab7578063e9c714f214610ae5578063f2b3abbd14610aed57610342565b8063c139562b14610a31578063c37f68e214610a57578063c5ebeaec14610a7d57610342565b8063a6afed9511610171578063ae9d70b01161014b578063ae9d70b0146109c5578063b2a02ff1146109cd578063b71d1a0c14610a03578063bd6d894d14610a2957610342565b8063a6afed9514610989578063a9059cbb14610991578063aa5af0fd146109bd57610342565b8063852a12e3146107cb5780638f840ddd146107e857806395d89b41146107f057806395dd9193146107f857806399d8c1b41461081e578063a0712d681461096c57610342565b8063313ce567116102925780635fe3b567116102305780636c540baf1161020a5780636c540baf1461078d5780636f307dc31461079557806370a082311461079d57806373acee98146107c357610342565b80635fe3b56714610760578063601a0bf114610768578063675d972c1461078557610342565b80633e9410101161026c5780633e941010146106c95780634576b5db146106e657806347bd37181461070c578063524fe4b51461071457610342565b8063313ce5671461067d5780633af9e6691461069b5780633b1d21a2146106c157610342565b8063182df0f5116102ff5780631df0ba9d116102d95780631df0ba9d146105ef57806323b872dd146105f75780632608f8181461062d578063267822471461065957610342565b8063182df0f5146104695780631a31d465146104715780631be19560146105c957610342565b806306fdde0314610347578063095ea7b3146103c45780630e75270214610404578063173b99041461043357806317bfdfbc1461043b57806318160ddd14610461575b600080fd5b61034f610bec565b6040805160208082528351818301528351919283929083019185019080838360005b83811015610389578181015183820152602001610371565b50505050905090810190601f1680156103b65780820380516001836020036101000a031916815260200191505b509250505060405180910390f35b6103f0600480360360408110156103da57600080fd5b506001600160a01b038135169060200135610c79565b604080519115158252519081900360200190f35b6104216004803603602081101561041a57600080fd5b5035610ce6565b60408051918252519081900360200190f35b610421610cfc565b6104216004803603602081101561045157600080fd5b50356001600160a01b0316610d02565b610421610da7565b610421610dad565b6105c7600480360360e081101561048757600080fd5b6001600160a01b03823581169260208101358216926040820135909216916060820135919081019060a081016080820135600160201b8111156104c957600080fd5b8201836020820111156104db57600080fd5b803590602001918460018302840111600160201b831117156104fc57600080fd5b91908080601f0160208091040260200160405190810160405280939291908181526020018383808284376000920191909152509295949360208101935035915050600160201b81111561054e57600080fd5b82018360208201111561056057600080fd5b803590602001918460018302840111600160201b8311171561058157600080fd5b91908080601f0160208091040260200160405190810160405280939291908181526020018383808284376000920191909152509295505050903560ff169150610e0b9050565b005b6105c7600480360360208110156105df57600080fd5b50356001600160a01b0316610eaa565b610421610fe1565b6103f06004803603606081101561060d57600080fd5b506001600160a01b03813581169160208101359091169060400135610fe7565b6104216004803603604081101561064357600080fd5b506001600160a01b038135169060200135611052565b610661611068565b604080516001600160a01b039092168252519081900360200190f35b610685611077565b6040805160ff9092168252519081900360200190f35b610421600480360360208110156106b157600080fd5b50356001600160a01b0316611080565b61042161111b565b610421600480360360208110156106df57600080fd5b503561112a565b610421600480360360208110156106fc57600080fd5b50356001600160a01b0316611135565b610421611270565b61073a6004803603602081101561072a57600080fd5b50356001600160a01b0316611276565b604080519485526020850193909352838301919091526060830152519081900360800190f35b6106616112a7565b6104216004803603602081101561077e57600080fd5b50356112b6565b61042161134a565b610421611350565b610661611356565b610421600480360360208110156107b357600080fd5b50356001600160a01b0316611365565b610421611380565b610421600480360360208110156107e157600080fd5b503561141b565b610421611426565b61034f61142c565b6104216004803603602081101561080e57600080fd5b50356001600160a01b0316611484565b6105c7600480360360c081101561083457600080fd5b6001600160a01b03823581169260208101359091169160408201359190810190608081016060820135600160201b81111561086e57600080fd5b82018360208201111561088057600080fd5b803590602001918460018302840111600160201b831117156108a157600080fd5b91908080601f0160208091040260200160405190810160405280939291908181526020018383808284376000920191909152509295949360208101935035915050600160201b8111156108f357600080fd5b82018360208201111561090557600080fd5b803590602001918460018302840111600160201b8311171561092657600080fd5b91908080601f0160208091040260200160405190810160405280939291908181526020018383808284376000920191909152509295505050903560ff1691506114dc9050565b6104216004803603602081101561098257600080fd5b5035611694565b6104216116a0565b6103f0600480360360408110156109a757600080fd5b506001600160a01b038135169060200135611a7b565b610421611ae5565b610421611aeb565b610421600480360360608110156109e357600080fd5b506001600160a01b03813581169160208101359091169060400135611b8a565b61042160048036036020811015610a1957600080fd5b50356001600160a01b0316611bf4565b610421611c80565b61042160048036036020811015610a4757600080fd5b50356001600160a01b0316611d21565b61073a60048036036020811015610a6d57600080fd5b50356001600160a01b0316611d3c565b61042160048036036020811015610a9357600080fd5b5035611dd1565b61042160048036036020811015610ab057600080fd5b5035611ddc565b61042160048036036040811015610acd57600080fd5b506001600160a01b0381358116916020013516611de7565b610421611e12565b61042160048036036020811015610b0357600080fd5b50356001600160a01b0316611f15565b610661611f4f565b61042160048036036060811015610b3157600080fd5b506001600160a01b03813581169160208101359160409091013516611f5e565b610661611f76565b610421611f8a565b610b8760048036036020811015610b7757600080fd5b50356001600160a01b0316611fee565b60405180866003811115610b9757fe5b60ff1681526020018581526020018481526020018381526020018281526020019550505050505060405180910390f35b61042160048036036020811015610bdd57600080fd5b5035612110565b6103f0612187565b60018054604080516020600284861615610100026000190190941693909304601f81018490048402820184019092528181529291830182828015610c715780601f10610c4657610100808354040283529160200191610c71565b820191906000526020600020905b815481529060010190602001808311610c5457829003601f168201915b505050505081565b3360008181526010602090815260408083206001600160a01b03871680855290835281842086905581518681529151939493909284927f8c5be1e5ebec7d5bd14f71427d1e84f3dd0314c0f7b2291e5b200ac8c7c3b925929081900390910190a360019150505b92915050565b600080610cf28361218c565b509150505b919050565b60085481565b6000805460ff16610d40576040805162461bcd60e51b81526020600482015260036024820152622a191b60e91b604482015290519081900360640190fd5b6000805460ff19168155610d526116a0565b14610d89576040805162461bcd60e51b8152602060048201526002602482015261543760f01b604482015290519081900360640190fd5b610d9282611484565b90505b6000805460ff19166001179055919050565b600d5481565b6000806000610dba61222e565b90925090506000826003811115610dcd57fe5b14610e04576040805162461bcd60e51b8152602060048201526002602482015261543960f01b604482015290519081900360640190fd5b9150505b90565b610e198686868686866114dc565b601280546001600160a01b0319166001600160a01b038981169190911791829055604080516318160ddd60e01b8152905192909116916318160ddd91600480820192602092909190829003018186803b158015610e7557600080fd5b505afa158015610e89573d6000803e3d6000fd5b505050506040513d6020811015610e9f57600080fd5b505050505050505050565b6012546001600160a01b0382811691161415610ef2576040805162461bcd60e51b8152602060048201526002602482015261453160f01b604482015290519081900360640190fd5b604080516370a0823160e01b815230600482015290516000916001600160a01b038416916370a0823191602480820192602092909190829003018186803b158015610f3c57600080fd5b505afa158015610f50573d6000803e3d6000fd5b505050506040513d6020811015610f6657600080fd5b50516003546040805163a9059cbb60e01b81526101009092046001600160a01b03908116600484015260248301849052905192935084169163a9059cbb9160448082019260009290919082900301818387803b158015610fc557600080fd5b505af1158015610fd9573d6000803e3d6000fd5b505050505050565b600e5481565b6000805460ff16611025576040805162461bcd60e51b81526020600482015260036024820152622a191b60e91b604482015290519081900360640190fd5b6000805460ff1916815561103b338686866123c6565b1490506000805460ff191660011790559392505050565b60008061105f8484612652565b50949350505050565b6004546001600160a01b031681565b60035460ff1681565b600061108a615800565b604051806020016040528061109d611c80565b90526001600160a01b0384166000908152600f60205260408120549192509081906110c99084906126f6565b909250905060008260038111156110dc57fe5b14611113576040805162461bcd60e51b81526020600482015260026024820152612a1b60f11b604482015290519081900360640190fd5b949350505050565b600061112561274a565b905090565b6000610ce0826127ca565b60035460009061010090046001600160a01b031633146111625761115b6001603f612857565b9050610cf7565b60055460408051623f1ee960e11b815290516001600160a01b0392831692851691627e3dd2916004808301926020929190829003018186803b1580156111a757600080fd5b505afa1580156111bb573d6000803e3d6000fd5b505050506040513d60208110156111d157600080fd5b505161120a576040805162461bcd60e51b81526020600482015260036024820152622a191960e91b604482015290519081900360640190fd5b600580546001600160a01b0319166001600160a01b03858116918217909255604080519284168352602083019190915280517f7ac369dbd14fa5ea3f473ed67cc9d598964a77501540ba6751eb0b3decf5870d9281900390910190a160005b9392505050565b600b5481565b6001600160a01b03166000908152600f60205260409020805460018201546002830154600390930154919390929190565b6005546001600160a01b031681565b6000805460ff166112f4576040805162461bcd60e51b81526020600482015260036024820152622a191b60e91b604482015290519081900360640190fd5b6000805460ff191681556113066116a0565b9050801561132c5761132481601081111561131d57fe5b6030612857565b915050610d95565b611335836128bd565b9150506000805460ff19166001179055919050565b60075481565b60095481565b6012546001600160a01b031681565b6001600160a01b03166000908152600f602052604090205490565b6000805460ff166113be576040805162461bcd60e51b81526020600482015260036024820152622a191b60e91b604482015290519081900360640190fd5b6000805460ff191681556113d06116a0565b14611407576040805162461bcd60e51b8152602060048201526002602482015261543760f01b604482015290519081900360640190fd5b50600b546000805460ff1916600117905590565b6000610ce0826129ec565b600c5481565b6002805460408051602060018416156101000260001901909316849004601f81018490048402820184019092528181529291830182828015610c715780601f10610c4657610100808354040283529160200191610c71565b600080600061149284612a66565b909250905060008260038111156114a557fe5b14611269576040805162461bcd60e51b81526020600482015260026024820152610a8760f31b604482015290519081900360640190fd5b60035461010090046001600160a01b03163314611525576040805162461bcd60e51b8152602060048201526002602482015261543160f01b604482015290519081900360640190fd5b6009541580156115355750600a54155b61156b576040805162461bcd60e51b81526020600482015260026024820152612a1960f11b604482015290519081900360640190fd5b6007849055836115a7576040805162461bcd60e51b8152602060048201526002602482015261543360f01b604482015290519081900360640190fd5b60006115b287611135565b905080156115ec576040805162461bcd60e51b8152602060048201526002602482015261150d60f21b604482015290519081900360640190fd5b6115f4612b1a565b600955670de0b6b3a7640000600a5561160c86612b1e565b90508015611646576040805162461bcd60e51b8152602060048201526002602482015261543560f01b604482015290519081900360640190fd5b8351611659906001906020870190615813565b50825161166d906002906020860190615813565b50506003805460ff90921660ff199283161790556000805490911660011790555050505050565b600080610cf283612c79565b6000806116ab612b1a565b600954909150808214156116c457600092505050610e08565b60006116ce61274a565b600b54600c54600a54600654604080516315f2405360e01b815260048101879052602481018690526044810185905290519596509394929391926000926001600160a01b03909216916315f24053916064808301926020929190829003018186803b15801561173c57600080fd5b505afa158015611750573d6000803e3d6000fd5b505050506040513d602081101561176657600080fd5b5051905065048c273950008111156117ab576040805162461bcd60e51b815260206004820152600360248201526205431360ec1b604482015290519081900360640190fd5b6000806117b88989612cf3565b909250905060008260038111156117cb57fe5b14611803576040805162461bcd60e51b815260206004820152600360248201526254313160e81b604482015290519081900360640190fd5b61180b615800565b60008060008061182960405180602001604052808a81525087612d16565b9097509450600087600381111561183c57fe5b1461186e576118596009600689600381111561185457fe5b612d7e565b9e505050505050505050505050505050610e08565b611878858c6126f6565b9097509350600087600381111561188b57fe5b146118a3576118596009600189600381111561185457fe5b6118ad848c612de4565b909750925060008760038111156118c057fe5b146118d8576118596009600489600381111561185457fe5b6118f36040518060200160405280600854815250858c612e0a565b9097509150600087600381111561190657fe5b1461191e576118596009600589600381111561185457fe5b600660009054906101000a90046001600160a01b03166001600160a01b031663e36c26e46040518163ffffffff1660e01b815260040160206040518083038186803b15801561196c57600080fd5b505afa158015611980573d6000803e3d6000fd5b505050506040513d602081101561199657600080fd5b5051156119d5576119aa888d8d8d88612e66565b909750915060008760038111156119bd57fe5b146119d5576118596009600589600381111561185457fe5b6119e0858a8b612e0a565b909750905060008760038111156119f357fe5b14611a0b576118596009600389600381111561185457fe5b60098e9055600a819055600b839055600c829055604080518d8152602081018690528082018390526060810185905290517f4dec04e750ca11537cabcd8a9eab06494de08da3735bc8871cd41250e190bc049181900360800190a160009e50505050505050505050505050505090565b6000805460ff16611ab9576040805162461bcd60e51b81526020600482015260036024820152622a191b60e91b604482015290519081900360640190fd5b6000805460ff19168155611acf333386866123c6565b1490506000805460ff1916600117905592915050565b600a5481565b6006546000906001600160a01b031663b8168816611b0761274a565b600b54600c546008546040518563ffffffff1660e01b81526004018085815260200184815260200183815260200182815260200194505050505060206040518083038186803b158015611b5957600080fd5b505afa158015611b6d573d6000803e3d6000fd5b505050506040513d6020811015611b8357600080fd5b5051905090565b6000805460ff16611bc8576040805162461bcd60e51b81526020600482015260036024820152622a191b60e91b604482015290519081900360640190fd5b6000805460ff19169055611bde338585856130db565b90506000805460ff191660011790559392505050565b60035460009061010090046001600160a01b03163314611c1a5761115b60016045612857565b600480546001600160a01b038481166001600160a01b0319831681179093556040805191909216808252602082019390935281517fca4f2f25d0898edd99413412fb94012f9e54ec8142f9b093e7720646a95b16a9929181900390910190a16000611269565b6000805460ff16611cbe576040805162461bcd60e51b81526020600482015260036024820152622a191b60e91b604482015290519081900360640190fd5b6000805460ff19168155611cd06116a0565b14611d07576040805162461bcd60e51b8152602060048201526002602482015261543760f01b604482015290519081900360640190fd5b611d0f610dad565b90506000805460ff1916600117905590565b6001600160a01b031660009081526011602052604090205490565b6001600160a01b0381166000908152600f6020526040812054819081908190818080611d6789612a66565b935090506000816003811115611d7957fe5b14611d975760095b975060009650869550859450611dca9350505050565b611d9f61222e565b925090506000816003811115611db157fe5b14611dbd576009611d81565b5060009650919450925090505b9193509193565b6000610ce0826132b7565b6000610ce08261332f565b6001600160a01b03918216600090815260106020908152604080832093909416825291909152205490565b6004546000906001600160a01b031633141580611e2d575033155b15611e4557611e3e60016000612857565b9050610e08565b60038054600480546001600160a01b03818116610100818102610100600160a81b0319871617968790556001600160a01b031990931690935560408051948390048216808652929095041660208401528351909391927ff9ffabca9c8276e99321725bcb43fb076a6c66a54b7f21c4e8146d8519b417dc92908290030190a1600454604080516001600160a01b038085168252909216602083015280517fca4f2f25d0898edd99413412fb94012f9e54ec8142f9b093e7720646a95b16a99281900390910190a160009250505090565b600080611f206116a0565b90508015611f4657611f3e816010811115611f3757fe5b6040612857565b915050610cf7565b61126983612b1e565b6006546001600160a01b031681565b600080611f6c8585856133a2565b5095945050505050565b60035461010090046001600160a01b031681565b6006546000906001600160a01b03166315f24053611fa661274a565b600b54600c546040518463ffffffff1660e01b815260040180848152602001838152602001828152602001935050505060206040518083038186803b158015611b5957600080fd5b6001600160a01b0381166000908152600f602052604081206003810154829182918291829161201b615800565b6040518060200160405280838152509050600061203e6009548560020154612cf3565b915050612049615800565b6120538383612d16565b91505061205e615800565b61207e6040518060200160405280670de0b6b3a7640000815250836134cd565b60018801549092509050612090615800565b5060408051602081019091528181526120a7615800565b6120b18483613507565b91505060006120c4826000015185612cf3565b9150506120cf615800565b82518b546120dd91906135f0565b9150506000866000015183836000015186600001519f509f509f509f509f50505050505050505050505091939590929450565b6000805460ff1661214e576040805162461bcd60e51b81526020600482015260036024820152622a191b60e91b604482015290519081900360640190fd5b6000805460ff191681556121606116a0565b9050801561217e5761132481601081111561217757fe5b6046612857565b611335836136a0565b600181565b60008054819060ff166121cc576040805162461bcd60e51b81526020600482015260036024820152622a191b60e91b604482015290519081900360640190fd5b6000805460ff191681556121de6116a0565b90508015612209576121fc8160108111156121f557fe5b6036612857565b92506000915061221a9050565b612214333386613748565b92509250505b6000805460ff191660011790559092909150565b600d54600090819080612249575050600754600091506123c2565b600080600061225661274a565b9050600660009054906101000a90046001600160a01b03166001600160a01b031663e36c26e46040518163ffffffff1660e01b815260040160206040518083038186803b1580156122a657600080fd5b505afa1580156122ba573d6000803e3d6000fd5b505050506040513d60208110156122d057600080fd5b50511561231a576122e033613a92565b909350915060008360038111156122f357fe5b141561230857506000945092506123c2915050565b600060075495509550505050506123c2565b600654600b54600c54600d5460408051639dc8bea760e01b81526004810187905260248101949094526044840192909252606483015280516001600160a01b0390931692639dc8bea7926084808201939291829003018186803b15801561238057600080fd5b505afa158015612394573d6000803e3d6000fd5b505050506040513d60408110156123aa57600080fd5b50805160209091015190965094506123c29350505050565b9091565b600554604080516317b9b84b60e31b81523060048201526001600160a01b03868116602483015285811660448301526064820185905291516000938493169163bdcdc25891608480830192602092919082900301818787803b15801561242b57600080fd5b505af115801561243f573d6000803e3d6000fd5b505050506040513d602081101561245557600080fd5b5051905080156124745761246c6003604a83612d7e565b915050611113565b836001600160a01b0316856001600160a01b0316141561249a5761246c6002604b612857565b60006001600160a01b0387811690871614156124b957506000196124e1565b506001600160a01b038086166000908152601060209081526040808320938a16835292905220545b6000806000806124f18589612cf3565b9094509250600084600381111561250457fe5b14612522576125156009604b612857565b9650505050505050611113565b6001600160a01b038a166000908152600f60205260409020546125459089612cf3565b9094509150600084600381111561255857fe5b14612569576125156009604c612857565b6001600160a01b0389166000908152600f602052604090205461258c9089612de4565b9094509050600084600381111561259f57fe5b146125b0576125156009604d612857565b6001600160a01b03808b166000908152600f6020526040808220859055918b168152208190556000198514612608576001600160a01b03808b166000908152601060209081526040808320938f168352929052208390555b886001600160a01b03168a6001600160a01b031660008051602061591b8339815191528a6040518082815260200191505060405180910390a35060009a9950505050505050505050565b60008054819060ff16612692576040805162461bcd60e51b81526020600482015260036024820152622a191b60e91b604482015290519081900360640190fd5b6000805460ff191681556126a46116a0565b905080156126cf576126c28160108111156126bb57fe5b6035612857565b9250600091506126e09050565b6126da338686613748565b92509250505b6000805460ff1916600117905590939092509050565b6000806000612703615800565b61270d8686612d16565b9092509050600082600381111561272057fe5b146127315750915060009050612743565b600061273c82613b74565b9350935050505b9250929050565b601254604080516370a0823160e01b815230600482015290516000926001600160a01b03169182916370a0823191602480820192602092909190829003018186803b15801561279857600080fd5b505afa1580156127ac573d6000803e3d6000fd5b505050506040513d60208110156127c257600080fd5b505191505090565b6000805460ff16612808576040805162461bcd60e51b81526020600482015260036024820152622a191b60e91b604482015290519081900360640190fd5b6000805460ff1916815561281a6116a0565b905080156128385761132481601081111561283157fe5b604e612857565b61284183613b83565b509150506000805460ff19166001179055919050565b60007f45b96fe442630264581b197e84bbada861235052c5a1aadfff9ea4e40a969aa083601081111561288657fe5b83605281111561289257fe5b604080519283526020830191909152600082820152519081900360600190a182601081111561126957fe5b600354600090819061010090046001600160a01b031633146128e557611f3e60016031612857565b6128ed612b1a565b6009541461290157611f3e600a6033612857565b8261290a61274a565b101561291c57611f3e600e6032612857565b600c5483111561293257611f3e60026034612857565b50600c5482810390811115612974576040805162461bcd60e51b815260206004820152600360248201526254323560e81b604482015290519081900360640190fd5b600c8190556003546129949061010090046001600160a01b031684613c51565b600354604080516101009092046001600160a01b0316825260208201859052818101839052517f3bad0c59cf2f06e7314077049f48a93578cd16f5ef92329f1dab1420a99c177e916060908290030190a16000611269565b6000805460ff16612a2a576040805162461bcd60e51b81526020600482015260036024820152622a191b60e91b604482015290519081900360640190fd5b6000805460ff19168155612a3c6116a0565b90508015612a5a57611324816010811115612a5357fe5b6027612857565b61133533600085613d2d565b6001600160a01b038116600090815260116020526040812080548291829182918291612a9d575060009450849350612b1592505050565b612aad8160000154600a546146d9565b90945092506000846003811115612ac057fe5b14612ad5575091935060009250612b15915050565b612ae3838260010154614718565b90945091506000846003811115612af657fe5b14612b0b575091935060009250612b15915050565b5060009450925050505b915091565b4390565b600354600090819061010090046001600160a01b03163314612b4657611f3e60016042612857565b612b4e612b1a565b60095414612b6257611f3e600a6041612857565b600660009054906101000a90046001600160a01b03169050826001600160a01b0316632191f92a6040518163ffffffff1660e01b815260040160206040518083038186803b158015612bb357600080fd5b505afa158015612bc7573d6000803e3d6000fd5b505050506040513d6020811015612bdd57600080fd5b5051612c16576040805162461bcd60e51b81526020600482015260036024820152622a191960e91b604482015290519081900360640190fd5b600680546001600160a01b0319166001600160a01b03858116918217909255604080519284168352602083019190915280517fedffc32e068c7c95dfd4bdfd5c4d939a084d6b11c4199eac8436ed234d72f9269281900390910190a16000611269565b60008054819060ff16612cb9576040805162461bcd60e51b81526020600482015260036024820152622a191b60e91b604482015290519081900360640190fd5b6000805460ff19168155612ccb6116a0565b90508015612ce9576121fc816010811115612ce257fe5b601e612857565b6122143385614743565b600080838311612d0a575060009050818303612743565b50600390506000612743565b6000612d20615800565b600080612d318660000151866146d9565b90925090506000826003811115612d4457fe5b14612d6357506040805160208101909152600081529092509050612743565b60408051602081019091529081526000969095509350505050565b60007f45b96fe442630264581b197e84bbada861235052c5a1aadfff9ea4e40a969aa0846010811115612dad57fe5b846052811115612db957fe5b604080519283526020830191909152818101859052519081900360600190a183601081111561111357fe5b600080838301848110612dfc57600092509050612743565b506002915060009050612743565b6000806000612e17615800565b612e218787612d16565b90925090506000826003811115612e3457fe5b14612e455750915060009050612e5e565b612e57612e5182613b74565b86612de4565b9350935050505b935093915050565b60065460408051630dce3c5b60e31b815260048101879052602481018690526044810185905290516000928392839283926001600160a01b031691636e71e2d8916064808301926020929190829003018186803b158015612ec657600080fd5b505afa158015612eda573d6000803e3d6000fd5b505050506040513d6020811015612ef057600080fd5b505160065460085460408051635c0b440b60e11b8152600481018d9052602481018c9052604481018b90526064810192909252519293506000926001600160a01b039092169163b816881691608480820192602092909190829003018186803b158015612f5c57600080fd5b505afa158015612f70573d6000803e3d6000fd5b505050506040513d6020811015612f8657600080fd5b50516006546040805163327a176d60e11b8152600481018d9052602481018c9052604481018b905290519293506001600160a01b03909116916364f42eda91606480820192602092909190829003018186803b158015612fe557600080fd5b505afa158015612ff9573d6000803e3d6000fd5b505050506040513d602081101561300f57600080fd5b5051156130c55761302e6040518060200160405280848152508b6126f6565b9095509250600085600381111561304157fe5b146130535750600092506130d1915050565b61305d8382612cf3565b9095509250600085600381111561307057fe5b146130825750600092506130d1915050565b61309b6040518060200160405280858152508789612e0a565b909550935060008560038111156130ae57fe5b146130c05750600092506130d1915050565b6130cd565b600094508693505b5050505b9550959350505050565b6005546040805163d02f735160e01b81523060048201526001600160a01b038781166024830152868116604483015285811660648301526084820185905291516000938493169163d02f73519160a480830192602092919082900301818787803b15801561314857600080fd5b505af115801561315c573d6000803e3d6000fd5b505050506040513d602081101561317257600080fd5b5051905080156131895761246c6003601b83612d7e565b846001600160a01b0316846001600160a01b031614156131af5761246c6006601c612857565b6001600160a01b0384166000908152600f6020526040812054819081906131d69087612cf3565b909350915060008360038111156131e957fe5b1461320c576132016009601a85600381111561185457fe5b945050505050611113565b6001600160a01b0388166000908152600f602052604090205461322f9087612de4565b9093509050600083600381111561324257fe5b1461325a576132016009601985600381111561185457fe5b6001600160a01b038088166000818152600f60209081526040808320879055938c168083529184902085905583518a81529351919360008051602061591b833981519152929081900390910190a360009998505050505050505050565b6000805460ff166132f5576040805162461bcd60e51b81526020600482015260036024820152622a191b60e91b604482015290519081900360640190fd5b6000805460ff191681556133076116a0565b905080156133255761132481601081111561331e57fe5b6008612857565b6113353384614d7a565b6000805460ff1661336d576040805162461bcd60e51b81526020600482015260036024820152622a191b60e91b604482015290519081900360640190fd5b6000805460ff1916815561337f6116a0565b9050801561339657611324816010811115612a5357fe5b61133533846000613d2d565b60008054819060ff166133e2576040805162461bcd60e51b81526020600482015260036024820152622a191b60e91b604482015290519081900360640190fd5b6000805460ff191681556133f46116a0565b9050801561341f5761341281601081111561340b57fe5b600f612857565b9250600091506134b69050565b836001600160a01b031663a6afed956040518163ffffffff1660e01b8152600401602060405180830381600087803b15801561345a57600080fd5b505af115801561346e573d6000803e3d6000fd5b505050506040513d602081101561348457600080fd5b5051905080156134a45761341281601081111561349d57fe5b6010612857565b6134b033878787615012565b92509250505b6000805460ff191660011790559094909350915050565b60006134d7615800565b6000806134ec86600001518660000151612de4565b60408051602081019091529081529097909650945050505050565b6000613511615800565b600080613526866000015186600001516146d9565b9092509050600082600381111561353957fe5b1461355857506040805160208101909152600081529092509050612743565b60008061356d6706f05b59d3b2000084612de4565b9092509050600082600381111561358057fe5b146135a257506040805160208101909152600081529094509250612743915050565b6000806135b783670de0b6b3a7640000614718565b909250905060008260038111156135ca57fe5b146135d157fe5b604080516020810190915290815260009a909950975050505050505050565b60006135fa615800565b60008061360f86670de0b6b3a76400006146d9565b9092509050600082600381111561362257fe5b1461364157506040805160208101909152600081529092509050612743565b60008061364e8388614718565b9092509050600082600381111561366157fe5b1461368357506040805160208101909152600081529094509250612743915050565b604080516020810190915290815260009890975095505050505050565b60035460009061010090046001600160a01b031633146136c65761115b60016047612857565b6136ce612b1a565b600954146136e25761115b600a6048612857565b670de0b6b3a76400008211156136fe5761115b60026049612857565b6008805490839055604080518281526020810185905281517faaa68312e2ea9d50e16af5068410ab56e1a1fd06037b1a35664812c30f821460929181900390910190a16000611269565b60055460408051631200453160e11b81523060048201526001600160a01b0386811660248301528581166044830152606482018590529151600093849384939116916324008a629160848082019260209290919082900301818787803b1580156137b157600080fd5b505af11580156137c5573d6000803e3d6000fd5b505050506040513d60208110156137db57600080fd5b5051905080156137ff576137f26003603883612d7e565b925060009150612e5e9050565b613807612b1a565b6009541461381b576137f2600a6039612857565b613823615891565b6001600160a01b038616600090815260116020526040902060010154606082015261384d86612a66565b608083018190526020830182600381111561386457fe5b600381111561386f57fe5b905250600090508160200151600381111561388657fe5b146138b0576138a2600960378360200151600381111561185457fe5b935060009250612e5e915050565b6000198514156138dd576080810151604082018190526138d390889060016154d9565b60e08201526138f4565b604081018590526138ee87866154e1565b60e08201525b61390681608001518260e00151612cf3565b60a083018190526020830182600381111561391d57fe5b600381111561392857fe5b905250600090508160200151600381111561393f57fe5b14613977576040805162461bcd60e51b815260206004820152600360248201526254313760e81b604482015290519081900360640190fd5b613987600b548260e00151612cf3565b60c083018190526020830182600381111561399e57fe5b60038111156139a957fe5b90525060009050816020015160038111156139c057fe5b146139f8576040805162461bcd60e51b81526020600482015260036024820152620a862760eb1b604482015290519081900360640190fd5b60a0810180516001600160a01b03808916600081815260116020908152604091829020948555600a5460019095019490945560c0860151600b81905560e087015195518251968752948601949094528481019390935291519192908a16917f1a2a22cb034d26d1854bdc6666a5b91fe25efbbb5dcad3b0355478d6f5c362a19181900360600190a360e00151600097909650945050505050565b600080600d5460001415613aad575050600754600090612b15565b6001600160a01b0383166000908152600f602052604090206002810154613adc57506001915060009050612b15565b8054613af057505060075460009150612b15565b6000613afb85611fee565b505050915050613b09615800565b5060408051602081019091528181526001830154613b25615800565b506040805160208101909152818152613b3c615800565b613b468483613507565b915050613b51615800565b81518754613b5f91906135f0565b5160009a509850612b15975050505050505050565b51670de0b6b3a7640000900490565b600080600080613b91612b1a565b60095414613bb057613ba5600a604f612857565b93509150612b159050565b613bba33866154e1565b905080600c54019150600c54821015613c00576040805162461bcd60e51b815260206004820152600360248201526254323360e81b604482015290519081900360640190fd5b600c829055604080513381526020810183905280820184905290517fa91e67c5ea634cd43a12c5a482724b03de01e85ca68702a53d0c2f45cb7c1dc59181900360600190a160009350915050915091565b6012546040805163a9059cbb60e01b81526001600160a01b0385811660048301526024820185905291519190921691829163a9059cbb9160448082019260009290919082900301818387803b158015613ca957600080fd5b505af1158015613cbd573d6000803e3d6000fd5b5050505060003d60008114613cd95760208114613ce357600080fd5b6000199150613cef565b60206000803e60005191505b5080613d27576040805162461bcd60e51b8152602060048201526002602482015261114d60f21b604482015290519081900360640190fd5b50505050565b6000821580613d3a575081155b613d71576040805162461bcd60e51b81526020600482015260036024820152622a189b60e91b604482015290519081900360640190fd5b613d79615891565b6001600160a01b0385166000908152600f60205260409020613d9961222e565b6040840181905260208401826003811115613db057fe5b6003811115613dbb57fe5b9052506000905082602001516003811115613dd257fe5b14613df757613dee6009602b8460200151600381111561185457fe5b92505050611269565b6000806000806000600660009054906101000a90046001600160a01b03166001600160a01b031663e36c26e46040518163ffffffff1660e01b815260040160206040518083038186803b158015613e4d57600080fd5b505afa158015613e61573d6000803e3d6000fd5b505050506040513d6020811015613e7757600080fd5b505190508015613e9e57613e8a8b611fee565b60018b018190559198509095508594505050505b6006546001600160a01b031663b8168816613eb761274a565b600b54600c546008546040518563ffffffff1660e01b81526004018085815260200184815260200183815260200182815260200194505050505060206040518083038186803b158015613f0957600080fd5b505afa158015613f1d573d6000803e3d6000fd5b505050506040513d6020811015613f3357600080fd5b50516003870155808015613fd157506006546001600160a01b03166364f42eda613f5b61274a565b600b54600c546040518463ffffffff1660e01b815260040180848152602001838152602001828152602001935050505060206040518083038186803b158015613fa357600080fd5b505afa158015613fb7573d6000803e3d6000fd5b505050506040513d6020811015613fcd57600080fd5b5051155b15614157576006546000906001600160a01b03166315f24053613ff261274a565b600b54600c546040518463ffffffff1660e01b815260040180848152602001838152602001828152602001935050505060206040518083038186803b15801561403a57600080fd5b505afa15801561404e573d6000803e3d6000fd5b505050506040513d602081101561406457600080fd5b50516006549091506000906001600160a01b0316636e71e2d861408561274a565b600b54600c546040518463ffffffff1660e01b815260040180848152602001838152602001828152602001935050505060206040518083038186803b1580156140cd57600080fd5b505afa1580156140e1573d6000803e3d6000fd5b505050506040513d60208110156140f757600080fd5b5051604080516020810190915283815290915060009061411790836126f6565b915050614128896003015482612cf3565b97506141349050615800565b614142888b600301546135f0565b91505061414f818a6126f6565b985050505050505b60001989141561418d5760408051602081018252908801518152865461417d91906126f6565b6080890181905299506141959050565b608087018990525b891561428257606087018a905280156141fe5785548a14156141c057600186015460808801526141f9565b6141c8615800565b6141d68860600151846156f5565b9150506141e1615800565b815188546141ef91906135f0565b5160808b01525050505b61427d565b61421a604051806020016040528089604001518152508b6126f6565b608089018190526020890182600381111561423157fe5b600381111561423c57fe5b905250600090508760200151600381111561425357fe5b1461427d5761426f600960298960200151600381111561185457fe5b975050505050505050611269565b614340565b6080870189905280156142cf57614297615800565b6142a9886080015188600001546156f5565b9150506142b4615800565b81516142c090856135f0565b5160608b015250614340915050565b6142eb8960405180602001604052808a60400151815250615730565b606089018190526020890182600381111561430257fe5b600381111561430d57fe5b905250600090508760200151600381111561432457fe5b146143405761426f6009602a8960200151600381111561185457fe5b60055460608801516040805163eabe7d9160e01b81523060048201526001600160a01b038f8116602483015260448201939093529051600093929092169163eabe7d919160648082019260209290919082900301818787803b1580156143a557600080fd5b505af11580156143b9573d6000803e3d6000fd5b505050506040513d60208110156143cf57600080fd5b5051905080156143f5576143e66003602883612d7e565b98505050505050505050611269565b6143fd612b1a565b60095414614411576143e6600a602c612857565b614421600d548960600151612cf3565b60a08a0181905260208a0182600381111561443857fe5b600381111561444357fe5b905250600090508860200151600381111561445a57fe5b14614476576143e66009602e8a60200151600381111561185457fe5b614482600e5486612cf3565b60e08a015250865460608901516144999190612cf3565b60c08a0181905260208a018260038111156144b057fe5b60038111156144bb57fe5b90525060009050886020015160038111156144d257fe5b146144ee576143e66009602d8a60200151600381111561185457fe5b60006144f861274a565b905082156145035750475b886080015181101561452b5761451b600e602f612857565b9950505050505050505050611269565b6145398d8a60800151613c51565b60a0890151600d5560e0890151600e5560c089015188556009546002890155600188015460808a015161456c9190612cf3565b9050886001016000829190505550306001600160a01b03168d6001600160a01b031660008051602061591b8339815191528b606001516040518082815260200191505060405180910390a38c6001600160a01b03167fe5b754fb1abb7f01b499791d0b820ae3b6af3424ac1c59768edb53f4ec31a9298a608001518b60600151604051808381526020018281526020019250505060405180910390a2600560009054906101000a90046001600160a01b03166001600160a01b03166351dff989308f8c608001518d606001516040518563ffffffff1660e01b815260040180856001600160a01b03166001600160a01b03168152602001846001600160a01b03166001600160a01b03168152602001838152602001828152602001945050505050600060405180830381600087803b1580156146a757600080fd5b505af11580156146bb573d6000803e3d6000fd5b50600092506146c8915050565b9d9c50505050505050505050505050565b600080836146ec57506000905080612743565b838302838582816146f957fe5b041461470d57506002915060009050612743565b600092509050612743565b6000808261472c5750600190506000612743565b600083858161473757fe5b04915091509250929050565b6001600160a01b038216600090815260116020526040812054819015614796576040805162461bcd60e51b81526020600482015260036024820152622a189960e91b604482015290519081900360640190fd5b60055460408051634ef4c3e160e01b81523060048201526001600160a01b0387811660248301526044820187905291516000939290921691634ef4c3e19160648082019260209290919082900301818787803b1580156147f557600080fd5b505af1158015614809573d6000803e3d6000fd5b505050506040513d602081101561481f57600080fd5b505190508015614843576148366003601f83612d7e565b9250600091506127439050565b61484b612b1a565b6009541461485f57614836600a6022612857565b614867615891565b61486f61222e565b604083018190526020830182600381111561488657fe5b600381111561489157fe5b90525060009050816020015160038111156148a857fe5b146148d2576148c4600960218360200151600381111561185457fe5b935060009250612743915050565b608081018590526148e38682615747565b6148ed86866154e1565b60e082018190526040805160208101825290830151815261490e9190615730565b606083018190526020830182600381111561492557fe5b600381111561493057fe5b905250600090508160200151600381111561494757fe5b1461497f576040805162461bcd60e51b815260206004820152600360248201526254313360e81b604482015290519081900360640190fd5b61498f600d548260600151612de4565b60a08301819052602083018260038111156149a657fe5b60038111156149b157fe5b90525060009050816020015160038111156149c857fe5b14614a00576040805162461bcd60e51b8152602060048201526003602482015262150c4d60ea1b604482015290519081900360640190fd5b6001600160a01b0386166000908152600f60205260409020546060820151614a289190612de4565b60c0830181905260208301826003811115614a3f57fe5b6003811115614a4a57fe5b9052506000905081602001516003811115614a6157fe5b14614a99576040805162461bcd60e51b815260206004820152600360248201526254313560e81b604482015290519081900360640190fd5b6006546000906001600160a01b031663b8168816614ab561274a565b600b54600c546008546040518563ffffffff1660e01b81526004018085815260200184815260200183815260200182815260200194505050505060206040518083038186803b158015614b0757600080fd5b505afa158015614b1b573d6000803e3d6000fd5b505050506040513d6020811015614b3157600080fd5b5051600654604080516338db09b960e21b815290519293506000926001600160a01b039092169163e36c26e491600480820192602092909190829003018186803b158015614b7e57600080fd5b505afa158015614b92573d6000803e3d6000fd5b505050506040513d6020811015614ba857600080fd5b50516001600160a01b0389166000908152600f602052604090205490915015614c8f57614bd3615800565b8115614bff576000614be48a611fee565b60408051602081019091529081529550614c7e945050505050565b6001600160a01b0389166000908152600f602090815260408083205481518084018352818152825193840183529188015183529291614c3e9190613507565b935090506000816003811115614c5057fe5b14614c7b57614c686009602083600381111561185457fe5b9850600097506127439650505050505050565b50505b8051614c8a9089612de4565b985050505b60a0830151600d556040805160808101825260c0850151815260208082018a815260095483850190815260608085018881526001600160a01b038f166000818152600f8752889020965187559351600187015591516002860155905160039094019390935560e087015192870151845193845291830191909152825190927f4c209b5fc8ad50758f13e2e1088ba56a560dff690a1c6fef26394f4c03821c4f928290030190a2606083015160408051918252516001600160a01b038a1691309160008051602061591b8339815191529181900360200190a3505060e001516000969095509350505050565b6005546040805163368f515360e21b81523060048201526001600160a01b0385811660248301526044820185905291516000938493169163da3d454c91606480830192602092919082900301818787803b158015614dd757600080fd5b505af1158015614deb573d6000803e3d6000fd5b505050506040513d6020811015614e0157600080fd5b505190508015614e2057614e186003600e83612d7e565b915050610ce0565b614e28612b1a565b60095414614e3b57614e18600a80612857565b82614e4461274a565b1015614e5657614e18600e6009612857565b614e5e6158d7565b614e6785612a66565b6020830181905282826003811115614e7b57fe5b6003811115614e8657fe5b9052506000905081516003811115614e9a57fe5b14614ebf57614eb6600960078360000151600381111561185457fe5b92505050610ce0565b614ecd816020015185612de4565b6040830181905282826003811115614ee157fe5b6003811115614eec57fe5b9052506000905081516003811115614f0057fe5b14614f1c57614eb66009600c8360000151600381111561185457fe5b614f28600b5485612de4565b6060830181905282826003811115614f3c57fe5b6003811115614f4757fe5b9052506000905081516003811115614f5b57fe5b14614f7757614eb66009600b8360000151600381111561185457fe5b614f81858261574b565b9050614f8d8585613c51565b604080820180516001600160a01b03881660008181526011602090815290859020928355600a54600190930192909255606080860151600b819055935185518a8152938401528285019390935292517f13ed6866d4e1ee6da46f845c46d7e54120883d75c5ea9a2dacc1c4ca8984ab80929181900390910190a2600095945050505050565b60055460408051632fe3f38f60e11b81523060048201526001600160a01b0384811660248301528781166044830152868116606483015260848201869052915160009384938493911691635fc7e71e9160a48082019260209290919082900301818787803b15801561508357600080fd5b505af1158015615097573d6000803e3d6000fd5b505050506040513d60208110156150ad57600080fd5b5051905080156150d1576150c46003601283612d7e565b9250600091506154d09050565b6150d9612b1a565b600954146150ed576150c4600a6016612857565b6150f5612b1a565b846001600160a01b0316636c540baf6040518163ffffffff1660e01b815260040160206040518083038186803b15801561512e57600080fd5b505afa158015615142573d6000803e3d6000fd5b505050506040513d602081101561515857600080fd5b50511461516b576150c4600a6011612857565b866001600160a01b0316866001600160a01b03161415615191576150c460066017612857565b846151a2576150c460076015612857565b6000198514156151b8576150c460076014612857565b6000806151c6898989613748565b909250905081156151f6576151e78260108111156151e057fe5b6018612857565b9450600093506154d092505050565b6005546040805163c488847b60e01b81523060048201526001600160a01b038981166024830152604482018590528251600094859492169263c488847b926064808301939192829003018186803b15801561525057600080fd5b505afa158015615264573d6000803e3d6000fd5b505050506040513d604081101561527a57600080fd5b508051602090910151909250905081156152c1576040805162461bcd60e51b815260206004820152600360248201526254313960e81b604482015290519081900360640190fd5b80886001600160a01b03166370a082318c6040518263ffffffff1660e01b815260040180826001600160a01b03166001600160a01b0316815260200191505060206040518083038186803b15801561531857600080fd5b505afa15801561532c573d6000803e3d6000fd5b505050506040513d602081101561534257600080fd5b5051101561537d576040805162461bcd60e51b815260206004820152600360248201526205432360ec1b604482015290519081900360640190fd5b60006001600160a01b0389163014156153a35761539c308d8d856130db565b905061542d565b6040805163b2a02ff160e01b81526001600160a01b038e811660048301528d81166024830152604482018590529151918b169163b2a02ff1916064808201926020929091908290030181600087803b1580156153fe57600080fd5b505af1158015615412573d6000803e3d6000fd5b505050506040513d602081101561542857600080fd5b505190505b8015615466576040805162461bcd60e51b815260206004820152600360248201526254323160e81b604482015290519081900360640190fd5b886001600160a01b03168b6001600160a01b03168d6001600160a01b03167f298637f684da70674f26509b10f07ec2fbc77a335ab1e7d6215a4b2484d8bb528786604051808381526020018281526020019250505060405180910390a46000975092955050505050505b94509492505050565b600061111384845b601254604080516370a0823160e01b815230600482015290516000926001600160a01b031691839183916370a08231916024808301926020929190829003018186803b15801561553057600080fd5b505afa158015615544573d6000803e3d6000fd5b505050506040513d602081101561555a57600080fd5b5051604080516323b872dd60e01b81526001600160a01b038881166004830152306024830152604482018890529151929350908416916323b872dd9160648082019260009290919082900301818387803b1580156155b757600080fd5b505af11580156155cb573d6000803e3d6000fd5b5050505060003d600081146155e757602081146155f157600080fd5b60001991506155fd565b60206000803e60005191505b5080615635576040805162461bcd60e51b8152602060048201526002602482015261229960f11b604482015290519081900360640190fd5b601254604080516370a0823160e01b815230600482015290516000926001600160a01b0316916370a08231916024808301926020929190829003018186803b15801561568057600080fd5b505afa158015615694573d6000803e3d6000fd5b505050506040513d60208110156156aa57600080fd5b50519050828110156156e8576040805162461bcd60e51b8152602060048201526002602482015261453360f01b604482015290519081900360640190fd5b9190910395945050505050565b60006156ff615800565b615725604051806020016040528086815250604051806020016040528086815250613507565b915091509250929050565b600080600061573d615800565b61270d86866157a1565b5050565b6157536158d7565b683635c9adc5dea000008260400151111561579b576040805162461bcd60e51b815260206004820152600360248201526252443160e81b604482015290519081900360640190fd5b50919050565b60006157ab615800565b6000806157c0670de0b6b3a7640000876146d9565b909250905060008260038111156157d357fe5b146157f257506040805160208101909152600081529092509050612743565b61273c8186600001516135f0565b6040518060200160405280600081525090565b828054600181600116156101000203166002900490600052602060002090601f016020900481019282601f1061585457805160ff1916838001178555615881565b82800160010185558215615881579182015b82811115615881578251825591602001919060010190615866565b5061588d929150615900565b5090565b6040805161010081019091528060008152602001600081526020016000815260200160008152602001600081526020016000815260200160008152602001600081525090565b604080516080810190915280600081526020016000815260200160008152602001600081525090565b610e0891905b8082111561588d576000815560010161590656feddf252ad1be2c89b69c2b068fc378daa952ba7f163c4a11628f55a4df523b3efa265627a7a72315820425ec8d831c4005172e9b7ff19174eb30026656b3adc3aa8b6c838c8fc38825b64736f6c63430005100032",
  "linkReferences": {},
  "deployedLinkReferences": {}
}