{
  "_format": "hh-sol-artifact-1",
  "contractName": "HurricaneInterestRateModel",
  "sourceName": "contracts/HurricaneInterestRateModel.sol",
  "abi": [
    {
      "inputs": [
        {
          "internalType": "uint256",
          "name": "_baseBorrowRate",
          "type": "uint256"
        },
        {
          "internalType": "uint256",
          "name": "_promisedBaseReturnRate",
          "type": "uint256"
        },
        {
          "internalType": "uint256",
          "name": "_optimalUtilizationRate",
          "type": "uint256"
        },
        {
          "internalType": "uint256",
          "name": "_borrowRateSlope",
          "type": "uint256"
        },
        {
          "internalType": "uint256",
          "name": "_supplyRateSlope",
          "type": "uint256"
        }
      ],
      "payable": false,
      "stateMutability": "nonpayable",
      "type": "constructor"
    },
    {
      "constant": true,
      "inputs": [],
      "name": "baseBorrowRatePerBlock",
      "outputs": [
        {
          "internalType": "uint256",
          "name": "",
          "type": "uint256"
        }
      ],
      "payable": false,
      "stateMutability": "view",
      "type": "function"
    },
    {
      "constant": true,
      "inputs": [],
      "name": "blocksPerYear",
      "outputs": [
        {
          "internalType": "uint256",
          "name": "",
          "type": "uint256"
        }
      ],
      "payable": false,
      "stateMutability": "view",
      "type": "function"
    },
    {
      "constant": true,
      "inputs": [],
      "name": "borrowRateSlopePerBlock",
      "outputs": [
        {
          "internalType": "uint256",
          "name": "",
          "type": "uint256"
        }
      ],
      "payable": false,
      "stateMutability": "view",
      "type": "function"
    },
    {
      "constant": true,
      "inputs": [
        {
          "internalType": "uint256",
          "name": "cash",
          "type": "uint256"
        },
        {
          "internalType": "uint256",
          "name": "borrows",
          "type": "uint256"
        },
        {
          "internalType": "uint256",
          "name": "reserves",
          "type": "uint256"
        }
      ],
      "name": "getBorrowRate",
      "outputs": [
        {
          "internalType": "uint256",
          "name": "borrowRate",
          "type": "uint256"
        }
      ],
      "payable": false,
      "stateMutability": "view",
      "type": "function"
    },
    {
      "constant": true,
      "inputs": [
        {
          "internalType": "uint256",
          "name": "_totalCash",
          "type": "uint256"
        },
        {
          "internalType": "uint256",
          "name": "_totalBorrows",
          "type": "uint256"
        },
        {
          "internalType": "uint256",
          "name": "_totalReserves",
          "type": "uint256"
        },
        {
          "internalType": "uint256",
          "name": "_totalSupply",
          "type": "uint256"
        }
      ],
      "name": "getExchangeRate",
      "outputs": [
        {
          "internalType": "enum CarefulMath.MathError",
          "name": "",
          "type": "uint8"
        },
        {
          "internalType": "uint256",
          "name": "",
          "type": "uint256"
        }
      ],
      "payable": false,
      "stateMutability": "pure",
      "type": "function"
    },
    {
      "constant": true,
      "inputs": [
        {
          "internalType": "uint256",
          "name": "cash",
          "type": "uint256"
        },
        {
          "internalType": "uint256",
          "name": "borrows",
          "type": "uint256"
        },
        {
          "internalType": "uint256",
          "name": "reserves",
          "type": "uint256"
        },
        {
          "internalType": "uint256",
          "name": "reserveFactorMantissa",
          "type": "uint256"
        }
      ],
      "name": "getSupplyRate",
      "outputs": [
        {
          "internalType": "uint256",
          "name": "",
          "type": "uint256"
        }
      ],
      "payable": false,
      "stateMutability": "view",
      "type": "function"
    },
    {
      "constant": true,
      "inputs": [
        {
          "internalType": "uint256",
          "name": "cash",
          "type": "uint256"
        },
        {
          "internalType": "uint256",
          "name": "borrows",
          "type": "uint256"
        },
        {
          "internalType": "uint256",
          "name": "reserves",
          "type": "uint256"
        }
      ],
      "name": "isAboveOptimal",
      "outputs": [
        {
          "internalType": "bool",
          "name": "",
          "type": "bool"
        }
      ],
      "payable": false,
      "stateMutability": "view",
      "type": "function"
    },
    {
      "constant": true,
      "inputs": [],
      "name": "isInterestRateModel",
      "outputs": [
        {
          "internalType": "bool",
          "name": "",
          "type": "bool"
        }
      ],
      "payable": false,
      "stateMutability": "view",
      "type": "function"
    },
    {
      "constant": true,
      "inputs": [],
      "name": "isTropykusInterestRateModel",
      "outputs": [
        {
          "internalType": "bool",
          "name": "",
          "type": "bool"
        }
      ],
      "payable": false,
      "stateMutability": "view",
      "type": "function"
    },
    {
      "constant": true,
      "inputs": [],
      "name": "optimalUtilizationRate",
      "outputs": [
        {
          "internalType": "uint256",
          "name": "",
          "type": "uint256"
        }
      ],
      "payable": false,
      "stateMutability": "view",
      "type": "function"
    },
    {
      "constant": true,
      "inputs": [],
      "name": "owner",
      "outputs": [
        {
          "internalType": "address",
          "name": "",
          "type": "address"
        }
      ],
      "payable": false,
      "stateMutability": "view",
      "type": "function"
    },
    {
      "constant": true,
      "inputs": [],
      "name": "promisedBaseReturnRatePerBlock",
      "outputs": [
        {
          "internalType": "uint256",
          "name": "",
          "type": "uint256"
        }
      ],
      "payable": false,
      "stateMutability": "view",
      "type": "function"
    },
    {
      "constant": true,
      "inputs": [],
      "name": "supplyRateSlopePerBlock",
      "outputs": [
        {
          "internalType": "uint256",
          "name": "",
          "type": "uint256"
        }
      ],
      "payable": false,
      "stateMutability": "view",
      "type": "function"
    },
    {
      "constant": true,
      "inputs": [
        {
          "internalType": "uint256",
          "name": "cash",
          "type": "uint256"
        },
        {
          "internalType": "uint256",
          "name": "borrows",
          "type": "uint256"
        },
        {
          "internalType": "uint256",
          "name": "reserves",
          "type": "uint256"
        }
      ],
      "name": "utilizationRate",
      "outputs": [
        {
          "internalType": "uint256",
          "name": "",
          "type": "uint256"
        }
      ],
      "payable": false,
      "stateMutability": "pure",
      "type": "function"
    }
  ],
  "bytecode": "0x608060405234801561001057600080fd5b50604051610a6e380380610a6e833981810160405260a081101561003357600080fd5b5080516020808301516040840151606085015160809095015193949193909261006a90869062100a40906104996100e0821b17901c565b6001556100858462100a406100e0602090811b61049917901c565b60025560038390556100a58262100a406100e0602090811b61049917901c565b6004556100c08162100a406100e0602090811b61049917901c565b6005555050600080546001600160a01b03191633179055506101d1915050565b600061012883836040518060400160405280601a81526020017f536166654d6174683a206469766973696f6e206279207a65726f00000000000081525061012f60201b60201c565b9392505050565b600081836101bb5760405162461bcd60e51b81526004018080602001828103825283818151815260200191508051906020019080838360005b83811015610180578181015183820152602001610168565b50505050905090810190601f1680156101ad5780820380516001836020036101000a031916815260200191505b509250505060405180910390fd5b5060008385816101c757fe5b0495945050505050565b61088e806101e06000396000f3fe608060405234801561001057600080fd5b50600436106100ea5760003560e01c80638da5cb5b1161008c578063a385fb9611610066578063a385fb9614610236578063b81688161461023e578063dffd2b381461026d578063e36c26e414610132576100ea565b80638da5cb5b146101b05780639207aede146101d45780639dc8bea7146101dc576100ea565b8063599ff732116100c8578063599ff7321461014e5780635b6dde7f1461015657806364f42eda1461015e5780636e71e2d814610187576100ea565b80630b454f23146100ef57806315f24053146101095780632191f92a14610132575b600080fd5b6100f7610275565b60408051918252519081900360200190f35b6100f76004803603606081101561011f57600080fd5b508035906020810135906040013561027b565b61013a6102d3565b604080519115158252519081900360200190f35b6100f76102d8565b6100f76102de565b61013a6004803603606081101561017457600080fd5b50803590602081013590604001356102e4565b6100f76004803603606081101561019d57600080fd5b5080359060208101359060400135610301565b6101b8610353565b604080516001600160a01b039092168252519081900360200190f35b6100f7610362565b61020b600480360360808110156101f257600080fd5b5080359060208101359060408101359060600135610368565b6040518083600381111561021b57fe5b60ff1681526020018281526020019250505060405180910390f35b6100f76103e9565b6100f76004803603608081101561025457600080fd5b50803590602081013590604081013590606001356103f0565b6100f7610431565b60015481565b600080610289858585610301565b90506102ca6001546102be670de0b6b3a76400006102b26004548661043790919063ffffffff16565b9063ffffffff61049916565b9063ffffffff6104db16565b95945050505050565b600181565b60045481565b60025481565b6000806102f2858585610301565b600354109150505b9392505050565b600082610310575060006102fa565b61034b61033383610327878763ffffffff6104db16565b9063ffffffff61053516565b6102b285670de0b6b3a764000063ffffffff61043716565b949350505050565b6000546001600160a01b031681565b60055481565b600080610373610825565b600080610381898989610577565b9092509050600082600381111561039457fe5b146103a757509250600091506103e09050565b6103b181876105c4565b9350915060008260038111156103c357fe5b146103d657509250600091506103e09050565b5050516000925090505b94509492505050565b62100a4081565b6000806103fe868686610301565b90506104276002546102be670de0b6b3a76400006102b26005548661043790919063ffffffff16565b9695505050505050565b60035481565b60008261044657506000610493565b8282028284828161045357fe5b04146104905760405162461bcd60e51b81526004018080602001828103825260218152602001806108396021913960400191505060405180910390fd5b90505b92915050565b600061049083836040518060400160405280601a81526020017f536166654d6174683a206469766973696f6e206279207a65726f000000000000815250610676565b600082820183811015610490576040805162461bcd60e51b815260206004820152601b60248201527f536166654d6174683a206164646974696f6e206f766572666c6f770000000000604482015290519081900360640190fd5b600061049083836040518060400160405280601f81526020017f536166654d6174683a207375627472616374696f6e20756e646572666c6f7700815250610718565b6000806000806105878787610772565b9092509050600082600381111561059a57fe5b146105ab57509150600090506105bc565b6105b58186610798565b9350935050505b935093915050565b60006105ce610825565b6000806105e386670de0b6b3a76400006107bb565b909250905060008260038111156105f657fe5b146106155750604080516020810190915260008152909250905061066f565b60008061062283886107fa565b9092509050600082600381111561063557fe5b146106575750604080516020810190915260008152909450925061066f915050565b60408051602081019091529081526000955093505050505b9250929050565b600081836107025760405162461bcd60e51b81526004018080602001828103825283818151815260200191508051906020019080838360005b838110156106c75781810151838201526020016106af565b50505050905090810190601f1680156106f45780820380516001836020036101000a031916815260200191505b509250505060405180910390fd5b50600083858161070e57fe5b0495945050505050565b6000818484111561076a5760405162461bcd60e51b81526020600482018181528351602484015283519092839260449091019190850190808383600083156106c75781810151838201526020016106af565b505050900390565b60008083830184811061078a5760009250905061066f565b50600291506000905061066f565b6000808383116107af57506000905081830361066f565b5060039050600061066f565b600080836107ce5750600090508061066f565b838302838582816107db57fe5b04146107ef5750600291506000905061066f565b60009250905061066f565b6000808261080e575060019050600061066f565b600083858161081957fe5b04915091509250929050565b604051806020016040528060008152509056fe536166654d6174683a206d756c7469706c69636174696f6e206f766572666c6f77a265627a7a72315820d8bca695f6b5a54c2d8e4429ca72d198f6b65f8f8064db1a96ddcc1596d87e5f64736f6c63430005100032",
  "linkReferences": {},
  "deployedLinkReferences": {}
}