{
  "_format": "hh-sol-artifact-1",
  "contractName": "JumpRateModelV2",
  "sourceName": "contracts/JumpRateModelV2.sol",
  "abi": [
    {
      "inputs": [
        {
          "internalType": "uint256",
          "name": "baseRatePerYear",
          "type": "uint256"
        },
        {
          "internalType": "uint256",
          "name": "multiplierPerYear",
          "type": "uint256"
        },
        {
          "internalType": "uint256",
          "name": "jumpMultiplierPerYear",
          "type": "uint256"
        },
        {
          "internalType": "uint256",
          "name": "kink_",
          "type": "uint256"
        },
        {
          "internalType": "address",
          "name": "owner_",
          "type": "address"
        }
      ],
      "payable": false,
      "stateMutability": "nonpayable",
      "type": "constructor"
    },
    {
      "anonymous": false,
      "inputs": [
        {
          "indexed": true,
          "internalType": "address",
          "name": "newAdmin",
          "type": "address"
        }
      ],
      "name": "NewAdmin",
      "type": "event"
    },
    {
      "anonymous": false,
      "inputs": [
        {
          "indexed": false,
          "internalType": "uint256",
          "name": "baseRatePerBlock",
          "type": "uint256"
        },
        {
          "indexed": false,
          "internalType": "uint256",
          "name": "multiplierPerBlock",
          "type": "uint256"
        },
        {
          "indexed": false,
          "internalType": "uint256",
          "name": "jumpMultiplierPerBlock",
          "type": "uint256"
        },
        {
          "indexed": false,
          "internalType": "uint256",
          "name": "kink",
          "type": "uint256"
        }
      ],
      "name": "NewInterestParams",
      "type": "event"
    },
    {
      "anonymous": false,
      "inputs": [
        {
          "indexed": true,
          "internalType": "address",
          "name": "newPendingAdmin",
          "type": "address"
        }
      ],
      "name": "NewPendingAdmin",
      "type": "event"
    },
    {
      "constant": false,
      "inputs": [],
      "name": "_acceptPendingAdmin",
      "outputs": [],
      "payable": false,
      "stateMutability": "nonpayable",
      "type": "function"
    },
    {
      "constant": false,
      "inputs": [
        {
          "internalType": "address",
          "name": "pendingAdmin_",
          "type": "address"
        }
      ],
      "name": "_setPendingAdmin",
      "outputs": [],
      "payable": false,
      "stateMutability": "nonpayable",
      "type": "function"
    },
    {
      "constant": false,
      "inputs": [],
      "name": "acceptAdmin",
      "outputs": [],
      "payable": false,
      "stateMutability": "nonpayable",
      "type": "function"
    },
    {
      "constant": true,
      "inputs": [],
      "name": "baseRatePerBlock",
      "outputs": [
        {
          "internalType": "uint256",
          "name": "",
          "type": "uint256"
        }
      ],
      "payable": false,
      "stateMutability": "view",
      "type": "function"
    },
    {
      "constant": true,
      "inputs": [],
      "name": "blocksPerYear",
      "outputs": [
        {
          "internalType": "uint256",
          "name": "",
          "type": "uint256"
        }
      ],
      "payable": false,
      "stateMutability": "view",
      "type": "function"
    },
    {
      "constant": true,
      "inputs": [
        {
          "internalType": "uint256",
          "name": "cash",
          "type": "uint256"
        },
        {
          "internalType": "uint256",
          "name": "borrows",
          "type": "uint256"
        },
        {
          "internalType": "uint256",
          "name": "reserves",
          "type": "uint256"
        }
      ],
      "name": "getBorrowRate",
      "outputs": [
        {
          "internalType": "uint256",
          "name": "",
          "type": "uint256"
        }
      ],
      "payable": false,
      "stateMutability": "view",
      "type": "function"
    },
    {
      "constant": true,
      "inputs": [
        {
          "internalType": "uint256",
          "name": "_totalCash",
          "type": "uint256"
        },
        {
          "internalType": "uint256",
          "name": "_totalBorrows",
          "type": "uint256"
        },
        {
          "internalType": "uint256",
          "name": "_totalReserves",
          "type": "uint256"
        },
        {
          "internalType": "uint256",
          "name": "_totalSupply",
          "type": "uint256"
        }
      ],
      "name": "getExchangeRate",
      "outputs": [
        {
          "internalType": "enum CarefulMath.MathError",
          "name": "",
          "type": "uint8"
        },
        {
          "internalType": "uint256",
          "name": "",
          "type": "uint256"
        }
      ],
      "payable": false,
      "stateMutability": "pure",
      "type": "function"
    },
    {
      "constant": true,
      "inputs": [
        {
          "internalType": "uint256",
          "name": "cash",
          "type": "uint256"
        },
        {
          "internalType": "uint256",
          "name": "borrows",
          "type": "uint256"
        },
        {
          "internalType": "uint256",
          "name": "reserves",
          "type": "uint256"
        },
        {
          "internalType": "uint256",
          "name": "reserveFactorMantissa",
          "type": "uint256"
        }
      ],
      "name": "getSupplyRate",
      "outputs": [
        {
          "internalType": "uint256",
          "name": "",
          "type": "uint256"
        }
      ],
      "payable": false,
      "stateMutability": "view",
      "type": "function"
    },
    {
      "constant": true,
      "inputs": [
        {
          "internalType": "uint256",
          "name": "cash",
          "type": "uint256"
        },
        {
          "internalType": "uint256",
          "name": "borrows",
          "type": "uint256"
        },
        {
          "internalType": "uint256",
          "name": "reserves",
          "type": "uint256"
        }
      ],
      "name": "isAboveOptimal",
      "outputs": [
        {
          "internalType": "bool",
          "name": "",
          "type": "bool"
        }
      ],
      "payable": false,
      "stateMutability": "view",
      "type": "function"
    },
    {
      "constant": true,
      "inputs": [],
      "name": "isInterestRateModel",
      "outputs": [
        {
          "internalType": "bool",
          "name": "",
          "type": "bool"
        }
      ],
      "payable": false,
      "stateMutability": "view",
      "type": "function"
    },
    {
      "constant": true,
      "inputs": [],
      "name": "isTropykusInterestRateModel",
      "outputs": [
        {
          "internalType": "bool",
          "name": "",
          "type": "bool"
        }
      ],
      "payable": false,
      "stateMutability": "view",
      "type": "function"
    },
    {
      "constant": true,
      "inputs": [],
      "name": "jumpMultiplierPerBlock",
      "outputs": [
        {
          "internalType": "uint256",
          "name": "",
          "type": "uint256"
        }
      ],
      "payable": false,
      "stateMutability": "view",
      "type": "function"
    },
    {
      "constant": true,
      "inputs": [],
      "name": "kink",
      "outputs": [
        {
          "internalType": "uint256",
          "name": "",
          "type": "uint256"
        }
      ],
      "payable": false,
      "stateMutability": "view",
      "type": "function"
    },
    {
      "constant": true,
      "inputs": [],
      "name": "multiplierPerBlock",
      "outputs": [
        {
          "internalType": "uint256",
          "name": "",
          "type": "uint256"
        }
      ],
      "payable": false,
      "stateMutability": "view",
      "type": "function"
    },
    {
      "constant": true,
      "inputs": [],
      "name": "owner",
      "outputs": [
        {
          "internalType": "address",
          "name": "",
          "type": "address"
        }
      ],
      "payable": false,
      "stateMutability": "view",
      "type": "function"
    },
    {
      "constant": true,
      "inputs": [],
      "name": "pendingAdmin",
      "outputs": [
        {
          "internalType": "address",
          "name": "",
          "type": "address"
        }
      ],
      "payable": false,
      "stateMutability": "view",
      "type": "function"
    },
    {
      "constant": false,
      "inputs": [
        {
          "internalType": "uint256",
          "name": "blocksPerYear_",
          "type": "uint256"
        }
      ],
      "name": "setBlocksPerYear",
      "outputs": [],
      "payable": false,
      "stateMutability": "nonpayable",
      "type": "function"
    },
    {
      "constant": false,
      "inputs": [
        {
          "internalType": "address",
          "name": "pendingAdmin_",
          "type": "address"
        }
      ],
      "name": "setPendingAdmin",
      "outputs": [],
      "payable": false,
      "stateMutability": "nonpayable",
      "type": "function"
    },
    {
      "constant": false,
      "inputs": [
        {
          "internalType": "uint256",
          "name": "baseRatePerYear",
          "type": "uint256"
        },
        {
          "internalType": "uint256",
          "name": "multiplierPerYear",
          "type": "uint256"
        },
        {
          "internalType": "uint256",
          "name": "jumpMultiplierPerYear",
          "type": "uint256"
        },
        {
          "internalType": "uint256",
          "name": "kink_",
          "type": "uint256"
        }
      ],
      "name": "updateJumpRateModel",
      "outputs": [],
      "payable": false,
      "stateMutability": "nonpayable",
      "type": "function"
    },
    {
      "constant": true,
      "inputs": [
        {
          "internalType": "uint256",
          "name": "cash",
          "type": "uint256"
        },
        {
          "internalType": "uint256",
          "name": "borrows",
          "type": "uint256"
        },
        {
          "internalType": "uint256",
          "name": "reserves",
          "type": "uint256"
        }
      ],
      "name": "utilizationRate",
      "outputs": [
        {
          "internalType": "uint256",
          "name": "",
          "type": "uint256"
        }
      ],
      "payable": false,
      "stateMutability": "pure",
      "type": "function"
    }
  ],
  "bytecode": "0x60806040523480156200001157600080fd5b50604051620011bc380380620011bc833981810160405260a08110156200003757600080fd5b50805160208201516040808401516060850151608090950151600380546001600160a01b038084166001600160a01b0319928316179283905560018054909216331790915562100a40600090815594519697959693959492938893889388938893889392909116917f71614071b88dee5e0b2ae578a9dd7b2ebbe9ae832ba419dc0242cd065a290b6c91a2620000d9858585856001600160e01b03620000e916565b505050505050505050506200033a565b6200010560005485620001e260201b62000a4f1790919060201c565b600681905550620001616200012b826000546200023560201b620009f61790919060201c565b6200014d670de0b6b3a7640000866200023560201b620009f61790919060201c565b620001e260201b62000a4f1790919060201c565b6005819055506200018360005483620001e260201b62000a4f1790919060201c565b60078190556008829055600654600554604080519283526020830191909152818101929092526060810183905290517f6960ab234c7ef4b0c9197100f5393cfcde7c453ac910a27bd2000aa1dd4c068d9181900360800190a150505050565b60006200022c83836040518060400160405280601a81526020017f536166654d6174683a206469766973696f6e206279207a65726f0000000000008152506200029360201b60201c565b90505b92915050565b60008262000246575060006200022f565b828202828482816200025457fe5b04146200022c5760405162461bcd60e51b81526004018080602001828103825260218152602001806200119b6021913960400191505060405180910390fd5b60008183620003235760405162461bcd60e51b81526004018080602001828103825283818151815260200191508051906020019080838360005b83811015620002e7578181015183820152602001620002cd565b50505050905090810190601f168015620003155780820380516001836020036101000a031916815260200191505b509250505060405180910390fd5b5060008385816200033057fe5b0495945050505050565b610e51806200034a6000396000f3fe608060405234801561001057600080fd5b506004361061012c5760003560e01c80638da5cb5b116100ad578063b9f9850a11610071578063b9f9850a1461032c578063e36c26e414610334578063e5fa2b701461033c578063f14039de14610359578063fd2da339146103615761012c565b80638da5cb5b1461026d5780639dc8bea714610275578063a385fb96146102cf578063b71d1a0c146102d7578063b8168816146102fd5761012c565b80634a198ca6116100f45780634a198ca6146101e55780634dd18bf5146101ed57806364f42eda146102135780636e71e2d81461023c5780638726bb89146102655761012c565b80630e18b6811461013157806315f240531461013b5780632037f3e7146101765780632191f92a146101a557806326782247146101c1575b600080fd5b610139610369565b005b6101646004803603606081101561015157600080fd5b5080359060208101359060400135610408565b60408051918252519081900360200190f35b6101396004803603608081101561018c57600080fd5b508035906020810135906040810135906060013561041f565b6101ad61047a565b604080519115158252519081900360200190f35b6101c961047f565b604080516001600160a01b039092168252519081900360200190f35b61013961048e565b6101396004803603602081101561020357600080fd5b50356001600160a01b03166104ff565b6101ad6004803603606081101561022957600080fd5b5080359060208101359060400135610598565b6101646004803603606081101561025257600080fd5b50803590602081013590604001356105a1565b6101646105f7565b6101c96105fd565b6102a46004803603608081101561028b57600080fd5b508035906020810135906040810135906060013561060c565b604051808360038111156102b457fe5b60ff1681526020018281526020019250505060405180910390f35b61016461068d565b610139600480360360208110156102ed57600080fd5b50356001600160a01b0316610693565b6101646004803603608081101561031357600080fd5b50803590602081013590604081013590606001356106ff565b61016461077e565b6101ad610784565b6101396004803603602081101561035257600080fd5b5035610789565b6101646107d8565b6101646107de565b6004546001600160a01b031633146103b25760405162461bcd60e51b8152600401808060200182810382526043815260200180610d536043913960600191505060405180910390fd5b60038054336001600160a01b031991821617918290556004805490911690556040516001600160a01b03909116907f71614071b88dee5e0b2ae578a9dd7b2ebbe9ae832ba419dc0242cd065a290b6c90600090a2565b60006104158484846107e4565b90505b9392505050565b6003546001600160a01b031633146104685760405162461bcd60e51b8152600401808060200182810382526026815260200180610df76026913960400191505060405180910390fd5b610474848484846108ad565b50505050565b600181565b6004546001600160a01b031681565b6002546001600160a01b031633146104db576040805162461bcd60e51b815260206004820152600b60248201526a2727a72722aba0a226a4a760a91b604482015290519081900360640190fd5b600254600180546001600160a01b0319166001600160a01b03909216919091179055565b6003546001600160a01b031633146105485760405162461bcd60e51b8152600401808060200182810382526040815260200180610db76040913960400191505060405180910390fd5b600480546001600160a01b0319166001600160a01b0383811691909117918290556040519116907f69d78e38a01985fbb1462961809b4b2d65531bc93b2b94037f3334b82ca4a75690600090a250565b60009392505050565b6000826105b057506000610418565b6104156105d3836105c7878763ffffffff61095116565b9063ffffffff6109b416565b6105eb85670de0b6b3a764000063ffffffff6109f616565b9063ffffffff610a4f16565b60055481565b6003546001600160a01b031681565b600080610617610d3f565b600080610625898989610a91565b9092509050600082600381111561063857fe5b1461064b57509250600091506106849050565b6106558187610ade565b93509150600082600381111561066757fe5b1461067a57509250600091506106849050565b5050516000925090505b94509492505050565b60005481565b6001546001600160a01b031633146106dd576040805162461bcd60e51b81526020600482015260086024820152672727a720a226a4a760c11b604482015290519081900360640190fd5b600280546001600160a01b0319166001600160a01b0392909216919091179055565b60008061071a670de0b6b3a76400008463ffffffff6109b416565b905060006107298787876107e4565b90506000610749670de0b6b3a76400006105eb848663ffffffff6109f616565b9050610772670de0b6b3a76400006105eb836107668c8c8c6105a1565b9063ffffffff6109f616565b98975050505050505050565b60075481565b600081565b6001546001600160a01b031633146107d3576040805162461bcd60e51b81526020600482015260086024820152672727a720a226a4a760c11b604482015290519081900360640190fd5b600055565b60065481565b60085481565b6000806107f28585856105a1565b9050600854811161083857610830600654610824670de0b6b3a76400006105eb600554866109f690919063ffffffff16565b9063ffffffff61095116565b915050610418565b6000610863600654610824670de0b6b3a76400006105eb6005546008546109f690919063ffffffff16565b9050600061087c600854846109b490919063ffffffff16565b90506108a382610824670de0b6b3a76400006105eb600754866109f690919063ffffffff16565b9350505050610418565b6000546108c190859063ffffffff610a4f16565b6006556000546108db906105d3908363ffffffff6109f616565b6005556000546108f290839063ffffffff610a4f16565b60078190556008829055600654600554604080519283526020830191909152818101929092526060810183905290517f6960ab234c7ef4b0c9197100f5393cfcde7c453ac910a27bd2000aa1dd4c068d9181900360800190a150505050565b6000828201838110156109ab576040805162461bcd60e51b815260206004820152601b60248201527f536166654d6174683a206164646974696f6e206f766572666c6f770000000000604482015290519081900360640190fd5b90505b92915050565b60006109ab83836040518060400160405280601f81526020017f536166654d6174683a207375627472616374696f6e20756e646572666c6f7700815250610b90565b600082610a05575060006109ae565b82820282848281610a1257fe5b04146109ab5760405162461bcd60e51b8152600401808060200182810382526021815260200180610d966021913960400191505060405180910390fd5b60006109ab83836040518060400160405280601a81526020017f536166654d6174683a206469766973696f6e206279207a65726f000000000000815250610c27565b600080600080610aa18787610c8c565b90925090506000826003811115610ab457fe5b14610ac55750915060009050610ad6565b610acf8186610cb2565b9350935050505b935093915050565b6000610ae8610d3f565b600080610afd86670de0b6b3a7640000610cd5565b90925090506000826003811115610b1057fe5b14610b2f57506040805160208101909152600081529092509050610b89565b600080610b3c8388610d14565b90925090506000826003811115610b4f57fe5b14610b7157506040805160208101909152600081529094509250610b89915050565b60408051602081019091529081526000955093505050505b9250929050565b60008184841115610c1f5760405162461bcd60e51b81526004018080602001828103825283818151815260200191508051906020019080838360005b83811015610be4578181015183820152602001610bcc565b50505050905090810190601f168015610c115780820380516001836020036101000a031916815260200191505b509250505060405180910390fd5b505050900390565b60008183610c765760405162461bcd60e51b8152602060048201818152835160248401528351909283926044909101919085019080838360008315610be4578181015183820152602001610bcc565b506000838581610c8257fe5b0495945050505050565b600080838301848110610ca457600092509050610b89565b506002915060009050610b89565b600080838311610cc9575060009050818303610b89565b50600390506000610b89565b60008083610ce857506000905080610b89565b83830283858281610cf557fe5b0414610d0957506002915060009050610b89565b600092509050610b89565b60008082610d285750600190506000610b89565b6000838581610d3357fe5b04915091509250929050565b604051806020016040528060008152509056fe426173654a756d70526174654d6f64656c56323a3a61636365707441646d696e3a2043616c6c206d75737420636f6d652066726f6d2070656e64696e6741646d696e2e536166654d6174683a206d756c7469706c69636174696f6e206f766572666c6f77426173654a756d70526174654d6f64656c56323a3a73657450656e64696e6741646d696e3a2043616c6c206d75737420636f6d652066726f6d206f776e65722e6f6e6c7920746865206f776e6572206d61792063616c6c20746869732066756e6374696f6e2ea265627a7a7231582081c53cfc3b337cf752813a6742bf7b86cb853024f4a3a37bd276e214b486dace64736f6c63430005100032536166654d6174683a206d756c7469706c69636174696f6e206f766572666c6f77",
  "linkReferences": {},
  "deployedLinkReferences": {}
}