{
  "_format": "hh-sol-artifact-1",
  "contractName": "WhitePaperInterestRateModel",
  "sourceName": "contracts/WhitePaperInterestRateModel.sol",
  "abi": [
    {
      "inputs": [
        {
          "internalType": "uint256",
          "name": "baseRatePerYear",
          "type": "uint256"
        },
        {
          "internalType": "uint256",
          "name": "multiplierPerYear",
          "type": "uint256"
        }
      ],
      "payable": false,
      "stateMutability": "nonpayable",
      "type": "constructor"
    },
    {
      "anonymous": false,
      "inputs": [
        {
          "indexed": false,
          "internalType": "uint256",
          "name": "baseRatePerBlock",
          "type": "uint256"
        },
        {
          "indexed": false,
          "internalType": "uint256",
          "name": "multiplierPerBlock",
          "type": "uint256"
        }
      ],
      "name": "NewInterestParams",
      "type": "event"
    },
    {
      "constant": true,
      "inputs": [],
      "name": "baseRatePerBlock",
      "outputs": [
        {
          "internalType": "uint256",
          "name": "",
          "type": "uint256"
        }
      ],
      "payable": false,
      "stateMutability": "view",
      "type": "function"
    },
    {
      "constant": true,
      "inputs": [],
      "name": "blocksPerYear",
      "outputs": [
        {
          "internalType": "uint256",
          "name": "",
          "type": "uint256"
        }
      ],
      "payable": false,
      "stateMutability": "view",
      "type": "function"
    },
    {
      "constant": true,
      "inputs": [
        {
          "internalType": "uint256",
          "name": "cash",
          "type": "uint256"
        },
        {
          "internalType": "uint256",
          "name": "borrows",
          "type": "uint256"
        },
        {
          "internalType": "uint256",
          "name": "reserves",
          "type": "uint256"
        }
      ],
      "name": "getBorrowRate",
      "outputs": [
        {
          "internalType": "uint256",
          "name": "",
          "type": "uint256"
        }
      ],
      "payable": false,
      "stateMutability": "view",
      "type": "function"
    },
    {
      "constant": true,
      "inputs": [
        {
          "internalType": "uint256",
          "name": "_totalCash",
          "type": "uint256"
        },
        {
          "internalType": "uint256",
          "name": "_totalBorrows",
          "type": "uint256"
        },
        {
          "internalType": "uint256",
          "name": "_totalReserves",
          "type": "uint256"
        },
        {
          "internalType": "uint256",
          "name": "_totalSupply",
          "type": "uint256"
        }
      ],
      "name": "getExchangeRate",
      "outputs": [
        {
          "internalType": "enum CarefulMath.MathError",
          "name": "",
          "type": "uint8"
        },
        {
          "internalType": "uint256",
          "name": "",
          "type": "uint256"
        }
      ],
      "payable": false,
      "stateMutability": "pure",
      "type": "function"
    },
    {
      "constant": true,
      "inputs": [
        {
          "internalType": "uint256",
          "name": "cash",
          "type": "uint256"
        },
        {
          "internalType": "uint256",
          "name": "borrows",
          "type": "uint256"
        },
        {
          "internalType": "uint256",
          "name": "reserves",
          "type": "uint256"
        },
        {
          "internalType": "uint256",
          "name": "reserveFactorMantissa",
          "type": "uint256"
        }
      ],
      "name": "getSupplyRate",
      "outputs": [
        {
          "internalType": "uint256",
          "name": "",
          "type": "uint256"
        }
      ],
      "payable": false,
      "stateMutability": "view",
      "type": "function"
    },
    {
      "constant": true,
      "inputs": [
        {
          "internalType": "uint256",
          "name": "cash",
          "type": "uint256"
        },
        {
          "internalType": "uint256",
          "name": "borrows",
          "type": "uint256"
        },
        {
          "internalType": "uint256",
          "name": "reserves",
          "type": "uint256"
        }
      ],
      "name": "isAboveOptimal",
      "outputs": [
        {
          "internalType": "bool",
          "name": "",
          "type": "bool"
        }
      ],
      "payable": false,
      "stateMutability": "view",
      "type": "function"
    },
    {
      "constant": true,
      "inputs": [],
      "name": "isInterestRateModel",
      "outputs": [
        {
          "internalType": "bool",
          "name": "",
          "type": "bool"
        }
      ],
      "payable": false,
      "stateMutability": "view",
      "type": "function"
    },
    {
      "constant": true,
      "inputs": [],
      "name": "isTropykusInterestRateModel",
      "outputs": [
        {
          "internalType": "bool",
          "name": "",
          "type": "bool"
        }
      ],
      "payable": false,
      "stateMutability": "view",
      "type": "function"
    },
    {
      "constant": true,
      "inputs": [],
      "name": "multiplierPerBlock",
      "outputs": [
        {
          "internalType": "uint256",
          "name": "",
          "type": "uint256"
        }
      ],
      "payable": false,
      "stateMutability": "view",
      "type": "function"
    },
    {
      "constant": true,
      "inputs": [
        {
          "internalType": "uint256",
          "name": "cash",
          "type": "uint256"
        },
        {
          "internalType": "uint256",
          "name": "borrows",
          "type": "uint256"
        },
        {
          "internalType": "uint256",
          "name": "reserves",
          "type": "uint256"
        }
      ],
      "name": "utilizationRate",
      "outputs": [
        {
          "internalType": "uint256",
          "name": "",
          "type": "uint256"
        }
      ],
      "payable": false,
      "stateMutability": "pure",
      "type": "function"
    }
  ],
  "bytecode": "0x608060405234801561001057600080fd5b506040516109da3803806109da8339818101604052604081101561003357600080fd5b508051602091820151909161005690839062100a40906104296100bc821b17901c565b6001556100718162100a406100bc602090811b61042917901c565b600081905560015460408051918252602082019290925281517ff35fa19c15e9ba782633a5df62a98b20217151addc68e3ff2cd623a48d37ec27929181900390910190a150506101ad565b600061010483836040518060400160405280601a81526020017f536166654d6174683a206469766973696f6e206279207a65726f00000000000081525061010b60201b60201c565b9392505050565b600081836101975760405162461bcd60e51b81526004018080602001828103825283818151815260200191508051906020019080838360005b8381101561015c578181015183820152602001610144565b50505050905090810190601f1680156101895780820380516001836020036101000a031916815260200191505b509250505060405180910390fd5b5060008385816101a357fe5b0495945050505050565b61081e806101bc6000396000f3fe608060405234801561001057600080fd5b506004361061009e5760003560e01c80639dc8bea7116100665780639dc8bea714610154578063a385fb96146101ae578063b8168816146101b6578063e36c26e4146101e5578063f14039de146101ed5761009e565b806315f24053146100a35780632191f92a146100de57806364f42eda146100fa5780636e71e2d8146101235780638726bb891461014c575b600080fd5b6100cc600480360360608110156100b957600080fd5b50803590602081013590604001356101f5565b60408051918252519081900360200190f35b6100e661024f565b604080519115158252519081900360200190f35b6100e66004803603606081101561011057600080fd5b5080359060208101359060400135610254565b6100cc6004803603606081101561013957600080fd5b508035906020810135906040013561025d565b6100cc6102af565b6101836004803603608081101561016a57600080fd5b50803590602081013590604081013590606001356102b5565b6040518083600381111561019357fe5b60ff1681526020018281526020019250505060405180910390f35b6100cc610336565b6100cc600480360360808110156101cc57600080fd5b508035906020810135906040810135906060013561033d565b6100e66103bc565b6100cc6103c1565b60008061020385858561025d565b9050610244600154610238670de0b6b3a764000061022c600054866103c790919063ffffffff16565b9063ffffffff61042916565b9063ffffffff61046b16565b9150505b9392505050565b600181565b60009392505050565b60008261026c57506000610248565b6102a761028f83610283878763ffffffff61046b16565b9063ffffffff6104c516565b61022c85670de0b6b3a764000063ffffffff6103c716565b949350505050565b60005481565b6000806102c06107b5565b6000806102ce898989610507565b909250905060008260038111156102e157fe5b146102f4575092506000915061032d9050565b6102fe8187610554565b93509150600082600381111561031057fe5b14610323575092506000915061032d9050565b5050516000925090505b94509492505050565b62100a4081565b600080610358670de0b6b3a76400008463ffffffff6104c516565b905060006103678787876101f5565b90506000610387670de0b6b3a764000061022c848663ffffffff6103c716565b90506103b0670de0b6b3a764000061022c836103a48c8c8c61025d565b9063ffffffff6103c716565b98975050505050505050565b600081565b60015481565b6000826103d657506000610423565b828202828482816103e357fe5b04146104205760405162461bcd60e51b81526004018080602001828103825260218152602001806107c96021913960400191505060405180910390fd5b90505b92915050565b600061042083836040518060400160405280601a81526020017f536166654d6174683a206469766973696f6e206279207a65726f000000000000815250610606565b600082820183811015610420576040805162461bcd60e51b815260206004820152601b60248201527f536166654d6174683a206164646974696f6e206f766572666c6f770000000000604482015290519081900360640190fd5b600061042083836040518060400160405280601f81526020017f536166654d6174683a207375627472616374696f6e20756e646572666c6f77008152506106a8565b6000806000806105178787610702565b9092509050600082600381111561052a57fe5b1461053b575091506000905061054c565b6105458186610728565b9350935050505b935093915050565b600061055e6107b5565b60008061057386670de0b6b3a764000061074b565b9092509050600082600381111561058657fe5b146105a5575060408051602081019091526000815290925090506105ff565b6000806105b2838861078a565b909250905060008260038111156105c557fe5b146105e7575060408051602081019091526000815290945092506105ff915050565b60408051602081019091529081526000955093505050505b9250929050565b600081836106925760405162461bcd60e51b81526004018080602001828103825283818151815260200191508051906020019080838360005b8381101561065757818101518382015260200161063f565b50505050905090810190601f1680156106845780820380516001836020036101000a031916815260200191505b509250505060405180910390fd5b50600083858161069e57fe5b0495945050505050565b600081848411156106fa5760405162461bcd60e51b815260206004820181815283516024840152835190928392604490910191908501908083836000831561065757818101518382015260200161063f565b505050900390565b60008083830184811061071a576000925090506105ff565b5060029150600090506105ff565b60008083831161073f5750600090508183036105ff565b506003905060006105ff565b6000808361075e575060009050806105ff565b8383028385828161076b57fe5b041461077f575060029150600090506105ff565b6000925090506105ff565b6000808261079e57506001905060006105ff565b60008385816107a957fe5b04915091509250929050565b604051806020016040528060008152509056fe536166654d6174683a206d756c7469706c69636174696f6e206f766572666c6f77a265627a7a723158200e58acd31ebb6e8207d75e0e6d68eb207e1c7fff75c96e58d766ed571eda5de064736f6c63430005100032",
  "linkReferences": {},
  "deployedLinkReferences": {}
}