{
  "_format": "hh-sol-artifact-1",
  "contractName": "WhitePaperInterestRateModel",
  "sourceName": "contracts/WhitePaperInterestRateModel.sol",
  "abi": [
    {
      "inputs": [
        {
          "internalType": "uint256",
          "name": "baseRatePerYear",
          "type": "uint256"
        },
        {
          "internalType": "uint256",
          "name": "multiplierPerYear",
          "type": "uint256"
        }
      ],
      "payable": false,
      "stateMutability": "nonpayable",
      "type": "constructor"
    },
    {
      "anonymous": false,
      "inputs": [
        {
          "indexed": false,
          "internalType": "uint256",
          "name": "baseRatePerBlock",
          "type": "uint256"
        },
        {
          "indexed": false,
          "internalType": "uint256",
          "name": "multiplierPerBlock",
          "type": "uint256"
        }
      ],
      "name": "NewInterestParams",
      "type": "event"
    },
    {
      "constant": false,
      "inputs": [],
      "name": "_acceptPendingAdmin",
      "outputs": [],
      "payable": false,
      "stateMutability": "nonpayable",
      "type": "function"
    },
    {
      "constant": false,
      "inputs": [
        {
          "internalType": "address",
          "name": "pendingAdmin_",
          "type": "address"
        }
      ],
      "name": "_setPendingAdmin",
      "outputs": [],
      "payable": false,
      "stateMutability": "nonpayable",
      "type": "function"
    },
    {
      "constant": true,
      "inputs": [],
      "name": "baseRatePerBlock",
      "outputs": [
        {
          "internalType": "uint256",
          "name": "",
          "type": "uint256"
        }
      ],
      "payable": false,
      "stateMutability": "view",
      "type": "function"
    },
    {
      "constant": true,
      "inputs": [],
      "name": "blocksPerYear",
      "outputs": [
        {
          "internalType": "uint256",
          "name": "",
          "type": "uint256"
        }
      ],
      "payable": false,
      "stateMutability": "view",
      "type": "function"
    },
    {
      "constant": true,
      "inputs": [
        {
          "internalType": "uint256",
          "name": "cash",
          "type": "uint256"
        },
        {
          "internalType": "uint256",
          "name": "borrows",
          "type": "uint256"
        },
        {
          "internalType": "uint256",
          "name": "reserves",
          "type": "uint256"
        }
      ],
      "name": "getBorrowRate",
      "outputs": [
        {
          "internalType": "uint256",
          "name": "",
          "type": "uint256"
        }
      ],
      "payable": false,
      "stateMutability": "view",
      "type": "function"
    },
    {
      "constant": true,
      "inputs": [
        {
          "internalType": "uint256",
          "name": "_totalCash",
          "type": "uint256"
        },
        {
          "internalType": "uint256",
          "name": "_totalBorrows",
          "type": "uint256"
        },
        {
          "internalType": "uint256",
          "name": "_totalReserves",
          "type": "uint256"
        },
        {
          "internalType": "uint256",
          "name": "_totalSupply",
          "type": "uint256"
        }
      ],
      "name": "getExchangeRate",
      "outputs": [
        {
          "internalType": "enum CarefulMath.MathError",
          "name": "",
          "type": "uint8"
        },
        {
          "internalType": "uint256",
          "name": "",
          "type": "uint256"
        }
      ],
      "payable": false,
      "stateMutability": "pure",
      "type": "function"
    },
    {
      "constant": true,
      "inputs": [
        {
          "internalType": "uint256",
          "name": "cash",
          "type": "uint256"
        },
        {
          "internalType": "uint256",
          "name": "borrows",
          "type": "uint256"
        },
        {
          "internalType": "uint256",
          "name": "reserves",
          "type": "uint256"
        },
        {
          "internalType": "uint256",
          "name": "reserveFactorMantissa",
          "type": "uint256"
        }
      ],
      "name": "getSupplyRate",
      "outputs": [
        {
          "internalType": "uint256",
          "name": "",
          "type": "uint256"
        }
      ],
      "payable": false,
      "stateMutability": "view",
      "type": "function"
    },
    {
      "constant": true,
      "inputs": [
        {
          "internalType": "uint256",
          "name": "cash",
          "type": "uint256"
        },
        {
          "internalType": "uint256",
          "name": "borrows",
          "type": "uint256"
        },
        {
          "internalType": "uint256",
          "name": "reserves",
          "type": "uint256"
        }
      ],
      "name": "isAboveOptimal",
      "outputs": [
        {
          "internalType": "bool",
          "name": "",
          "type": "bool"
        }
      ],
      "payable": false,
      "stateMutability": "view",
      "type": "function"
    },
    {
      "constant": true,
      "inputs": [],
      "name": "isInterestRateModel",
      "outputs": [
        {
          "internalType": "bool",
          "name": "",
          "type": "bool"
        }
      ],
      "payable": false,
      "stateMutability": "view",
      "type": "function"
    },
    {
      "constant": true,
      "inputs": [],
      "name": "isTropykusInterestRateModel",
      "outputs": [
        {
          "internalType": "bool",
          "name": "",
          "type": "bool"
        }
      ],
      "payable": false,
      "stateMutability": "view",
      "type": "function"
    },
    {
      "constant": true,
      "inputs": [],
      "name": "multiplierPerBlock",
      "outputs": [
        {
          "internalType": "uint256",
          "name": "",
          "type": "uint256"
        }
      ],
      "payable": false,
      "stateMutability": "view",
      "type": "function"
    },
    {
      "constant": false,
      "inputs": [
        {
          "internalType": "uint256",
          "name": "blocksPerYear_",
          "type": "uint256"
        }
      ],
      "name": "setBlocksPerYear",
      "outputs": [],
      "payable": false,
      "stateMutability": "nonpayable",
      "type": "function"
    },
    {
      "constant": true,
      "inputs": [
        {
          "internalType": "uint256",
          "name": "cash",
          "type": "uint256"
        },
        {
          "internalType": "uint256",
          "name": "borrows",
          "type": "uint256"
        },
        {
          "internalType": "uint256",
          "name": "reserves",
          "type": "uint256"
        }
      ],
      "name": "utilizationRate",
      "outputs": [
        {
          "internalType": "uint256",
          "name": "",
          "type": "uint256"
        }
      ],
      "payable": false,
      "stateMutability": "pure",
      "type": "function"
    }
  ],
  "bytecode": "0x608060405234801561001057600080fd5b50604051610c56380380610c568339818101604052604081101561003357600080fd5b50805160209182015162100a406000819055600180546001600160a01b031916331790559192909161006f918491906106396100d9821b17901c565b60048190555061008e600054826100d960201b6106391790919060201c565b600381905560045460408051918252602082019290925281517ff35fa19c15e9ba782633a5df62a98b20217151addc68e3ff2cd623a48d37ec27929181900390910190a150506101ca565b600061012183836040518060400160405280601a81526020017f536166654d6174683a206469766973696f6e206279207a65726f00000000000081525061012860201b60201c565b9392505050565b600081836101b45760405162461bcd60e51b81526004018080602001828103825283818151815260200191508051906020019080838360005b83811015610179578181015183820152602001610161565b50505050905090810190601f1680156101a65780820380516001836020036101000a031916815260200191505b509250505060405180910390fd5b5060008385816101c057fe5b0495945050505050565b610a7d806101d96000396000f3fe608060405234801561001057600080fd5b50600436106100cf5760003560e01c80639dc8bea71161008c578063b816881611610066578063b816881614610217578063e36c26e414610246578063e5fa2b701461024e578063f14039de1461026b576100cf565b80639dc8bea71461018f578063a385fb96146101e9578063b71d1a0c146101f1576100cf565b806315f24053146100d45780632191f92a1461010f5780634a198ca61461012b57806364f42eda146101355780636e71e2d81461015e5780638726bb8914610187575b600080fd5b6100fd600480360360608110156100ea57600080fd5b5080359060208101359060400135610273565b60408051918252519081900360200190f35b6101176102cd565b604080519115158252519081900360200190f35b6101336102d2565b005b6101176004803603606081101561014b57600080fd5b5080359060208101359060400135610343565b6100fd6004803603606081101561017457600080fd5b508035906020810135906040013561034c565b6100fd61039e565b6101be600480360360808110156101a557600080fd5b50803590602081013590604081013590606001356103a4565b604051808360038111156101ce57fe5b60ff1681526020018281526020019250505060405180910390f35b6100fd610425565b6101336004803603602081101561020757600080fd5b50356001600160a01b031661042b565b6100fd6004803603608081101561022d57600080fd5b5080359060208101359060408101359060600135610497565b610117610516565b6101336004803603602081101561026457600080fd5b503561051b565b6100fd6105d1565b60008061028185858561034c565b90506102c26004546102b6670de0b6b3a76400006102aa600354866105d790919063ffffffff16565b9063ffffffff61063916565b9063ffffffff61067b16565b9150505b9392505050565b600181565b6002546001600160a01b0316331461031f576040805162461bcd60e51b815260206004820152600b60248201526a2727a72722aba0a226a4a760a91b604482015290519081900360640190fd5b600254600180546001600160a01b0319166001600160a01b03909216919091179055565b60009392505050565b60008261035b575060006102c6565b61039661037e83610372878763ffffffff61067b16565b9063ffffffff6106d516565b6102aa85670de0b6b3a764000063ffffffff6105d716565b949350505050565b60035481565b6000806103af610a14565b6000806103bd898989610717565b909250905060008260038111156103d057fe5b146103e3575092506000915061041c9050565b6103ed8187610764565b9350915060008260038111156103ff57fe5b14610412575092506000915061041c9050565b5050516000925090505b94509492505050565b60005481565b6001546001600160a01b03163314610475576040805162461bcd60e51b81526020600482015260086024820152672727a720a226a4a760c11b604482015290519081900360640190fd5b600280546001600160a01b0319166001600160a01b0392909216919091179055565b6000806104b2670de0b6b3a76400008463ffffffff6106d516565b905060006104c1878787610273565b905060006104e1670de0b6b3a76400006102aa848663ffffffff6105d716565b905061050a670de0b6b3a76400006102aa836104fe8c8c8c61034c565b9063ffffffff6105d716565b98975050505050505050565b600081565b6001546001600160a01b03163314610565576040805162461bcd60e51b81526020600482015260086024820152672727a720a226a4a760c11b604482015290519081900360640190fd5b60005460045461057a9163ffffffff6105d716565b6004556000546003546105929163ffffffff6105d716565b60035561059e81610816565b6000546004546105b39163ffffffff61063916565b6004556000546003546105cb9163ffffffff61063916565b60035550565b60045481565b6000826105e657506000610633565b828202828482816105f357fe5b04146106305760405162461bcd60e51b8152600401808060200182810382526021815260200180610a286021913960400191505060405180910390fd5b90505b92915050565b600061063083836040518060400160405280601a81526020017f536166654d6174683a206469766973696f6e206279207a65726f000000000000815250610865565b600082820183811015610630576040805162461bcd60e51b815260206004820152601b60248201527f536166654d6174683a206164646974696f6e206f766572666c6f770000000000604482015290519081900360640190fd5b600061063083836040518060400160405280601f81526020017f536166654d6174683a207375627472616374696f6e20756e646572666c6f7700815250610907565b6000806000806107278787610961565b9092509050600082600381111561073a57fe5b1461074b575091506000905061075c565b6107558186610987565b9350935050505b935093915050565b600061076e610a14565b60008061078386670de0b6b3a76400006109aa565b9092509050600082600381111561079657fe5b146107b55750604080516020810190915260008152909250905061080f565b6000806107c283886109e9565b909250905060008260038111156107d557fe5b146107f75750604080516020810190915260008152909450925061080f915050565b60408051602081019091529081526000955093505050505b9250929050565b6001546001600160a01b03163314610860576040805162461bcd60e51b81526020600482015260086024820152672727a720a226a4a760c11b604482015290519081900360640190fd5b600055565b600081836108f15760405162461bcd60e51b81526004018080602001828103825283818151815260200191508051906020019080838360005b838110156108b657818101518382015260200161089e565b50505050905090810190601f1680156108e35780820380516001836020036101000a031916815260200191505b509250505060405180910390fd5b5060008385816108fd57fe5b0495945050505050565b600081848411156109595760405162461bcd60e51b81526020600482018181528351602484015283519092839260449091019190850190808383600083156108b657818101518382015260200161089e565b505050900390565b6000808383018481106109795760009250905061080f565b50600291506000905061080f565b60008083831161099e57506000905081830361080f565b5060039050600061080f565b600080836109bd5750600090508061080f565b838302838582816109ca57fe5b04146109de5750600291506000905061080f565b60009250905061080f565b600080826109fd575060019050600061080f565b6000838581610a0857fe5b04915091509250929050565b604051806020016040528060008152509056fe536166654d6174683a206d756c7469706c69636174696f6e206f766572666c6f77a265627a7a72315820746bee9ed3666fb3f3b1894fcc7d10e1a806c4b331693f8f93dd94a25ae120c764736f6c63430005100032",
  "linkReferences": {},
  "deployedLinkReferences": {}
}